{
  "address": "0xfb46AF651e4FC68805AdeD181e9D6645629Be382",
  "abi": [
    {
      "anonymous": false,
      "inputs": [
        {
          "indexed": false,
          "internalType": "address",
          "name": "sender",
          "type": "address"
        },
        {
          "indexed": false,
          "internalType": "uint256",
          "name": "cdp",
          "type": "uint256"
        },
        {
          "indexed": false,
          "internalType": "uint256",
          "name": "collateral",
          "type": "uint256"
        },
        {
          "indexed": false,
          "internalType": "uint256",
          "name": "debt",
          "type": "uint256"
        }
      ],
      "name": "LockAndDraw",
      "type": "event"
    },
    {
      "anonymous": false,
      "inputs": [
        {
          "indexed": true,
          "internalType": "address",
          "name": "previousOwner",
          "type": "address"
        },
        {
          "indexed": true,
          "internalType": "address",
          "name": "newOwner",
          "type": "address"
        }
      ],
      "name": "OwnershipTransferred",
      "type": "event"
    },
    {
      "anonymous": false,
      "inputs": [
        {
          "indexed": false,
          "internalType": "address",
          "name": "sender",
          "type": "address"
        },
        {
          "indexed": false,
          "internalType": "uint256",
          "name": "cdp",
          "type": "uint256"
        },
        {
          "indexed": false,
          "internalType": "uint256",
          "name": "collateral",
          "type": "uint256"
        },
        {
          "indexed": false,
          "internalType": "uint256",
          "name": "debt",
          "type": "uint256"
        }
      ],
      "name": "WipeAndFree",
      "type": "event"
    },
    {
      "stateMutability": "payable",
      "type": "fallback"
    },
    {
      "inputs": [],
      "name": "LOCK_AND_DRAW",
      "outputs": [
        {
          "internalType": "uint8",
          "name": "",
          "type": "uint8"
        }
      ],
      "stateMutability": "view",
      "type": "function"
    },
    {
      "inputs": [],
      "name": "WIPE_AND_FREE",
      "outputs": [
        {
          "internalType": "uint8",
          "name": "",
          "type": "uint8"
        }
      ],
      "stateMutability": "view",
      "type": "function"
    },
    {
      "inputs": [
        {
          "internalType": "address[]",
          "name": "assets",
          "type": "address[]"
        },
        {
          "internalType": "uint256[]",
          "name": "amounts",
          "type": "uint256[]"
        },
        {
          "internalType": "uint256[]",
          "name": "premiums",
          "type": "uint256[]"
        },
        {
          "internalType": "address",
          "name": "initiator",
          "type": "address"
        },
        {
          "internalType": "bytes",
          "name": "params",
          "type": "bytes"
        }
      ],
      "name": "executeOperation",
      "outputs": [
        {
          "internalType": "bool",
          "name": "",
          "type": "bool"
        }
      ],
      "stateMutability": "nonpayable",
      "type": "function"
    },
    {
      "inputs": [],
      "name": "feeManager",
      "outputs": [
        {
          "internalType": "address",
          "name": "",
          "type": "address"
        }
      ],
      "stateMutability": "view",
      "type": "function"
    },
    {
      "inputs": [
        {
          "internalType": "address",
          "name": "owner",
          "type": "address"
        },
        {
          "internalType": "address",
          "name": "target",
          "type": "address"
        },
        {
          "internalType": "address[]",
          "name": "ownerTokens",
          "type": "address[]"
        },
        {
          "internalType": "uint256[]",
          "name": "ownerAmounts",
          "type": "uint256[]"
        },
        {
          "internalType": "address",
          "name": "lendingPool",
          "type": "address"
        },
        {
          "internalType": "address[]",
          "name": "loanTokens",
          "type": "address[]"
        },
        {
          "internalType": "uint256[]",
          "name": "loanAmounts",
          "type": "uint256[]"
        },
        {
          "internalType": "uint256[]",
          "name": "modes",
          "type": "uint256[]"
        },
        {
          "internalType": "bytes",
          "name": "data",
          "type": "bytes"
        },
        {
          "internalType": "address",
          "name": "weth",
          "type": "address"
        }
      ],
      "name": "flashLoanFromDSProxy",
      "outputs": [],
      "stateMutability": "payable",
      "type": "function"
    },
    {
      "inputs": [],
      "name": "owner",
      "outputs": [
        {
          "internalType": "address",
          "name": "",
          "type": "address"
        }
      ],
      "stateMutability": "view",
      "type": "function"
    },
    {
      "inputs": [],
      "name": "renounceOwnership",
      "outputs": [],
      "stateMutability": "nonpayable",
      "type": "function"
    },
    {
      "inputs": [
        {
          "internalType": "address",
          "name": "_feeManager",
          "type": "address"
        }
      ],
      "name": "setFeeManager",
      "outputs": [],
      "stateMutability": "nonpayable",
      "type": "function"
    },
    {
      "inputs": [
        {
          "internalType": "address",
          "name": "newOwner",
          "type": "address"
        }
      ],
      "name": "transferOwnership",
      "outputs": [],
      "stateMutability": "nonpayable",
      "type": "function"
    }
  ],
  "transactionHash": "0xb14627f27bb79977092f3028a03784389c94baaea604cabbe253508f09cb3914",
  "args": [],
  "solcInputHash": "1afbc5f1df82a047d8af4b9229d96796",
  "bytecode": "0x60806040523480156200001157600080fd5b50600062000024620000c860201b60201c565b9050806000806101000a81548173ffffffffffffffffffffffffffffffffffffffff021916908373ffffffffffffffffffffffffffffffffffffffff1602179055508073ffffffffffffffffffffffffffffffffffffffff16600073ffffffffffffffffffffffffffffffffffffffff167f8be0079c531659141344cd1fd0a4f28419497f9722a3daafe3b4186f6b6457e060405160405180910390a350620000d0565b600033905090565b6144bd80620000e06000396000f3fe60806040526004361061008a5760003560e01c80638da5cb5b116100595780638da5cb5b14610123578063920f5c841461014e578063c297e4181461018b578063d0fb0203146101a7578063f2fde38b146101d25761008b565b806308a427971461008d578063472d35b9146100b8578063715018a6146100e15780638348d034146100f85761008b565b5b005b34801561009957600080fd5b506100a26101fb565b6040516100af91906140ce565b60405180910390f35b3480156100c457600080fd5b506100df60048036038101906100da91906134d3565b610200565b005b3480156100ed57600080fd5b506100f66102f3565b005b34801561010457600080fd5b5061010d610460565b60405161011a91906140ce565b60405180910390f35b34801561012f57600080fd5b50610138610465565b6040516101459190613c14565b60405180910390f35b34801561015a57600080fd5b5061017560048036038101906101709190613667565b61048e565b6040516101829190613f84565b60405180910390f35b6101a560048036038101906101a091906134fc565b61053a565b005b3480156101b357600080fd5b506101bc6107a5565b6040516101c99190613c14565b60405180910390f35b3480156101de57600080fd5b506101f960048036038101906101f491906134d3565b6107cb565b005b600281565b6102086109bd565b73ffffffffffffffffffffffffffffffffffffffff16610226610465565b73ffffffffffffffffffffffffffffffffffffffff16146102af576040517f08c379a00000000000000000000000000000000000000000000000000000000081526004018080602001828103825260208152602001807f4f776e61626c653a2063616c6c6572206973206e6f7420746865206f776e657281525060200191505060405180910390fd5b80600160006101000a81548173ffffffffffffffffffffffffffffffffffffffff021916908373ffffffffffffffffffffffffffffffffffffffff16021790555050565b6102fb6109bd565b73ffffffffffffffffffffffffffffffffffffffff16610319610465565b73ffffffffffffffffffffffffffffffffffffffff16146103a2576040517f08c379a00000000000000000000000000000000000000000000000000000000081526004018080602001828103825260208152602001807f4f776e61626c653a2063616c6c6572206973206e6f7420746865206f776e657281525060200191505060405180910390fd5b600073ffffffffffffffffffffffffffffffffffffffff1660008054906101000a900473ffffffffffffffffffffffffffffffffffffffff1673ffffffffffffffffffffffffffffffffffffffff167f8be0079c531659141344cd1fd0a4f28419497f9722a3daafe3b4186f6b6457e060405160405180910390a360008060006101000a81548173ffffffffffffffffffffffffffffffffffffffff021916908373ffffffffffffffffffffffffffffffffffffffff160217905550565b600181565b60008060009054906101000a900473ffffffffffffffffffffffffffffffffffffffff16905090565b60008083838101906104a091906137d1565b9050600160ff16816000015160ff1614156104c7576104c281602001516109c5565b610528565b600260ff16816000015160ff1614156104ec576104e78160200151610eaf565b610527565b6040517f08c379a000000000000000000000000000000000000000000000000000000000815260040161051e90613fbf565b60405180910390fd5b5b60019150509998505050505050505050565b60003411156105d0578073ffffffffffffffffffffffffffffffffffffffff1663d0e30db0346040518263ffffffff1660e01b81526004016000604051808303818588803b15801561058b57600080fd5b505af115801561059f573d6000803e3d6000fd5b50505050506105cf89348373ffffffffffffffffffffffffffffffffffffffff1661171e9092919063ffffffff16565b5b3073ffffffffffffffffffffffffffffffffffffffff166313af40358a6040518263ffffffff1660e01b81526004016106099190613c14565b600060405180830381600087803b15801561062357600080fd5b505af1158015610637573d6000803e3d6000fd5b5050505060005b88518110156106b55761069a8b8b8a848151811061065857fe5b60200260200101518c858151811061066c57fe5b602002602001015173ffffffffffffffffffffffffffffffffffffffff166117c0909392919063ffffffff16565b6106ae60018261188190919063ffffffff16565b905061063e565b508573ffffffffffffffffffffffffffffffffffffffff1663ab9c4b5d8a8787878e8860006040518863ffffffff1660e01b81526004016106fc9796959493929190613e84565b600060405180830381600087803b15801561071657600080fd5b505af115801561072a573d6000803e3d6000fd5b505050503073ffffffffffffffffffffffffffffffffffffffff166313af40358b6040518263ffffffff1660e01b81526004016107679190613c14565b600060405180830381600087803b15801561078157600080fd5b505af1158015610795573d6000803e3d6000fd5b5050505050505050505050505050565b600160009054906101000a900473ffffffffffffffffffffffffffffffffffffffff1681565b6107d36109bd565b73ffffffffffffffffffffffffffffffffffffffff166107f1610465565b73ffffffffffffffffffffffffffffffffffffffff161461087a576040517f08c379a00000000000000000000000000000000000000000000000000000000081526004018080602001828103825260208152602001807f4f776e61626c653a2063616c6c6572206973206e6f7420746865206f776e657281525060200191505060405180910390fd5b600073ffffffffffffffffffffffffffffffffffffffff168173ffffffffffffffffffffffffffffffffffffffff161415610900576040517f08c379a00000000000000000000000000000000000000000000000000000000081526004018080602001828103825260268152602001806143bb6026913960400191505060405180910390fd5b8073ffffffffffffffffffffffffffffffffffffffff1660008054906101000a900473ffffffffffffffffffffffffffffffffffffffff1673ffffffffffffffffffffffffffffffffffffffff167f8be0079c531659141344cd1fd0a4f28419497f9722a3daafe3b4186f6b6457e060405160405180910390a3806000806101000a81548173ffffffffffffffffffffffffffffffffffffffff021916908373ffffffffffffffffffffffffffffffffffffffff16021790555050565b600033905090565b6000818060200190518101906109db9190613812565b905060008060006109eb84611909565b925092509250836101800151831015610a39576040517f08c379a0000000000000000000000000000000000000000000000000000000008152600401610a3090613fdf565b60405180910390fd5b836101a00151821015610a81576040517f08c379a0000000000000000000000000000000000000000000000000000000008152600401610a7890613fdf565b60405180910390fd5b610ab68460200151600160009054906101000a900473ffffffffffffffffffffffffffffffffffffffff168660400151611b23565b600073ffffffffffffffffffffffffffffffffffffffff16600160009054906101000a900473ffffffffffffffffffffffffffffffffffffffff1673ffffffffffffffffffffffffffffffffffffffff1614610baa57600160009054906101000a900473ffffffffffffffffffffffffffffffffffffffff1673ffffffffffffffffffffffffffffffffffffffff1663651b8cb68560000151866020015187604001516040518463ffffffff1660e01b8152600401610b7793929190613d60565b600060405180830381600087803b158015610b9157600080fd5b505af1158015610ba5573d6000803e3d6000fd5b505050505b600073ffffffffffffffffffffffffffffffffffffffff16846102c0015173ffffffffffffffffffffffffffffffffffffffff1614610d58576000846102c0015173ffffffffffffffffffffffffffffffffffffffff16856060015173ffffffffffffffffffffffffffffffffffffffff161415610c2a57839050600093505b846102c0015173ffffffffffffffffffffffffffffffffffffffff16856080015173ffffffffffffffffffffffffffffffffffffffff161415610c6f57829050600092505b6000811115610d5657846102c0015173ffffffffffffffffffffffffffffffffffffffff16632e1a7d4d826040518263ffffffff1660e01b8152600401610cb69190613fff565b600060405180830381600087803b158015610cd057600080fd5b505af1158015610ce4573d6000803e3d6000fd5b50505050846000015173ffffffffffffffffffffffffffffffffffffffff1681604051610d1090613bff565b60006040518083038185875af1925050503d8060008114610d4d576040519150601f19603f3d011682016040523d82523d6000602084013e610d52565b606091505b5050505b505b6000831180610d6c57506000846101800151115b15610da557610da4846000015184866060015173ffffffffffffffffffffffffffffffffffffffff1661171e9092919063ffffffff16565b5b6000821180610db957506000846101a00151115b15610df257610df1846000015183866080015173ffffffffffffffffffffffffffffffffffffffff1661171e9092919063ffffffff16565b5b6000811115610e2f57610e2e8460000151828660a0015173ffffffffffffffffffffffffffffffffffffffff1661171e9092919063ffffffff16565b5b610e5a8460200151856103800151610e5560028860400151611c1490919063ffffffff16565b611b23565b7fac0cbef1a8ac246924422e9ff961ee097263dc73ccb13c5780e2d048c6e228c584600001518561028001518660c001518760400151604051610ea09493929190613f3f565b60405180910390a15050505050565b600081806020019051810190610ec59190613790565b9050610f028160e0015151826101800151518360200151846040015185606001518660a00151876101400151886101000151896101a00151611c9a565b6000806000808460a0015111156110b057836080015173ffffffffffffffffffffffffffffffffffffffff16846020015173ffffffffffffffffffffffffffffffffffffffff161415610f5b578360a0015192506110ac565b83610100015115610fe3578360c001519250836060015173ffffffffffffffffffffffffffffffffffffffff16638d7ef9bb30856040518363ffffffff1660e01b8152600401610fac929190613c58565b600060405180830381600087803b158015610fc657600080fd5b505af1158015610fda573d6000803e3d6000fd5b505050506110ab565b836040015173ffffffffffffffffffffffffffffffffffffffff166338ed17398560a0015160008760e00151308961038001516040518663ffffffff1660e01b815260040161103695949392919061401a565b600060405180830381600087803b15801561105057600080fd5b505af1158015611064573d6000803e3d6000fd5b505050506040513d6000823e3d601f19601f8201168201806040525081019061108d919061374f565b60018560e001515103815181106110a057fe5b602002602001015192505b5b8290505b6000846101400151111561125e5783610120015173ffffffffffffffffffffffffffffffffffffffff16846020015173ffffffffffffffffffffffffffffffffffffffff16141561110857836101400151915061125d565b836101a0015115611191578361016001519150836060015173ffffffffffffffffffffffffffffffffffffffff16638d7ef9bb30846040518363ffffffff1660e01b815260040161115a929190613c58565b600060405180830381600087803b15801561117457600080fd5b505af1158015611188573d6000803e3d6000fd5b5050505061125c565b836040015173ffffffffffffffffffffffffffffffffffffffff166338ed17398561014001516000876101800151308961038001516040518663ffffffff1660e01b81526004016111e695949392919061401a565b600060405180830381600087803b15801561120057600080fd5b505af1158015611214573d6000803e3d6000fd5b505050506040513d6000823e3d601f19601f8201168201806040525081019061123d919061374f565b600185610180015151038151811061125157fe5b602002602001015191505b5b5b600061127883866101e0015161188190919063ffffffff16565b11156114de576112a8846080015185604001516112a386886101c0015161188190919063ffffffff16565b611b23565b6112d384610120015185604001516112ce85886101e0015161188190919063ffffffff16565b611b23565b6000806000866040015173ffffffffffffffffffffffffffffffffffffffff1663e8e33700886080015189610120015161131b8a8c6101c0015161188190919063ffffffff16565b6113338a8d6101e0015161188190919063ffffffff16565b600080308f61038001516040518963ffffffff1660e01b8152600401611360989796959493929190613e06565b606060405180830381600087803b15801561137a57600080fd5b505af115801561138e573d6000803e3d6000fd5b505050506040513d601f19601f820116820180604052508101906113b291906138b8565b92509250925080935060006113e7846113d9898b6101c0015161188190919063ffffffff16565b611d5490919063ffffffff16565b111561144a57611449876000015161141f856114118a8c6101c0015161188190919063ffffffff16565b611d5490919063ffffffff16565b896080015173ffffffffffffffffffffffffffffffffffffffff1661171e9092919063ffffffff16565b5b600061147683611468888b6101e0015161188190919063ffffffff16565b611d5490919063ffffffff16565b11156114da576114d987600001516114ae846114a0898c6101e0015161188190919063ffffffff16565b611d5490919063ffffffff16565b89610120015173ffffffffffffffffffffffffffffffffffffffff1661171e9092919063ffffffff16565b5b5050505b836102000151811015611526576040517f08c379a000000000000000000000000000000000000000000000000000000000815260040161151d90613f9f565b60405180910390fd5b60006115408286610220015161188190919063ffffffff16565b9050611587856102400151866102600151876102800151886102a00151896102c001518a6102e001518b61030001518c6103200151898e61034001518f6103600151611dd7565b6115bd8560200151600160009054906101000a900473ffffffffffffffffffffffffffffffffffffffff16876103400151611b23565b600073ffffffffffffffffffffffffffffffffffffffff16600160009054906101000a900473ffffffffffffffffffffffffffffffffffffffff1673ffffffffffffffffffffffffffffffffffffffff16146116b257600160009054906101000a900473ffffffffffffffffffffffffffffffffffffffff1673ffffffffffffffffffffffffffffffffffffffff1663651b8cb6866000015187602001518861034001516040518463ffffffff1660e01b815260040161167f93929190613d60565b600060405180830381600087803b15801561169957600080fd5b505af11580156116ad573d6000803e3d6000fd5b505050505b6116cb8560200151866103a00151876103400151611b23565b7f992628f13bc2e3ecd138e194a77dfb9fb7a85e5cb3823b6d5f1030f3dc5fc2b485600001518661032001518388610340015160405161170e9493929190613f3f565b60405180910390a1505050505050565b6117bb8363a9059cbb60e01b8484604051602401808373ffffffffffffffffffffffffffffffffffffffff16815260200182815260200192505050604051602081830303815290604052907bffffffffffffffffffffffffffffffffffffffffffffffffffffffff19166020820180517bffffffffffffffffffffffffffffffffffffffffffffffffffffffff8381831617835250505050611ef7565b505050565b61187b846323b872dd60e01b858585604051602401808473ffffffffffffffffffffffffffffffffffffffff1681526020018373ffffffffffffffffffffffffffffffffffffffff1681526020018281526020019350505050604051602081830303815290604052907bffffffffffffffffffffffffffffffffffffffffffffffffffffffff19166020820180517bffffffffffffffffffffffffffffffffffffffffffffffffffffffff8381831617835250505050611ef7565b50505050565b6000808284019050838110156118ff576040517f08c379a000000000000000000000000000000000000000000000000000000000815260040180806020018281038252601b8152602001807f536166654d6174683a206164646974696f6e206f766572666c6f77000000000081525060200191505060405180910390fd5b8091505092915050565b600080600083604001515061194f846101e001518561020001518661022001518761024001518861026001518961028001518a60c001518b604001518c60200151611fe6565b600080611ab5604051806102200160405280886102a0015173ffffffffffffffffffffffffffffffffffffffff168152602001886060015173ffffffffffffffffffffffffffffffffffffffff168152602001886080015173ffffffffffffffffffffffffffffffffffffffff1681526020018860a0015173ffffffffffffffffffffffffffffffffffffffff1681526020018860e0015181526020018861018001518152602001886101a001518152602001886101c0015181526020018861010001518152602001886101200151815260200188610140015181526020018861016001518152602001886102e0015173ffffffffffffffffffffffffffffffffffffffff16815260200188610300015173ffffffffffffffffffffffffffffffffffffffff16815260200188610320015173ffffffffffffffffffffffffffffffffffffffff1681526020018861034001518152602001886103600151815250612100565b9150915060008073ffffffffffffffffffffffffffffffffffffffff168760a0015173ffffffffffffffffffffffffffffffffffffffff1614611b1057611b0d8760e001518860c00151611d5490919063ffffffff16565b90505b8282829550955095505050509193909250565b808373ffffffffffffffffffffffffffffffffffffffff1663dd62ed3e30856040518363ffffffff1660e01b8152600401611b5f929190613c2f565b60206040518083038186803b158015611b7757600080fd5b505afa158015611b8b573d6000803e3d6000fd5b505050506040513d601f19601f82011682018060405250810190611baf9190613853565b1015611c0f57611be18260008573ffffffffffffffffffffffffffffffffffffffff166126519092919063ffffffff16565b611c0e826000198573ffffffffffffffffffffffffffffffffffffffff166126519092919063ffffffff16565b5b505050565b600080831415611c275760009050611c94565b6000828402905082848281611c3857fe5b0414611c8f576040517f08c379a00000000000000000000000000000000000000000000000000000000081526004018080602001828103825260218152602001806144076021913960400191505060405180910390fd5b809150505b92915050565b60008060008b1115611cdd578315611cc657611cbf868261188190919063ffffffff16565b9050611cdc565b611cd9868361188190919063ffffffff16565b91505b5b60008a1115611d1d578215611d0657611cff858261188190919063ffffffff16565b9050611d1c565b611d19858361188190919063ffffffff16565b91505b5b6000821115611d3257611d31898984611b23565b5b6000811115611d4757611d46898883611b23565b5b5050505050505050505050565b600082821115611dcc576040517f08c379a000000000000000000000000000000000000000000000000000000000815260040180806020018281038252601e8152602001807f536166654d6174683a207375627472616374696f6e206f766572666c6f77000081525060200191505060405180910390fd5b818303905092915050565b611de28b8b85611b23565b8973ffffffffffffffffffffffffffffffffffffffff16631cff79cd8a8a8a8a8a8a8a8a8a604051602401611e1e989796959493929190613c81565b6040516020818303038152906040527fcbd4be3f000000000000000000000000000000000000000000000000000000007bffffffffffffffffffffffffffffffffffffffffffffffffffffffff19166020820180517bffffffffffffffffffffffffffffffffffffffffffffffffffffffff83818316178352505050506040518363ffffffff1660e01b8152600401611eb8929190613f0f565b600060405180830381600087803b158015611ed257600080fd5b505af1158015611ee6573d6000803e3d6000fd5b505050505050505050505050505050565b6000611f59826040518060400160405280602081526020017f5361666545524332303a206c6f772d6c6576656c2063616c6c206661696c65648152508573ffffffffffffffffffffffffffffffffffffffff166128169092919063ffffffff16565b9050600081511115611fe157808060200190516020811015611f7a57600080fd5b8101908080519060200190929190505050611fe0576040517f08c379a000000000000000000000000000000000000000000000000000000000815260040180806020018281038252602a815260200180614428602a913960400191505060405180910390fd5b5b505050565b611ff1818a84611b23565b8873ffffffffffffffffffffffffffffffffffffffff16631cff79cd8989898989898960405160240161202996959493929190613cff565b6040516020818303038152906040527fa6add011000000000000000000000000000000000000000000000000000000007bffffffffffffffffffffffffffffffffffffffffffffffffffffffff19166020820180517bffffffffffffffffffffffffffffffffffffffffffffffffffffffff83818316178352505050506040518363ffffffff1660e01b81526004016120c3929190613f0f565b600060405180830381600087803b1580156120dd57600080fd5b505af11580156120f1573d6000803e3d6000fd5b50505050505050505050505050565b600080600080600080600073ffffffffffffffffffffffffffffffffffffffff16876040015173ffffffffffffffffffffffffffffffffffffffff161461241357612158876060015188600001518960800151611b23565b866000015173ffffffffffffffffffffffffffffffffffffffff1663baa2abde886020015189604001518a60800151600080308e60e001516040518863ffffffff1660e01b81526004016121b29796959493929190613d97565b6040805180830381600087803b1580156121cb57600080fd5b505af11580156121df573d6000803e3d6000fd5b505050506040513d601f19601f82011682018060405250810190612203919061387c565b80945081955050506000876101200151111561240e57600087610160015151141561223557866101200151905061240d565b866040015173ffffffffffffffffffffffffffffffffffffffff1687610180015173ffffffffffffffffffffffffffffffffffffffff16141561230f5761228b8760400151886101a00151896101e00151611b23565b866101c0015173ffffffffffffffffffffffffffffffffffffffff16639599127630896101e001516040518363ffffffff1660e01b81526004016122d0929190613c58565b600060405180830381600087803b1580156122ea57600080fd5b505af11580156122fe573d6000803e3d6000fd5b50505050866101e00151905061240c565b61233587604001518860000151612330600287611c1490919063ffffffff16565b611b23565b866000015173ffffffffffffffffffffffffffffffffffffffff16638803dbee8861012001516123728a60c0015187611d5490919063ffffffff16565b8a6101600151308c60e001516040518663ffffffff1660e01b815260040161239e959493929190614074565b600060405180830381600087803b1580156123b857600080fd5b505af11580156123cc573d6000803e3d6000fd5b505050506040513d6000823e3d601f19601f820116820180604052508101906123f5919061374f565b60008151811061240157fe5b602002602001015190505b5b5b61241b565b866080015193505b6000876101000151111561261e57600087610140015151141561244557866101000151915061261d565b866020015173ffffffffffffffffffffffffffffffffffffffff1687610180015173ffffffffffffffffffffffffffffffffffffffff16141561251f5761249b8760200151886101a00151896101e00151611b23565b866101c0015173ffffffffffffffffffffffffffffffffffffffff16639599127630896101e001516040518363ffffffff1660e01b81526004016124e0929190613c58565b600060405180830381600087803b1580156124fa57600080fd5b505af115801561250e573d6000803e3d6000fd5b50505050866101e00151915061261c565b61254587602001518860000151612540600288611c1490919063ffffffff16565b611b23565b866000015173ffffffffffffffffffffffffffffffffffffffff16638803dbee8861010001516125828a60a0015188611d5490919063ffffffff16565b8a6101400151308c60e001516040518663ffffffff1660e01b81526004016125ae959493929190614074565b600060405180830381600087803b1580156125c857600080fd5b505af11580156125dc573d6000803e3d6000fd5b505050506040513d6000823e3d601f19601f82011682018060405250810190612605919061374f565b60008151811061261157fe5b602002602001015191505b5b5b6126318285611d5490919063ffffffff16565b6126448285611d5490919063ffffffff16565b9550955050505050915091565b600081148061271f575060008373ffffffffffffffffffffffffffffffffffffffff1663dd62ed3e30856040518363ffffffff1660e01b8152600401808373ffffffffffffffffffffffffffffffffffffffff1681526020018273ffffffffffffffffffffffffffffffffffffffff1681526020019250505060206040518083038186803b1580156126e257600080fd5b505afa1580156126f6573d6000803e3d6000fd5b505050506040513d602081101561270c57600080fd5b8101908080519060200190929190505050145b612774576040517f08c379a00000000000000000000000000000000000000000000000000000000081526004018080602001828103825260368152602001806144526036913960400191505060405180910390fd5b6128118363095ea7b360e01b8484604051602401808373ffffffffffffffffffffffffffffffffffffffff16815260200182815260200192505050604051602081830303815290604052907bffffffffffffffffffffffffffffffffffffffffffffffffffffffff19166020820180517bffffffffffffffffffffffffffffffffffffffffffffffffffffffff8381831617835250505050611ef7565b505050565b6060612825848460008561282e565b90509392505050565b606082471015612889576040517f08c379a00000000000000000000000000000000000000000000000000000000081526004018080602001828103825260268152602001806143e16026913960400191505060405180910390fd5b612892856129d6565b612904576040517f08c379a000000000000000000000000000000000000000000000000000000000815260040180806020018281038252601d8152602001807f416464726573733a2063616c6c20746f206e6f6e2d636f6e747261637400000081525060200191505060405180910390fd5b6000808673ffffffffffffffffffffffffffffffffffffffff1685876040518082805190602001908083835b602083106129535780518252602082019150602081019050602083039250612930565b6001836020036101000a03801982511681845116808217855250505050505090500191505060006040518083038185875af1925050503d80600081146129b5576040519150601f19603f3d011682016040523d82523d6000602084013e6129ba565b606091505b50915091506129ca8282866129e9565b92505050949350505050565b600080823b905060008111915050919050565b606083156129f957829050612aae565b600083511115612a0c5782518084602001fd5b816040517f08c379a00000000000000000000000000000000000000000000000000000000081526004018080602001828103825283818151815260200191508051906020019080838360005b83811015612a73578082015181840152602081019050612a58565b50505050905090810190601f168015612aa05780820380516001836020036101000a031916815260200191505b509250505060405180910390fd5b9392505050565b6000612ac8612ac38461411a565b6140e9565b90508083825260208201905082856020860282011115612ae757600080fd5b60005b85811015612b175781612afd8882612ca3565b845260208401935060208301925050600181019050612aea565b5050509392505050565b6000612b34612b2f8461411a565b6140e9565b90508083825260208201905082856020860282011115612b5357600080fd5b60005b85811015612b835781612b698882612cb8565b845260208401935060208301925050600181019050612b56565b5050509392505050565b6000612ba0612b9b84614146565b6140e9565b90508083825260208201905082856020860282011115612bbf57600080fd5b60005b85811015612bef5781612bd58882613494565b845260208401935060208301925050600181019050612bc2565b5050509392505050565b6000612c0c612c0784614146565b6140e9565b90508083825260208201905082856020860282011115612c2b57600080fd5b60005b85811015612c5b5781612c4188826134a9565b845260208401935060208301925050600181019050612c2e565b5050509392505050565b6000612c78612c7384614172565b6140e9565b905082815260208101848484011115612c9057600080fd5b612c9b848285614309565b509392505050565b600081359050612cb28161435e565b92915050565b600081519050612cc78161435e565b92915050565b60008083601f840112612cdf57600080fd5b8235905067ffffffffffffffff811115612cf857600080fd5b602083019150836020820283011115612d1057600080fd5b9250929050565b600082601f830112612d2857600080fd5b8135612d38848260208601612ab5565b91505092915050565b600082601f830112612d5257600080fd5b8151612d62848260208601612b21565b91505092915050565b60008083601f840112612d7d57600080fd5b8235905067ffffffffffffffff811115612d9657600080fd5b602083019150836020820283011115612dae57600080fd5b9250929050565b600082601f830112612dc657600080fd5b8135612dd6848260208601612b8d565b91505092915050565b600082601f830112612df057600080fd5b8151612e00848260208601612bf9565b91505092915050565b600081519050612e1881614375565b92915050565b60008083601f840112612e3057600080fd5b8235905067ffffffffffffffff811115612e4957600080fd5b602083019150836001820283011115612e6157600080fd5b9250929050565b600082601f830112612e7957600080fd5b8135612e89848260208601612c65565b91505092915050565b60006103c08284031215612ea557600080fd5b612eb06103c06140e9565b90506000612ec084828501612cb8565b6000830152506020612ed484828501612cb8565b6020830152506040612ee884828501612cb8565b6040830152506060612efc84828501612cb8565b6060830152506080612f1084828501612cb8565b60808301525060a0612f24848285016134a9565b60a08301525060c0612f38848285016134a9565b60c08301525060e082015167ffffffffffffffff811115612f5857600080fd5b612f6484828501612d41565b60e083015250610100612f7984828501612e09565b61010083015250610120612f8f84828501612cb8565b61012083015250610140612fa5848285016134a9565b61014083015250610160612fbb848285016134a9565b6101608301525061018082015167ffffffffffffffff811115612fdd57600080fd5b612fe984828501612d41565b610180830152506101a0612fff84828501612e09565b6101a0830152506101c0613015848285016134a9565b6101c0830152506101e061302b848285016134a9565b6101e083015250610200613041848285016134a9565b61020083015250610220613057848285016134a9565b6102208301525061024061306d84828501612cb8565b6102408301525061026061308384828501612cb8565b6102608301525061028061309984828501612cb8565b610280830152506102a06130af84828501612cb8565b6102a0830152506102c06130c584828501612cb8565b6102c0830152506102e06130db84828501612cb8565b6102e0830152506103006130f184828501612cb8565b61030083015250610320613107848285016134a9565b6103208301525061034061311d848285016134a9565b6103408301525061036061313384828501612e09565b61036083015250610380613149848285016134a9565b610380830152506103a061315f84828501612cb8565b6103a08301525092915050565b60006040828403121561317e57600080fd5b61318860406140e9565b90506000613198848285016134be565b600083015250602082013567ffffffffffffffff8111156131b857600080fd5b6131c484828501612e68565b60208301525092915050565b60006103a082840312156131e357600080fd5b6131ee6103a06140e9565b905060006131fe84828501612cb8565b600083015250602061321284828501612cb8565b6020830152506040613226848285016134a9565b604083015250606061323a84828501612cb8565b606083015250608061324e84828501612cb8565b60808301525060a061326284828501612cb8565b60a08301525060c0613276848285016134a9565b60c08301525060e061328a848285016134a9565b60e08301525061010061329f848285016134a9565b610100830152506101206132b5848285016134a9565b6101208301525061014082015167ffffffffffffffff8111156132d757600080fd5b6132e384828501612d41565b6101408301525061016082015167ffffffffffffffff81111561330557600080fd5b61331184828501612d41565b61016083015250610180613327848285016134a9565b610180830152506101a061333d848285016134a9565b6101a0830152506101c0613353848285016134a9565b6101c0830152506101e061336984828501612cb8565b6101e08301525061020061337f84828501612cb8565b6102008301525061022061339584828501612cb8565b610220830152506102406133ab84828501612cb8565b610240830152506102606133c184828501612cb8565b610260830152506102806133d7848285016134a9565b610280830152506102a06133ed84828501612cb8565b6102a0830152506102c061340384828501612cb8565b6102c0830152506102e061341984828501612cb8565b6102e08301525061030061342f84828501612cb8565b6103008301525061032061344584828501612cb8565b6103208301525061034061345b848285016134a9565b61034083015250610360613471848285016134a9565b6103608301525061038061348784828501612cb8565b6103808301525092915050565b6000813590506134a38161438c565b92915050565b6000815190506134b88161438c565b92915050565b6000813590506134cd816143a3565b92915050565b6000602082840312156134e557600080fd5b60006134f384828501612ca3565b91505092915050565b6000806000806000806000806000806101408b8d03121561351c57600080fd5b600061352a8d828e01612ca3565b9a5050602061353b8d828e01612ca3565b99505060408b013567ffffffffffffffff81111561355857600080fd5b6135648d828e01612d17565b98505060608b013567ffffffffffffffff81111561358157600080fd5b61358d8d828e01612db5565b975050608061359e8d828e01612ca3565b96505060a08b013567ffffffffffffffff8111156135bb57600080fd5b6135c78d828e01612d17565b95505060c08b013567ffffffffffffffff8111156135e457600080fd5b6135f08d828e01612db5565b94505060e08b013567ffffffffffffffff81111561360d57600080fd5b6136198d828e01612db5565b9350506101008b013567ffffffffffffffff81111561363757600080fd5b6136438d828e01612e68565b9250506101206136558d828e01612ca3565b9150509295989b9194979a5092959850565b600080600080600080600080600060a08a8c03121561368557600080fd5b60008a013567ffffffffffffffff81111561369f57600080fd5b6136ab8c828d01612ccd565b995099505060208a013567ffffffffffffffff8111156136ca57600080fd5b6136d68c828d01612d6b565b975097505060408a013567ffffffffffffffff8111156136f557600080fd5b6137018c828d01612d6b565b955095505060606137148c828d01612ca3565b93505060808a013567ffffffffffffffff81111561373157600080fd5b61373d8c828d01612e1e565b92509250509295985092959850929598565b60006020828403121561376157600080fd5b600082015167ffffffffffffffff81111561377b57600080fd5b61378784828501612ddf565b91505092915050565b6000602082840312156137a257600080fd5b600082015167ffffffffffffffff8111156137bc57600080fd5b6137c884828501612e92565b91505092915050565b6000602082840312156137e357600080fd5b600082013567ffffffffffffffff8111156137fd57600080fd5b6138098482850161316c565b91505092915050565b60006020828403121561382457600080fd5b600082015167ffffffffffffffff81111561383e57600080fd5b61384a848285016131d0565b91505092915050565b60006020828403121561386557600080fd5b6000613873848285016134a9565b91505092915050565b6000806040838503121561388f57600080fd5b600061389d858286016134a9565b92505060206138ae858286016134a9565b9150509250929050565b6000806000606084860312156138cd57600080fd5b60006138db868287016134a9565b93505060206138ec868287016134a9565b92505060406138fd868287016134a9565b9150509250925092565b60006139138383613946565b60208301905092915050565b600061392b8383613bd2565b60208301905092915050565b613940816142af565b82525050565b61394f8161424c565b82525050565b61395e8161424c565b82525050565b600061396f826141c2565b61397981856141fd565b9350613984836141a2565b8060005b838110156139b557815161399c8882613907565b97506139a7836141e3565b925050600181019050613988565b5085935050505092915050565b60006139cd826141cd565b6139d7818561420e565b93506139e2836141b2565b8060005b83811015613a135781516139fa888261391f565b9750613a05836141f0565b9250506001810190506139e6565b5085935050505092915050565b613a298161425e565b82525050565b6000613a3a826141d8565b613a44818561421f565b9350613a54818560208601614318565b613a5d8161434d565b840191505092915050565b613a71816142c1565b82525050565b613a80816142d3565b82525050565b6000613a9360418361423b565b91507f4465756e6966693a20426f7567687420636f6c6c61746572616c206c6f77657260008301527f207468616e20657870656374656420636f6c6c61746572616c20746f2062757960208301527f2e000000000000000000000000000000000000000000000000000000000000006040830152606082019050919050565b6000613b1f601e8361423b565b91507f45617379205661756c743a20496e76616c6964206f7065726174696f6e2e00006000830152602082019050919050565b6000613b5f602d8361423b565b91507f4465756e6966693a2052656d61696e696e6720746f6b656e206c6f776572207460008301527f68616e2065787065637465642e000000000000000000000000000000000000006020830152604082019050919050565b6000613bc5600083614230565b9150600082019050919050565b613bdb81614298565b82525050565b613bea81614298565b82525050565b613bf9816142a2565b82525050565b6000613c0a82613bb8565b9150819050919050565b6000602082019050613c296000830184613955565b92915050565b6000604082019050613c446000830185613937565b613c516020830184613955565b9392505050565b6000604082019050613c6d6000830185613937565b613c7a6020830184613be1565b9392505050565b600061010082019050613c97600083018b613955565b613ca4602083018a613955565b613cb16040830189613955565b613cbe6060830188613955565b613ccb6080830187613be1565b613cd860a0830186613be1565b613ce560c0830185613be1565b613cf260e0830184613a20565b9998505050505050505050565b600060c082019050613d146000830189613955565b613d216020830188613955565b613d2e6040830187613955565b613d3b6060830186613be1565b613d486080830185613be1565b613d5560a0830184613be1565b979650505050505050565b6000606082019050613d756000830186613955565b613d826020830185613955565b613d8f6040830184613be1565b949350505050565b600060e082019050613dac600083018a613955565b613db96020830189613955565b613dc66040830188613be1565b613dd36060830187613a77565b613de06080830186613a77565b613ded60a0830185613937565b613dfa60c0830184613be1565b98975050505050505050565b600061010082019050613e1c600083018b613955565b613e29602083018a613955565b613e366040830189613be1565b613e436060830188613be1565b613e506080830187613a77565b613e5d60a0830186613a77565b613e6a60c0830185613937565b613e7760e0830184613be1565b9998505050505050505050565b600060e082019050613e99600083018a613955565b8181036020830152613eab8189613964565b90508181036040830152613ebf81886139c2565b90508181036060830152613ed381876139c2565b9050613ee26080830186613955565b81810360a0830152613ef48185613a2f565b9050613f0360c0830184613a68565b98975050505050505050565b6000604082019050613f246000830185613955565b8181036020830152613f368184613a2f565b90509392505050565b6000608082019050613f546000830187613955565b613f616020830186613be1565b613f6e6040830185613be1565b613f7b6060830184613be1565b95945050505050565b6000602082019050613f996000830184613a20565b92915050565b60006020820190508181036000830152613fb881613a86565b9050919050565b60006020820190508181036000830152613fd881613b12565b9050919050565b60006020820190508181036000830152613ff881613b52565b9050919050565b60006020820190506140146000830184613be1565b92915050565b600060a08201905061402f6000830188613be1565b61403c6020830187613a77565b818103604083015261404e8186613964565b905061405d6060830185613937565b61406a6080830184613be1565b9695505050505050565b600060a0820190506140896000830188613be1565b6140966020830187613be1565b81810360408301526140a88186613964565b90506140b76060830185613937565b6140c46080830184613be1565b9695505050505050565b60006020820190506140e36000830184613bf0565b92915050565b6000604051905081810181811067ffffffffffffffff821117156141105761410f61434b565b5b8060405250919050565b600067ffffffffffffffff8211156141355761413461434b565b5b602082029050602081019050919050565b600067ffffffffffffffff8211156141615761416061434b565b5b602082029050602081019050919050565b600067ffffffffffffffff82111561418d5761418c61434b565b5b601f19601f8301169050602081019050919050565b6000819050602082019050919050565b6000819050602082019050919050565b600081519050919050565b600081519050919050565b600081519050919050565b6000602082019050919050565b6000602082019050919050565b600082825260208201905092915050565b600082825260208201905092915050565b600082825260208201905092915050565b600081905092915050565b600082825260208201905092915050565b600061425782614278565b9050919050565b60008115159050919050565b600061ffff82169050919050565b600073ffffffffffffffffffffffffffffffffffffffff82169050919050565b6000819050919050565b600060ff82169050919050565b60006142ba826142e5565b9050919050565b60006142cc8261426a565b9050919050565b60006142de82614298565b9050919050565b60006142f0826142f7565b9050919050565b600061430282614278565b9050919050565b82818337600083830152505050565b60005b8381101561433657808201518184015260208101905061431b565b83811115614345576000848401525b50505050565bfe5b6000601f19601f8301169050919050565b6143678161424c565b811461437257600080fd5b50565b61437e8161425e565b811461438957600080fd5b50565b61439581614298565b81146143a057600080fd5b50565b6143ac816142a2565b81146143b757600080fd5b5056fe4f776e61626c653a206e6577206f776e657220697320746865207a65726f2061646472657373416464726573733a20696e73756666696369656e742062616c616e636520666f722063616c6c536166654d6174683a206d756c7469706c69636174696f6e206f766572666c6f775361666545524332303a204552433230206f7065726174696f6e20646964206e6f7420737563636565645361666545524332303a20617070726f76652066726f6d206e6f6e2d7a65726f20746f206e6f6e2d7a65726f20616c6c6f77616e6365a264697066735822122042a43d6cf152d128be0e1771633f1c3a6b2000332cc69724cbb697955b617b1864736f6c63430007060033",
  "devdoc": {
    "kind": "dev",
    "methods": {
      "owner()": {
        "details": "Returns the address of the current owner."
      },
      "renounceOwnership()": {
        "details": "Leaves the contract without owner. It will not be possible to call `onlyOwner` functions anymore. Can only be called by the current owner. NOTE: Renouncing ownership will leave the contract without an owner, thereby removing any functionality that is only available to the owner."
      },
      "transferOwnership(address)": {
        "details": "Transfers ownership of the contract to a new account (`newOwner`). Can only be called by the current owner."
      }
    },
    "version": 1
  },
  "userdoc": {
    "kind": "user",
    "methods": {
      "executeOperation(address[],uint256[],uint256[],address,bytes)": {
        "notice": "This function is called after your contract has received the flash loan amount"
      },
      "flashLoanFromDSProxy(address,address,address[],uint256[],address,address[],uint256[],uint256[],bytes,address)": {
        "notice": "Executed as DSProxy."
      }
    },
    "version": 1
  },
  "storageLayout": {
    "storage": [
      {
        "astId": 7,
        "contract": "contracts/Deunifi.sol:Deunifi",
        "label": "_owner",
        "offset": 0,
        "slot": "0",
        "type": "t_address"
      },
      {
        "astId": 2146,
        "contract": "contracts/Deunifi.sol:Deunifi",
        "label": "feeManager",
        "offset": 0,
        "slot": "1",
        "type": "t_address"
      }
    ],
    "types": {
      "t_address": {
        "encoding": "inplace",
        "label": "address",
        "numberOfBytes": "20"
      }
    }
  }
}