{
  "address": "0x9d4454B023096f34B160D6B654540c56A1F81688",
  "abi": [
    {
      "anonymous": false,
      "inputs": [
        {
          "indexed": false,
          "internalType": "address",
          "name": "sender",
          "type": "address"
        },
        {
          "indexed": false,
          "internalType": "uint256",
          "name": "cdp",
          "type": "uint256"
        },
        {
          "indexed": false,
          "internalType": "uint256",
          "name": "collateral",
          "type": "uint256"
        },
        {
          "indexed": false,
          "internalType": "uint256",
          "name": "debt",
          "type": "uint256"
        }
      ],
      "name": "LockAndDraw",
      "type": "event"
    },
    {
      "anonymous": false,
      "inputs": [
        {
          "indexed": true,
          "internalType": "address",
          "name": "previousOwner",
          "type": "address"
        },
        {
          "indexed": true,
          "internalType": "address",
          "name": "newOwner",
          "type": "address"
        }
      ],
      "name": "OwnershipTransferred",
      "type": "event"
    },
    {
      "anonymous": false,
      "inputs": [
        {
          "indexed": false,
          "internalType": "address",
          "name": "sender",
          "type": "address"
        },
        {
          "indexed": false,
          "internalType": "uint256",
          "name": "cdp",
          "type": "uint256"
        },
        {
          "indexed": false,
          "internalType": "uint256",
          "name": "collateral",
          "type": "uint256"
        },
        {
          "indexed": false,
          "internalType": "uint256",
          "name": "debt",
          "type": "uint256"
        }
      ],
      "name": "WipeAndFree",
      "type": "event"
    },
    {
      "stateMutability": "payable",
      "type": "fallback"
    },
    {
      "inputs": [],
      "name": "LOCK_AND_DRAW",
      "outputs": [
        {
          "internalType": "uint8",
          "name": "",
          "type": "uint8"
        }
      ],
      "stateMutability": "view",
      "type": "function"
    },
    {
      "inputs": [],
      "name": "WIPE_AND_FREE",
      "outputs": [
        {
          "internalType": "uint8",
          "name": "",
          "type": "uint8"
        }
      ],
      "stateMutability": "view",
      "type": "function"
    },
    {
      "inputs": [
        {
          "internalType": "address[]",
          "name": "assets",
          "type": "address[]"
        },
        {
          "internalType": "uint256[]",
          "name": "amounts",
          "type": "uint256[]"
        },
        {
          "internalType": "uint256[]",
          "name": "premiums",
          "type": "uint256[]"
        },
        {
          "internalType": "address",
          "name": "initiator",
          "type": "address"
        },
        {
          "internalType": "bytes",
          "name": "params",
          "type": "bytes"
        }
      ],
      "name": "executeOperation",
      "outputs": [
        {
          "internalType": "bool",
          "name": "",
          "type": "bool"
        }
      ],
      "stateMutability": "nonpayable",
      "type": "function"
    },
    {
      "inputs": [],
      "name": "feeManager",
      "outputs": [
        {
          "internalType": "address",
          "name": "",
          "type": "address"
        }
      ],
      "stateMutability": "view",
      "type": "function"
    },
    {
      "inputs": [
        {
          "internalType": "address",
          "name": "owner",
          "type": "address"
        },
        {
          "internalType": "address",
          "name": "target",
          "type": "address"
        },
        {
          "internalType": "address[]",
          "name": "ownerTokens",
          "type": "address[]"
        },
        {
          "internalType": "uint256[]",
          "name": "ownerAmounts",
          "type": "uint256[]"
        },
        {
          "internalType": "address",
          "name": "lendingPool",
          "type": "address"
        },
        {
          "internalType": "address[]",
          "name": "loanTokens",
          "type": "address[]"
        },
        {
          "internalType": "uint256[]",
          "name": "loanAmounts",
          "type": "uint256[]"
        },
        {
          "internalType": "uint256[]",
          "name": "modes",
          "type": "uint256[]"
        },
        {
          "internalType": "bytes",
          "name": "data",
          "type": "bytes"
        },
        {
          "internalType": "address",
          "name": "weth",
          "type": "address"
        },
        {
          "internalType": "bool",
          "name": "useAave",
          "type": "bool"
        }
      ],
      "name": "flashLoanFromDSProxy",
      "outputs": [],
      "stateMutability": "payable",
      "type": "function"
    },
    {
      "inputs": [
        {
          "internalType": "address",
          "name": "initiator",
          "type": "address"
        },
        {
          "internalType": "address",
          "name": "token",
          "type": "address"
        },
        {
          "internalType": "uint256",
          "name": "amount",
          "type": "uint256"
        },
        {
          "internalType": "uint256",
          "name": "fee",
          "type": "uint256"
        },
        {
          "internalType": "bytes",
          "name": "params",
          "type": "bytes"
        }
      ],
      "name": "onFlashLoan",
      "outputs": [
        {
          "internalType": "bytes32",
          "name": "",
          "type": "bytes32"
        }
      ],
      "stateMutability": "nonpayable",
      "type": "function"
    },
    {
      "inputs": [],
      "name": "owner",
      "outputs": [
        {
          "internalType": "address",
          "name": "",
          "type": "address"
        }
      ],
      "stateMutability": "view",
      "type": "function"
    },
    {
      "inputs": [],
      "name": "renounceOwnership",
      "outputs": [],
      "stateMutability": "nonpayable",
      "type": "function"
    },
    {
      "inputs": [
        {
          "internalType": "address",
          "name": "_feeManager",
          "type": "address"
        }
      ],
      "name": "setFeeManager",
      "outputs": [],
      "stateMutability": "nonpayable",
      "type": "function"
    },
    {
      "inputs": [
        {
          "internalType": "address",
          "name": "newOwner",
          "type": "address"
        }
      ],
      "name": "transferOwnership",
      "outputs": [],
      "stateMutability": "nonpayable",
      "type": "function"
    }
  ],
  "transactionHash": "0x3e4ee68cfc6b0191b50e7d681507a98c32e5a40cd3aaaf741483b54af5939cf0",
  "args": [],
  "solcInputHash": "a717c3f34280d4ab4bbaea83b8e26ae1",
  "bytecode": "0x60806040523480156200001157600080fd5b50600062000024620000c860201b60201c565b9050806000806101000a81548173ffffffffffffffffffffffffffffffffffffffff021916908373ffffffffffffffffffffffffffffffffffffffff1602179055508073ffffffffffffffffffffffffffffffffffffffff16600073ffffffffffffffffffffffffffffffffffffffff167f8be0079c531659141344cd1fd0a4f28419497f9722a3daafe3b4186f6b6457e060405160405180910390a350620000d0565b600033905090565b61482c80620000e06000396000f3fe6080604052600436106100955760003560e01c80638da5cb5b116100595780638da5cb5b1461016b578063920f5c8414610196578063aecfd7ae146101d3578063d0fb0203146101ef578063f2fde38b1461021a57610096565b806308a427971461009857806323e30c8b146100c3578063472d35b914610100578063715018a6146101295780638348d0341461014057610096565b5b005b3480156100a457600080fd5b506100ad610243565b6040516100ba919061440f565b60405180910390f35b3480156100cf57600080fd5b506100ea60048036038101906100e59190613868565b610248565b6040516100f79190614279565b60405180910390f35b34801561010c57600080fd5b50610127600480360381019061012291906136bf565b610310565b005b34801561013557600080fd5b5061013e610403565b005b34801561014c57600080fd5b50610155610570565b604051610162919061440f565b60405180910390f35b34801561017757600080fd5b50610180610575565b60405161018d9190613eee565b60405180910390f35b3480156101a257600080fd5b506101bd60048036038101906101b891906138fa565b61059e565b6040516101ca919061425e565b60405180910390f35b6101ed60048036038101906101e891906136e8565b61064a565b005b3480156101fb57600080fd5b5061020461097c565b6040516102119190613eee565b60405180910390f35b34801561022657600080fd5b50610241600480360381019061023c91906136bf565b6109a2565b005b600281565b600080838381019061025a9190613a8d565b9050600160ff16816000015160ff1614156102815761027c8160200151610b94565b6102e2565b600260ff16816000015160ff1614156102a6576102a1816020015161107e565b6102e1565b6040517f08c379a00000000000000000000000000000000000000000000000000000000081526004016102d890614320565b60405180910390fd5b5b7f439148f0bbc682ca079e46d6e2c2f0c1e3b820f1a291b069d8882abf8cf18dd99150509695505050505050565b6103186118ed565b73ffffffffffffffffffffffffffffffffffffffff16610336610575565b73ffffffffffffffffffffffffffffffffffffffff16146103bf576040517f08c379a00000000000000000000000000000000000000000000000000000000081526004018080602001828103825260208152602001807f4f776e61626c653a2063616c6c6572206973206e6f7420746865206f776e657281525060200191505060405180910390fd5b80600160006101000a81548173ffffffffffffffffffffffffffffffffffffffff021916908373ffffffffffffffffffffffffffffffffffffffff16021790555050565b61040b6118ed565b73ffffffffffffffffffffffffffffffffffffffff16610429610575565b73ffffffffffffffffffffffffffffffffffffffff16146104b2576040517f08c379a00000000000000000000000000000000000000000000000000000000081526004018080602001828103825260208152602001807f4f776e61626c653a2063616c6c6572206973206e6f7420746865206f776e657281525060200191505060405180910390fd5b600073ffffffffffffffffffffffffffffffffffffffff1660008054906101000a900473ffffffffffffffffffffffffffffffffffffffff1673ffffffffffffffffffffffffffffffffffffffff167f8be0079c531659141344cd1fd0a4f28419497f9722a3daafe3b4186f6b6457e060405160405180910390a360008060006101000a81548173ffffffffffffffffffffffffffffffffffffffff021916908373ffffffffffffffffffffffffffffffffffffffff160217905550565b600181565b60008060009054906101000a900473ffffffffffffffffffffffffffffffffffffffff16905090565b60008083838101906105b09190613a8d565b9050600160ff16816000015160ff1614156105d7576105d28160200151610b94565b610638565b600260ff16816000015160ff1614156105fc576105f7816020015161107e565b610637565b6040517f08c379a000000000000000000000000000000000000000000000000000000000815260040161062e90614320565b60405180910390fd5b5b60019150509998505050505050505050565b60003411156106e0578173ffffffffffffffffffffffffffffffffffffffff1663d0e30db0346040518263ffffffff1660e01b81526004016000604051808303818588803b15801561069b57600080fd5b505af11580156106af573d6000803e3d6000fd5b50505050506106df8a348473ffffffffffffffffffffffffffffffffffffffff166118f59092919063ffffffff16565b5b3073ffffffffffffffffffffffffffffffffffffffff166313af40358b6040518263ffffffff1660e01b81526004016107199190613eee565b600060405180830381600087803b15801561073357600080fd5b505af1158015610747573d6000803e3d6000fd5b5050505060005b89518110156107c5576107aa8c8c8b848151811061076857fe5b60200260200101518d858151811061077c57fe5b602002602001015173ffffffffffffffffffffffffffffffffffffffff16611997909392919063ffffffff16565b6107be600182611a5890919063ffffffff16565b905061074e565b508015610849578673ffffffffffffffffffffffffffffffffffffffff1663ab9c4b5d8b8888888f8960006040518863ffffffff1660e01b8152600401610812979695949392919061415e565b600060405180830381600087803b15801561082c57600080fd5b505af1158015610840573d6000803e3d6000fd5b50505050610904565b8673ffffffffffffffffffffffffffffffffffffffff16635cffe9de8b8860008151811061087357fe5b60200260200101518860008151811061088857fe5b6020026020010151876040518563ffffffff1660e01b81526004016108b09493929190614294565b602060405180830381600087803b1580156108ca57600080fd5b505af11580156108de573d6000803e3d6000fd5b505050506040513d601f19601f820116820180604052508101906109029190613a23565b505b3073ffffffffffffffffffffffffffffffffffffffff166313af40358c6040518263ffffffff1660e01b815260040161093d9190613eee565b600060405180830381600087803b15801561095757600080fd5b505af115801561096b573d6000803e3d6000fd5b505050505050505050505050505050565b600160009054906101000a900473ffffffffffffffffffffffffffffffffffffffff1681565b6109aa6118ed565b73ffffffffffffffffffffffffffffffffffffffff166109c8610575565b73ffffffffffffffffffffffffffffffffffffffff1614610a51576040517f08c379a00000000000000000000000000000000000000000000000000000000081526004018080602001828103825260208152602001807f4f776e61626c653a2063616c6c6572206973206e6f7420746865206f776e657281525060200191505060405180910390fd5b600073ffffffffffffffffffffffffffffffffffffffff168173ffffffffffffffffffffffffffffffffffffffff161415610ad7576040517f08c379a000000000000000000000000000000000000000000000000000000000815260040180806020018281038252602681526020018061472a6026913960400191505060405180910390fd5b8073ffffffffffffffffffffffffffffffffffffffff1660008054906101000a900473ffffffffffffffffffffffffffffffffffffffff1673ffffffffffffffffffffffffffffffffffffffff167f8be0079c531659141344cd1fd0a4f28419497f9722a3daafe3b4186f6b6457e060405160405180910390a3806000806101000a81548173ffffffffffffffffffffffffffffffffffffffff021916908373ffffffffffffffffffffffffffffffffffffffff16021790555050565b600081806020019051810190610baa9190613ace565b90506000806000610bba84611ae0565b925092509250836101800151831015610c08576040517f08c379a0000000000000000000000000000000000000000000000000000000008152600401610bff90614300565b60405180910390fd5b836101a00151821015610c50576040517f08c379a0000000000000000000000000000000000000000000000000000000008152600401610c4790614300565b60405180910390fd5b610c858460200151600160009054906101000a900473ffffffffffffffffffffffffffffffffffffffff168660400151611cfa565b600073ffffffffffffffffffffffffffffffffffffffff16600160009054906101000a900473ffffffffffffffffffffffffffffffffffffffff1673ffffffffffffffffffffffffffffffffffffffff1614610d7957600160009054906101000a900473ffffffffffffffffffffffffffffffffffffffff1673ffffffffffffffffffffffffffffffffffffffff1663651b8cb68560000151866020015187604001516040518463ffffffff1660e01b8152600401610d469392919061403a565b600060405180830381600087803b158015610d6057600080fd5b505af1158015610d74573d6000803e3d6000fd5b505050505b600073ffffffffffffffffffffffffffffffffffffffff16846102c0015173ffffffffffffffffffffffffffffffffffffffff1614610f27576000846102c0015173ffffffffffffffffffffffffffffffffffffffff16856060015173ffffffffffffffffffffffffffffffffffffffff161415610df957839050600093505b846102c0015173ffffffffffffffffffffffffffffffffffffffff16856080015173ffffffffffffffffffffffffffffffffffffffff161415610e3e57829050600092505b6000811115610f2557846102c0015173ffffffffffffffffffffffffffffffffffffffff16632e1a7d4d826040518263ffffffff1660e01b8152600401610e859190614340565b600060405180830381600087803b158015610e9f57600080fd5b505af1158015610eb3573d6000803e3d6000fd5b50505050846000015173ffffffffffffffffffffffffffffffffffffffff1681604051610edf90613ed9565b60006040518083038185875af1925050503d8060008114610f1c576040519150601f19603f3d011682016040523d82523d6000602084013e610f21565b606091505b5050505b505b6000831180610f3b57506000846101800151115b15610f7457610f73846000015184866060015173ffffffffffffffffffffffffffffffffffffffff166118f59092919063ffffffff16565b5b6000821180610f8857506000846101a00151115b15610fc157610fc0846000015183866080015173ffffffffffffffffffffffffffffffffffffffff166118f59092919063ffffffff16565b5b6000811115610ffe57610ffd8460000151828660a0015173ffffffffffffffffffffffffffffffffffffffff166118f59092919063ffffffff16565b5b611029846020015185610380015161102460028860400151611deb90919063ffffffff16565b611cfa565b7fac0cbef1a8ac246924422e9ff961ee097263dc73ccb13c5780e2d048c6e228c584600001518561028001518660c00151876040015160405161106f9493929190614219565b60405180910390a15050505050565b6000818060200190518101906110949190613a4c565b90506110d18160e0015151826101800151518360200151846040015185606001518660a00151876101400151886101000151896101a00151611e71565b6000806000808460a00151111561127f57836080015173ffffffffffffffffffffffffffffffffffffffff16846020015173ffffffffffffffffffffffffffffffffffffffff16141561112a578360a00151925061127b565b836101000151156111b2578360c001519250836060015173ffffffffffffffffffffffffffffffffffffffff16638d7ef9bb30856040518363ffffffff1660e01b815260040161117b929190613f32565b600060405180830381600087803b15801561119557600080fd5b505af11580156111a9573d6000803e3d6000fd5b5050505061127a565b836040015173ffffffffffffffffffffffffffffffffffffffff166338ed17398560a0015160008760e00151308961038001516040518663ffffffff1660e01b815260040161120595949392919061435b565b600060405180830381600087803b15801561121f57600080fd5b505af1158015611233573d6000803e3d6000fd5b505050506040513d6000823e3d601f19601f8201168201806040525081019061125c91906139e2565b60018560e0015151038151811061126f57fe5b602002602001015192505b5b8290505b6000846101400151111561142d5783610120015173ffffffffffffffffffffffffffffffffffffffff16846020015173ffffffffffffffffffffffffffffffffffffffff1614156112d757836101400151915061142c565b836101a0015115611360578361016001519150836060015173ffffffffffffffffffffffffffffffffffffffff16638d7ef9bb30846040518363ffffffff1660e01b8152600401611329929190613f32565b600060405180830381600087803b15801561134357600080fd5b505af1158015611357573d6000803e3d6000fd5b5050505061142b565b836040015173ffffffffffffffffffffffffffffffffffffffff166338ed17398561014001516000876101800151308961038001516040518663ffffffff1660e01b81526004016113b595949392919061435b565b600060405180830381600087803b1580156113cf57600080fd5b505af11580156113e3573d6000803e3d6000fd5b505050506040513d6000823e3d601f19601f8201168201806040525081019061140c91906139e2565b600185610180015151038151811061142057fe5b602002602001015191505b5b5b600061144783866101e00151611a5890919063ffffffff16565b11156116ad576114778460800151856040015161147286886101c00151611a5890919063ffffffff16565b611cfa565b6114a2846101200151856040015161149d85886101e00151611a5890919063ffffffff16565b611cfa565b6000806000866040015173ffffffffffffffffffffffffffffffffffffffff1663e8e3370088608001518961012001516114ea8a8c6101c00151611a5890919063ffffffff16565b6115028a8d6101e00151611a5890919063ffffffff16565b600080308f61038001516040518963ffffffff1660e01b815260040161152f9897969594939291906140e0565b606060405180830381600087803b15801561154957600080fd5b505af115801561155d573d6000803e3d6000fd5b505050506040513d601f19601f820116820180604052508101906115819190613b74565b92509250925080935060006115b6846115a8898b6101c00151611a5890919063ffffffff16565b611f2b90919063ffffffff16565b11156116195761161887600001516115ee856115e08a8c6101c00151611a5890919063ffffffff16565b611f2b90919063ffffffff16565b896080015173ffffffffffffffffffffffffffffffffffffffff166118f59092919063ffffffff16565b5b600061164583611637888b6101e00151611a5890919063ffffffff16565b611f2b90919063ffffffff16565b11156116a9576116a8876000015161167d8461166f898c6101e00151611a5890919063ffffffff16565b611f2b90919063ffffffff16565b89610120015173ffffffffffffffffffffffffffffffffffffffff166118f59092919063ffffffff16565b5b5050505b8361020001518110156116f5576040517f08c379a00000000000000000000000000000000000000000000000000000000081526004016116ec906142e0565b60405180910390fd5b600061170f82866102200151611a5890919063ffffffff16565b9050611756856102400151866102600151876102800151886102a00151896102c001518a6102e001518b61030001518c6103200151898e61034001518f6103600151611fae565b61178c8560200151600160009054906101000a900473ffffffffffffffffffffffffffffffffffffffff16876103400151611cfa565b600073ffffffffffffffffffffffffffffffffffffffff16600160009054906101000a900473ffffffffffffffffffffffffffffffffffffffff1673ffffffffffffffffffffffffffffffffffffffff161461188157600160009054906101000a900473ffffffffffffffffffffffffffffffffffffffff1673ffffffffffffffffffffffffffffffffffffffff1663651b8cb6866000015187602001518861034001516040518463ffffffff1660e01b815260040161184e9392919061403a565b600060405180830381600087803b15801561186857600080fd5b505af115801561187c573d6000803e3d6000fd5b505050505b61189a8560200151866103a00151876103400151611cfa565b7f992628f13bc2e3ecd138e194a77dfb9fb7a85e5cb3823b6d5f1030f3dc5fc2b48560000151866103200151838861034001516040516118dd9493929190614219565b60405180910390a1505050505050565b600033905090565b6119928363a9059cbb60e01b8484604051602401808373ffffffffffffffffffffffffffffffffffffffff16815260200182815260200192505050604051602081830303815290604052907bffffffffffffffffffffffffffffffffffffffffffffffffffffffff19166020820180517bffffffffffffffffffffffffffffffffffffffffffffffffffffffff83818316178352505050506120ce565b505050565b611a52846323b872dd60e01b858585604051602401808473ffffffffffffffffffffffffffffffffffffffff1681526020018373ffffffffffffffffffffffffffffffffffffffff1681526020018281526020019350505050604051602081830303815290604052907bffffffffffffffffffffffffffffffffffffffffffffffffffffffff19166020820180517bffffffffffffffffffffffffffffffffffffffffffffffffffffffff83818316178352505050506120ce565b50505050565b600080828401905083811015611ad6576040517f08c379a000000000000000000000000000000000000000000000000000000000815260040180806020018281038252601b8152602001807f536166654d6174683a206164646974696f6e206f766572666c6f77000000000081525060200191505060405180910390fd5b8091505092915050565b6000806000836040015150611b26846101e001518561020001518661022001518761024001518861026001518961028001518a60c001518b604001518c602001516121bd565b600080611c8c604051806102200160405280886102a0015173ffffffffffffffffffffffffffffffffffffffff168152602001886060015173ffffffffffffffffffffffffffffffffffffffff168152602001886080015173ffffffffffffffffffffffffffffffffffffffff1681526020018860a0015173ffffffffffffffffffffffffffffffffffffffff1681526020018860e0015181526020018861018001518152602001886101a001518152602001886101c0015181526020018861010001518152602001886101200151815260200188610140015181526020018861016001518152602001886102e0015173ffffffffffffffffffffffffffffffffffffffff16815260200188610300015173ffffffffffffffffffffffffffffffffffffffff16815260200188610320015173ffffffffffffffffffffffffffffffffffffffff16815260200188610340015181526020018861036001518152506122d7565b9150915060008073ffffffffffffffffffffffffffffffffffffffff168760a0015173ffffffffffffffffffffffffffffffffffffffff1614611ce757611ce48760e001518860c00151611f2b90919063ffffffff16565b90505b8282829550955095505050509193909250565b808373ffffffffffffffffffffffffffffffffffffffff1663dd62ed3e30856040518363ffffffff1660e01b8152600401611d36929190613f09565b60206040518083038186803b158015611d4e57600080fd5b505afa158015611d62573d6000803e3d6000fd5b505050506040513d601f19601f82011682018060405250810190611d869190613b0f565b1015611de657611db88260008573ffffffffffffffffffffffffffffffffffffffff166128289092919063ffffffff16565b611de5826000198573ffffffffffffffffffffffffffffffffffffffff166128289092919063ffffffff16565b5b505050565b600080831415611dfe5760009050611e6b565b6000828402905082848281611e0f57fe5b0414611e66576040517f08c379a00000000000000000000000000000000000000000000000000000000081526004018080602001828103825260218152602001806147766021913960400191505060405180910390fd5b809150505b92915050565b60008060008b1115611eb4578315611e9d57611e968682611a5890919063ffffffff16565b9050611eb3565b611eb08683611a5890919063ffffffff16565b91505b5b60008a1115611ef4578215611edd57611ed68582611a5890919063ffffffff16565b9050611ef3565b611ef08583611a5890919063ffffffff16565b91505b5b6000821115611f0957611f08898984611cfa565b5b6000811115611f1e57611f1d898883611cfa565b5b5050505050505050505050565b600082821115611fa3576040517f08c379a000000000000000000000000000000000000000000000000000000000815260040180806020018281038252601e8152602001807f536166654d6174683a207375627472616374696f6e206f766572666c6f77000081525060200191505060405180910390fd5b818303905092915050565b611fb98b8b85611cfa565b8973ffffffffffffffffffffffffffffffffffffffff16631cff79cd8a8a8a8a8a8a8a8a8a604051602401611ff5989796959493929190613f5b565b6040516020818303038152906040527fcbd4be3f000000000000000000000000000000000000000000000000000000007bffffffffffffffffffffffffffffffffffffffffffffffffffffffff19166020820180517bffffffffffffffffffffffffffffffffffffffffffffffffffffffff83818316178352505050506040518363ffffffff1660e01b815260040161208f9291906141e9565b600060405180830381600087803b1580156120a957600080fd5b505af11580156120bd573d6000803e3d6000fd5b505050505050505050505050505050565b6000612130826040518060400160405280602081526020017f5361666545524332303a206c6f772d6c6576656c2063616c6c206661696c65648152508573ffffffffffffffffffffffffffffffffffffffff166129ed9092919063ffffffff16565b90506000815111156121b85780806020019051602081101561215157600080fd5b81019080805190602001909291905050506121b7576040517f08c379a000000000000000000000000000000000000000000000000000000000815260040180806020018281038252602a815260200180614797602a913960400191505060405180910390fd5b5b505050565b6121c8818a84611cfa565b8873ffffffffffffffffffffffffffffffffffffffff16631cff79cd8989898989898960405160240161220096959493929190613fd9565b6040516020818303038152906040527fa6add011000000000000000000000000000000000000000000000000000000007bffffffffffffffffffffffffffffffffffffffffffffffffffffffff19166020820180517bffffffffffffffffffffffffffffffffffffffffffffffffffffffff83818316178352505050506040518363ffffffff1660e01b815260040161229a9291906141e9565b600060405180830381600087803b1580156122b457600080fd5b505af11580156122c8573d6000803e3d6000fd5b50505050505050505050505050565b600080600080600080600073ffffffffffffffffffffffffffffffffffffffff16876040015173ffffffffffffffffffffffffffffffffffffffff16146125ea5761232f876060015188600001518960800151611cfa565b866000015173ffffffffffffffffffffffffffffffffffffffff1663baa2abde886020015189604001518a60800151600080308e60e001516040518863ffffffff1660e01b81526004016123899796959493929190614071565b6040805180830381600087803b1580156123a257600080fd5b505af11580156123b6573d6000803e3d6000fd5b505050506040513d601f19601f820116820180604052508101906123da9190613b38565b8094508195505050600087610120015111156125e557600087610160015151141561240c5786610120015190506125e4565b866040015173ffffffffffffffffffffffffffffffffffffffff1687610180015173ffffffffffffffffffffffffffffffffffffffff1614156124e6576124628760400151886101a00151896101e00151611cfa565b866101c0015173ffffffffffffffffffffffffffffffffffffffff16639599127630896101e001516040518363ffffffff1660e01b81526004016124a7929190613f32565b600060405180830381600087803b1580156124c157600080fd5b505af11580156124d5573d6000803e3d6000fd5b50505050866101e0015190506125e3565b61250c87604001518860000151612507600287611deb90919063ffffffff16565b611cfa565b866000015173ffffffffffffffffffffffffffffffffffffffff16638803dbee8861012001516125498a60c0015187611f2b90919063ffffffff16565b8a6101600151308c60e001516040518663ffffffff1660e01b81526004016125759594939291906143b5565b600060405180830381600087803b15801561258f57600080fd5b505af11580156125a3573d6000803e3d6000fd5b505050506040513d6000823e3d601f19601f820116820180604052508101906125cc91906139e2565b6000815181106125d857fe5b602002602001015190505b5b5b6125f2565b866080015193505b600087610100015111156127f557600087610140015151141561261c5786610100015191506127f4565b866020015173ffffffffffffffffffffffffffffffffffffffff1687610180015173ffffffffffffffffffffffffffffffffffffffff1614156126f6576126728760200151886101a00151896101e00151611cfa565b866101c0015173ffffffffffffffffffffffffffffffffffffffff16639599127630896101e001516040518363ffffffff1660e01b81526004016126b7929190613f32565b600060405180830381600087803b1580156126d157600080fd5b505af11580156126e5573d6000803e3d6000fd5b50505050866101e0015191506127f3565b61271c87602001518860000151612717600288611deb90919063ffffffff16565b611cfa565b866000015173ffffffffffffffffffffffffffffffffffffffff16638803dbee8861010001516127598a60a0015188611f2b90919063ffffffff16565b8a6101400151308c60e001516040518663ffffffff1660e01b81526004016127859594939291906143b5565b600060405180830381600087803b15801561279f57600080fd5b505af11580156127b3573d6000803e3d6000fd5b505050506040513d6000823e3d601f19601f820116820180604052508101906127dc91906139e2565b6000815181106127e857fe5b602002602001015191505b5b5b6128088285611f2b90919063ffffffff16565b61281b8285611f2b90919063ffffffff16565b9550955050505050915091565b60008114806128f6575060008373ffffffffffffffffffffffffffffffffffffffff1663dd62ed3e30856040518363ffffffff1660e01b8152600401808373ffffffffffffffffffffffffffffffffffffffff1681526020018273ffffffffffffffffffffffffffffffffffffffff1681526020019250505060206040518083038186803b1580156128b957600080fd5b505afa1580156128cd573d6000803e3d6000fd5b505050506040513d60208110156128e357600080fd5b8101908080519060200190929190505050145b61294b576040517f08c379a00000000000000000000000000000000000000000000000000000000081526004018080602001828103825260368152602001806147c16036913960400191505060405180910390fd5b6129e88363095ea7b360e01b8484604051602401808373ffffffffffffffffffffffffffffffffffffffff16815260200182815260200192505050604051602081830303815290604052907bffffffffffffffffffffffffffffffffffffffffffffffffffffffff19166020820180517bffffffffffffffffffffffffffffffffffffffffffffffffffffffff83818316178352505050506120ce565b505050565b60606129fc8484600085612a05565b90509392505050565b606082471015612a60576040517f08c379a00000000000000000000000000000000000000000000000000000000081526004018080602001828103825260268152602001806147506026913960400191505060405180910390fd5b612a6985612bad565b612adb576040517f08c379a000000000000000000000000000000000000000000000000000000000815260040180806020018281038252601d8152602001807f416464726573733a2063616c6c20746f206e6f6e2d636f6e747261637400000081525060200191505060405180910390fd5b6000808673ffffffffffffffffffffffffffffffffffffffff1685876040518082805190602001908083835b60208310612b2a5780518252602082019150602081019050602083039250612b07565b6001836020036101000a03801982511681845116808217855250505050505090500191505060006040518083038185875af1925050503d8060008114612b8c576040519150601f19603f3d011682016040523d82523d6000602084013e612b91565b606091505b5091509150612ba1828286612bc0565b92505050949350505050565b600080823b905060008111915050919050565b60608315612bd057829050612c85565b600083511115612be35782518084602001fd5b816040517f08c379a00000000000000000000000000000000000000000000000000000000081526004018080602001828103825283818151815260200191508051906020019080838360005b83811015612c4a578082015181840152602081019050612c2f565b50505050905090810190601f168015612c775780820380516001836020036101000a031916815260200191505b509250505060405180910390fd5b9392505050565b6000612c9f612c9a8461445b565b61442a565b90508083825260208201905082856020860282011115612cbe57600080fd5b60005b85811015612cee5781612cd48882612e7a565b845260208401935060208301925050600181019050612cc1565b5050509392505050565b6000612d0b612d068461445b565b61442a565b90508083825260208201905082856020860282011115612d2a57600080fd5b60005b85811015612d5a5781612d408882612e8f565b845260208401935060208301925050600181019050612d2d565b5050509392505050565b6000612d77612d7284614487565b61442a565b90508083825260208201905082856020860282011115612d9657600080fd5b60005b85811015612dc65781612dac8882613680565b845260208401935060208301925050600181019050612d99565b5050509392505050565b6000612de3612dde84614487565b61442a565b90508083825260208201905082856020860282011115612e0257600080fd5b60005b85811015612e325781612e188882613695565b845260208401935060208301925050600181019050612e05565b5050509392505050565b6000612e4f612e4a846144b3565b61442a565b905082815260208101848484011115612e6757600080fd5b612e72848285614678565b509392505050565b600081359050612e89816146cd565b92915050565b600081519050612e9e816146cd565b92915050565b60008083601f840112612eb657600080fd5b8235905067ffffffffffffffff811115612ecf57600080fd5b602083019150836020820283011115612ee757600080fd5b9250929050565b600082601f830112612eff57600080fd5b8135612f0f848260208601612c8c565b91505092915050565b600082601f830112612f2957600080fd5b8151612f39848260208601612cf8565b91505092915050565b60008083601f840112612f5457600080fd5b8235905067ffffffffffffffff811115612f6d57600080fd5b602083019150836020820283011115612f8557600080fd5b9250929050565b600082601f830112612f9d57600080fd5b8135612fad848260208601612d64565b91505092915050565b600082601f830112612fc757600080fd5b8151612fd7848260208601612dd0565b91505092915050565b600081359050612fef816146e4565b92915050565b600081519050613004816146e4565b92915050565b60008083601f84011261301c57600080fd5b8235905067ffffffffffffffff81111561303557600080fd5b60208301915083600182028301111561304d57600080fd5b9250929050565b600082601f83011261306557600080fd5b8135613075848260208601612e3c565b91505092915050565b60006103c0828403121561309157600080fd5b61309c6103c061442a565b905060006130ac84828501612e8f565b60008301525060206130c084828501612e8f565b60208301525060406130d484828501612e8f565b60408301525060606130e884828501612e8f565b60608301525060806130fc84828501612e8f565b60808301525060a061311084828501613695565b60a08301525060c061312484828501613695565b60c08301525060e082015167ffffffffffffffff81111561314457600080fd5b61315084828501612f18565b60e08301525061010061316584828501612ff5565b6101008301525061012061317b84828501612e8f565b6101208301525061014061319184828501613695565b610140830152506101606131a784828501613695565b6101608301525061018082015167ffffffffffffffff8111156131c957600080fd5b6131d584828501612f18565b610180830152506101a06131eb84828501612ff5565b6101a0830152506101c061320184828501613695565b6101c0830152506101e061321784828501613695565b6101e08301525061020061322d84828501613695565b6102008301525061022061324384828501613695565b6102208301525061024061325984828501612e8f565b6102408301525061026061326f84828501612e8f565b6102608301525061028061328584828501612e8f565b610280830152506102a061329b84828501612e8f565b6102a0830152506102c06132b184828501612e8f565b6102c0830152506102e06132c784828501612e8f565b6102e0830152506103006132dd84828501612e8f565b610300830152506103206132f384828501613695565b6103208301525061034061330984828501613695565b6103408301525061036061331f84828501612ff5565b6103608301525061038061333584828501613695565b610380830152506103a061334b84828501612e8f565b6103a08301525092915050565b60006040828403121561336a57600080fd5b613374604061442a565b90506000613384848285016136aa565b600083015250602082013567ffffffffffffffff8111156133a457600080fd5b6133b084828501613054565b60208301525092915050565b60006103a082840312156133cf57600080fd5b6133da6103a061442a565b905060006133ea84828501612e8f565b60008301525060206133fe84828501612e8f565b602083015250604061341284828501613695565b604083015250606061342684828501612e8f565b606083015250608061343a84828501612e8f565b60808301525060a061344e84828501612e8f565b60a08301525060c061346284828501613695565b60c08301525060e061347684828501613695565b60e08301525061010061348b84828501613695565b610100830152506101206134a184828501613695565b6101208301525061014082015167ffffffffffffffff8111156134c357600080fd5b6134cf84828501612f18565b6101408301525061016082015167ffffffffffffffff8111156134f157600080fd5b6134fd84828501612f18565b6101608301525061018061351384828501613695565b610180830152506101a061352984828501613695565b6101a0830152506101c061353f84828501613695565b6101c0830152506101e061355584828501612e8f565b6101e08301525061020061356b84828501612e8f565b6102008301525061022061358184828501612e8f565b6102208301525061024061359784828501612e8f565b610240830152506102606135ad84828501612e8f565b610260830152506102806135c384828501613695565b610280830152506102a06135d984828501612e8f565b6102a0830152506102c06135ef84828501612e8f565b6102c0830152506102e061360584828501612e8f565b6102e08301525061030061361b84828501612e8f565b6103008301525061032061363184828501612e8f565b6103208301525061034061364784828501613695565b6103408301525061036061365d84828501613695565b6103608301525061038061367384828501612e8f565b6103808301525092915050565b60008135905061368f816146fb565b92915050565b6000815190506136a4816146fb565b92915050565b6000813590506136b981614712565b92915050565b6000602082840312156136d157600080fd5b60006136df84828501612e7a565b91505092915050565b60008060008060008060008060008060006101608c8e03121561370a57600080fd5b60006137188e828f01612e7a565b9b505060206137298e828f01612e7a565b9a505060408c013567ffffffffffffffff81111561374657600080fd5b6137528e828f01612eee565b99505060608c013567ffffffffffffffff81111561376f57600080fd5b61377b8e828f01612f8c565b985050608061378c8e828f01612e7a565b97505060a08c013567ffffffffffffffff8111156137a957600080fd5b6137b58e828f01612eee565b96505060c08c013567ffffffffffffffff8111156137d257600080fd5b6137de8e828f01612f8c565b95505060e08c013567ffffffffffffffff8111156137fb57600080fd5b6138078e828f01612f8c565b9450506101008c013567ffffffffffffffff81111561382557600080fd5b6138318e828f01613054565b9350506101206138438e828f01612e7a565b9250506101406138558e828f01612fe0565b9150509295989b509295989b9093969950565b60008060008060008060a0878903121561388157600080fd5b600061388f89828a01612e7a565b96505060206138a089828a01612e7a565b95505060406138b189828a01613680565b94505060606138c289828a01613680565b935050608087013567ffffffffffffffff8111156138df57600080fd5b6138eb89828a0161300a565b92509250509295509295509295565b600080600080600080600080600060a08a8c03121561391857600080fd5b60008a013567ffffffffffffffff81111561393257600080fd5b61393e8c828d01612ea4565b995099505060208a013567ffffffffffffffff81111561395d57600080fd5b6139698c828d01612f42565b975097505060408a013567ffffffffffffffff81111561398857600080fd5b6139948c828d01612f42565b955095505060606139a78c828d01612e7a565b93505060808a013567ffffffffffffffff8111156139c457600080fd5b6139d08c828d0161300a565b92509250509295985092959850929598565b6000602082840312156139f457600080fd5b600082015167ffffffffffffffff811115613a0e57600080fd5b613a1a84828501612fb6565b91505092915050565b600060208284031215613a3557600080fd5b6000613a4384828501612ff5565b91505092915050565b600060208284031215613a5e57600080fd5b600082015167ffffffffffffffff811115613a7857600080fd5b613a848482850161307e565b91505092915050565b600060208284031215613a9f57600080fd5b600082013567ffffffffffffffff811115613ab957600080fd5b613ac584828501613358565b91505092915050565b600060208284031215613ae057600080fd5b600082015167ffffffffffffffff811115613afa57600080fd5b613b06848285016133bc565b91505092915050565b600060208284031215613b2157600080fd5b6000613b2f84828501613695565b91505092915050565b60008060408385031215613b4b57600080fd5b6000613b5985828601613695565b9250506020613b6a85828601613695565b9150509250929050565b600080600060608486031215613b8957600080fd5b6000613b9786828701613695565b9350506020613ba886828701613695565b9250506040613bb986828701613695565b9150509250925092565b6000613bcf8383613c02565b60208301905092915050565b6000613be78383613eac565b60208301905092915050565b613bfc816145fa565b82525050565b613c0b8161458d565b82525050565b613c1a8161458d565b82525050565b6000613c2b82614503565b613c35818561453e565b9350613c40836144e3565b8060005b83811015613c71578151613c588882613bc3565b9750613c6383614524565b925050600181019050613c44565b5085935050505092915050565b6000613c898261450e565b613c93818561454f565b9350613c9e836144f3565b8060005b83811015613ccf578151613cb68882613bdb565b9750613cc183614531565b925050600181019050613ca2565b5085935050505092915050565b613ce58161459f565b82525050565b613cf4816145ab565b82525050565b6000613d0582614519565b613d0f8185614560565b9350613d1f818560208601614687565b613d28816146bc565b840191505092915050565b613d3c8161460c565b82525050565b613d4b81614630565b82525050565b613d5a81614642565b82525050565b6000613d6d60418361457c565b91507f4465756e6966693a20426f7567687420636f6c6c61746572616c206c6f77657260008301527f207468616e20657870656374656420636f6c6c61746572616c20746f2062757960208301527f2e000000000000000000000000000000000000000000000000000000000000006040830152606082019050919050565b6000613df9602d8361457c565b91507f4465756e6966693a2052656d61696e696e6720746f6b656e206c6f776572207460008301527f68616e2065787065637465642e000000000000000000000000000000000000006020830152604082019050919050565b6000613e5f600083614571565b9150600082019050919050565b6000613e79601b8361457c565b91507f4465756e6966693a20496e76616c6964206f7065726174696f6e2e00000000006000830152602082019050919050565b613eb5816145e3565b82525050565b613ec4816145e3565b82525050565b613ed3816145ed565b82525050565b6000613ee482613e52565b9150819050919050565b6000602082019050613f036000830184613c11565b92915050565b6000604082019050613f1e6000830185613bf3565b613f2b6020830184613c11565b9392505050565b6000604082019050613f476000830185613bf3565b613f546020830184613ebb565b9392505050565b600061010082019050613f71600083018b613c11565b613f7e602083018a613c11565b613f8b6040830189613c11565b613f986060830188613c11565b613fa56080830187613ebb565b613fb260a0830186613ebb565b613fbf60c0830185613ebb565b613fcc60e0830184613cdc565b9998505050505050505050565b600060c082019050613fee6000830189613c11565b613ffb6020830188613c11565b6140086040830187613c11565b6140156060830186613ebb565b6140226080830185613ebb565b61402f60a0830184613ebb565b979650505050505050565b600060608201905061404f6000830186613c11565b61405c6020830185613c11565b6140696040830184613ebb565b949350505050565b600060e082019050614086600083018a613c11565b6140936020830189613c11565b6140a06040830188613ebb565b6140ad6060830187613d51565b6140ba6080830186613d51565b6140c760a0830185613bf3565b6140d460c0830184613ebb565b98975050505050505050565b6000610100820190506140f6600083018b613c11565b614103602083018a613c11565b6141106040830189613ebb565b61411d6060830188613ebb565b61412a6080830187613d51565b61413760a0830186613d51565b61414460c0830185613bf3565b61415160e0830184613ebb565b9998505050505050505050565b600060e082019050614173600083018a613c11565b81810360208301526141858189613c20565b905081810360408301526141998188613c7e565b905081810360608301526141ad8187613c7e565b90506141bc6080830186613c11565b81810360a08301526141ce8185613cfa565b90506141dd60c0830184613d42565b98975050505050505050565b60006040820190506141fe6000830185613c11565b81810360208301526142108184613cfa565b90509392505050565b600060808201905061422e6000830187613c11565b61423b6020830186613ebb565b6142486040830185613ebb565b6142556060830184613ebb565b95945050505050565b60006020820190506142736000830184613cdc565b92915050565b600060208201905061428e6000830184613ceb565b92915050565b60006080820190506142a96000830187613d33565b6142b66020830186613c11565b6142c36040830185613ebb565b81810360608301526142d58184613cfa565b905095945050505050565b600060208201905081810360008301526142f981613d60565b9050919050565b6000602082019050818103600083015261431981613dec565b9050919050565b6000602082019050818103600083015261433981613e6c565b9050919050565b60006020820190506143556000830184613ebb565b92915050565b600060a0820190506143706000830188613ebb565b61437d6020830187613d51565b818103604083015261438f8186613c20565b905061439e6060830185613bf3565b6143ab6080830184613ebb565b9695505050505050565b600060a0820190506143ca6000830188613ebb565b6143d76020830187613ebb565b81810360408301526143e98186613c20565b90506143f86060830185613bf3565b6144056080830184613ebb565b9695505050505050565b60006020820190506144246000830184613eca565b92915050565b6000604051905081810181811067ffffffffffffffff82111715614451576144506146ba565b5b8060405250919050565b600067ffffffffffffffff821115614476576144756146ba565b5b602082029050602081019050919050565b600067ffffffffffffffff8211156144a2576144a16146ba565b5b602082029050602081019050919050565b600067ffffffffffffffff8211156144ce576144cd6146ba565b5b601f19601f8301169050602081019050919050565b6000819050602082019050919050565b6000819050602082019050919050565b600081519050919050565b600081519050919050565b600081519050919050565b6000602082019050919050565b6000602082019050919050565b600082825260208201905092915050565b600082825260208201905092915050565b600082825260208201905092915050565b600081905092915050565b600082825260208201905092915050565b6000614598826145c3565b9050919050565b60008115159050919050565b6000819050919050565b600061ffff82169050919050565b600073ffffffffffffffffffffffffffffffffffffffff82169050919050565b6000819050919050565b600060ff82169050919050565b600061460582614654565b9050919050565b60006146178261461e565b9050919050565b6000614629826145c3565b9050919050565b600061463b826145b5565b9050919050565b600061464d826145e3565b9050919050565b600061465f82614666565b9050919050565b6000614671826145c3565b9050919050565b82818337600083830152505050565b60005b838110156146a557808201518184015260208101905061468a565b838111156146b4576000848401525b50505050565bfe5b6000601f19601f8301169050919050565b6146d68161458d565b81146146e157600080fd5b50565b6146ed8161459f565b81146146f857600080fd5b50565b614704816145e3565b811461470f57600080fd5b50565b61471b816145ed565b811461472657600080fd5b5056fe4f776e61626c653a206e6577206f776e657220697320746865207a65726f2061646472657373416464726573733a20696e73756666696369656e742062616c616e636520666f722063616c6c536166654d6174683a206d756c7469706c69636174696f6e206f766572666c6f775361666545524332303a204552433230206f7065726174696f6e20646964206e6f7420737563636565645361666545524332303a20617070726f76652066726f6d206e6f6e2d7a65726f20746f206e6f6e2d7a65726f20616c6c6f77616e6365a2646970667358221220045b3409c5e4944faff309853e32c93901e7b02ed34dce255d290d3a83440fac64736f6c63430007060033",
  "devdoc": {
    "kind": "dev",
    "methods": {
      "owner()": {
        "details": "Returns the address of the current owner."
      },
      "renounceOwnership()": {
        "details": "Leaves the contract without owner. It will not be possible to call `onlyOwner` functions anymore. Can only be called by the current owner. NOTE: Renouncing ownership will leave the contract without an owner, thereby removing any functionality that is only available to the owner."
      },
      "transferOwnership(address)": {
        "details": "Transfers ownership of the contract to a new account (`newOwner`). Can only be called by the current owner."
      }
    },
    "version": 1
  },
  "userdoc": {
    "kind": "user",
    "methods": {
      "flashLoanFromDSProxy(address,address,address[],uint256[],address,address[],uint256[],uint256[],bytes,address,bool)": {
        "notice": "Executed as DSProxy."
      }
    },
    "version": 1
  },
  "storageLayout": {
    "storage": [
      {
        "astId": 7,
        "contract": "contracts/Deunifi.sol:Deunifi",
        "label": "_owner",
        "offset": 0,
        "slot": "0",
        "type": "t_address"
      },
      {
        "astId": 1825,
        "contract": "contracts/Deunifi.sol:Deunifi",
        "label": "feeManager",
        "offset": 0,
        "slot": "1",
        "type": "t_address"
      }
    ],
    "types": {
      "t_address": {
        "encoding": "inplace",
        "label": "address",
        "numberOfBytes": "20"
      }
    }
  }
}