{
  "address": "0x5eb3Bc0a489C5A8288765d2336659EbCA68FCd00",
  "abi": [
    {
      "constant": false,
      "inputs": [
        {
          "internalType": "address",
          "name": "manager",
          "type": "address"
        },
        {
          "internalType": "uint256",
          "name": "cdp",
          "type": "uint256"
        },
        {
          "internalType": "address",
          "name": "usr",
          "type": "address"
        },
        {
          "internalType": "uint256",
          "name": "ok",
          "type": "uint256"
        }
      ],
      "name": "cdpAllow",
      "outputs": [],
      "payable": false,
      "stateMutability": "nonpayable",
      "type": "function"
    },
    {
      "constant": false,
      "inputs": [
        {
          "internalType": "address",
          "name": "apt",
          "type": "address"
        },
        {
          "internalType": "address",
          "name": "urn",
          "type": "address"
        },
        {
          "internalType": "uint256",
          "name": "wad",
          "type": "uint256"
        }
      ],
      "name": "daiJoin_join",
      "outputs": [],
      "payable": false,
      "stateMutability": "nonpayable",
      "type": "function"
    },
    {
      "constant": false,
      "inputs": [
        {
          "internalType": "address",
          "name": "manager",
          "type": "address"
        },
        {
          "internalType": "address",
          "name": "jug",
          "type": "address"
        },
        {
          "internalType": "address",
          "name": "daiJoin",
          "type": "address"
        },
        {
          "internalType": "uint256",
          "name": "cdp",
          "type": "uint256"
        },
        {
          "internalType": "uint256",
          "name": "wad",
          "type": "uint256"
        }
      ],
      "name": "draw",
      "outputs": [],
      "payable": false,
      "stateMutability": "nonpayable",
      "type": "function"
    },
    {
      "constant": false,
      "inputs": [
        {
          "internalType": "address",
          "name": "manager",
          "type": "address"
        },
        {
          "internalType": "address",
          "name": "src",
          "type": "address"
        },
        {
          "internalType": "uint256",
          "name": "cdp",
          "type": "uint256"
        }
      ],
      "name": "enter",
      "outputs": [],
      "payable": false,
      "stateMutability": "nonpayable",
      "type": "function"
    },
    {
      "constant": false,
      "inputs": [
        {
          "internalType": "address",
          "name": "apt",
          "type": "address"
        },
        {
          "internalType": "address",
          "name": "urn",
          "type": "address"
        }
      ],
      "name": "ethJoin_join",
      "outputs": [],
      "payable": true,
      "stateMutability": "payable",
      "type": "function"
    },
    {
      "constant": false,
      "inputs": [
        {
          "internalType": "address",
          "name": "manager",
          "type": "address"
        },
        {
          "internalType": "address",
          "name": "ethJoin",
          "type": "address"
        },
        {
          "internalType": "uint256",
          "name": "cdp",
          "type": "uint256"
        },
        {
          "internalType": "uint256",
          "name": "wad",
          "type": "uint256"
        }
      ],
      "name": "exitETH",
      "outputs": [],
      "payable": false,
      "stateMutability": "nonpayable",
      "type": "function"
    },
    {
      "constant": false,
      "inputs": [
        {
          "internalType": "address",
          "name": "manager",
          "type": "address"
        },
        {
          "internalType": "address",
          "name": "gemJoin",
          "type": "address"
        },
        {
          "internalType": "uint256",
          "name": "cdp",
          "type": "uint256"
        },
        {
          "internalType": "uint256",
          "name": "wad",
          "type": "uint256"
        }
      ],
      "name": "exitGem",
      "outputs": [],
      "payable": false,
      "stateMutability": "nonpayable",
      "type": "function"
    },
    {
      "constant": false,
      "inputs": [
        {
          "internalType": "address",
          "name": "manager",
          "type": "address"
        },
        {
          "internalType": "uint256",
          "name": "cdp",
          "type": "uint256"
        },
        {
          "internalType": "address",
          "name": "dst",
          "type": "address"
        },
        {
          "internalType": "uint256",
          "name": "wad",
          "type": "uint256"
        }
      ],
      "name": "flux",
      "outputs": [],
      "payable": false,
      "stateMutability": "nonpayable",
      "type": "function"
    },
    {
      "constant": false,
      "inputs": [
        {
          "internalType": "address",
          "name": "manager",
          "type": "address"
        },
        {
          "internalType": "address",
          "name": "ethJoin",
          "type": "address"
        },
        {
          "internalType": "uint256",
          "name": "cdp",
          "type": "uint256"
        },
        {
          "internalType": "uint256",
          "name": "wad",
          "type": "uint256"
        }
      ],
      "name": "freeETH",
      "outputs": [],
      "payable": false,
      "stateMutability": "nonpayable",
      "type": "function"
    },
    {
      "constant": false,
      "inputs": [
        {
          "internalType": "address",
          "name": "manager",
          "type": "address"
        },
        {
          "internalType": "address",
          "name": "gemJoin",
          "type": "address"
        },
        {
          "internalType": "uint256",
          "name": "cdp",
          "type": "uint256"
        },
        {
          "internalType": "uint256",
          "name": "wad",
          "type": "uint256"
        }
      ],
      "name": "freeGem",
      "outputs": [],
      "payable": false,
      "stateMutability": "nonpayable",
      "type": "function"
    },
    {
      "constant": false,
      "inputs": [
        {
          "internalType": "address",
          "name": "manager",
          "type": "address"
        },
        {
          "internalType": "uint256",
          "name": "cdp",
          "type": "uint256"
        },
        {
          "internalType": "int256",
          "name": "dink",
          "type": "int256"
        },
        {
          "internalType": "int256",
          "name": "dart",
          "type": "int256"
        }
      ],
      "name": "frob",
      "outputs": [],
      "payable": false,
      "stateMutability": "nonpayable",
      "type": "function"
    },
    {
      "constant": false,
      "inputs": [
        {
          "internalType": "address",
          "name": "apt",
          "type": "address"
        },
        {
          "internalType": "address",
          "name": "urn",
          "type": "address"
        },
        {
          "internalType": "uint256",
          "name": "wad",
          "type": "uint256"
        },
        {
          "internalType": "bool",
          "name": "transferFrom",
          "type": "bool"
        }
      ],
      "name": "gemJoin_join",
      "outputs": [],
      "payable": false,
      "stateMutability": "nonpayable",
      "type": "function"
    },
    {
      "constant": false,
      "inputs": [
        {
          "internalType": "address",
          "name": "manager",
          "type": "address"
        },
        {
          "internalType": "uint256",
          "name": "cdp",
          "type": "uint256"
        },
        {
          "internalType": "address",
          "name": "usr",
          "type": "address"
        }
      ],
      "name": "give",
      "outputs": [],
      "payable": false,
      "stateMutability": "nonpayable",
      "type": "function"
    },
    {
      "constant": false,
      "inputs": [
        {
          "internalType": "address",
          "name": "proxyRegistry",
          "type": "address"
        },
        {
          "internalType": "address",
          "name": "manager",
          "type": "address"
        },
        {
          "internalType": "uint256",
          "name": "cdp",
          "type": "uint256"
        },
        {
          "internalType": "address",
          "name": "dst",
          "type": "address"
        }
      ],
      "name": "giveToProxy",
      "outputs": [],
      "payable": false,
      "stateMutability": "nonpayable",
      "type": "function"
    },
    {
      "constant": false,
      "inputs": [
        {
          "internalType": "address",
          "name": "obj",
          "type": "address"
        },
        {
          "internalType": "address",
          "name": "usr",
          "type": "address"
        }
      ],
      "name": "hope",
      "outputs": [],
      "payable": false,
      "stateMutability": "nonpayable",
      "type": "function"
    },
    {
      "constant": false,
      "inputs": [
        {
          "internalType": "address",
          "name": "manager",
          "type": "address"
        },
        {
          "internalType": "address",
          "name": "ethJoin",
          "type": "address"
        },
        {
          "internalType": "uint256",
          "name": "cdp",
          "type": "uint256"
        }
      ],
      "name": "lockETH",
      "outputs": [],
      "payable": true,
      "stateMutability": "payable",
      "type": "function"
    },
    {
      "constant": false,
      "inputs": [
        {
          "internalType": "address",
          "name": "manager",
          "type": "address"
        },
        {
          "internalType": "address",
          "name": "jug",
          "type": "address"
        },
        {
          "internalType": "address",
          "name": "ethJoin",
          "type": "address"
        },
        {
          "internalType": "address",
          "name": "daiJoin",
          "type": "address"
        },
        {
          "internalType": "uint256",
          "name": "cdp",
          "type": "uint256"
        },
        {
          "internalType": "uint256",
          "name": "wadD",
          "type": "uint256"
        }
      ],
      "name": "lockETHAndDraw",
      "outputs": [],
      "payable": true,
      "stateMutability": "payable",
      "type": "function"
    },
    {
      "constant": false,
      "inputs": [
        {
          "internalType": "address",
          "name": "manager",
          "type": "address"
        },
        {
          "internalType": "address",
          "name": "gemJoin",
          "type": "address"
        },
        {
          "internalType": "uint256",
          "name": "cdp",
          "type": "uint256"
        },
        {
          "internalType": "uint256",
          "name": "wad",
          "type": "uint256"
        },
        {
          "internalType": "bool",
          "name": "transferFrom",
          "type": "bool"
        }
      ],
      "name": "lockGem",
      "outputs": [],
      "payable": false,
      "stateMutability": "nonpayable",
      "type": "function"
    },
    {
      "constant": false,
      "inputs": [
        {
          "internalType": "address",
          "name": "manager",
          "type": "address"
        },
        {
          "internalType": "address",
          "name": "jug",
          "type": "address"
        },
        {
          "internalType": "address",
          "name": "gemJoin",
          "type": "address"
        },
        {
          "internalType": "address",
          "name": "daiJoin",
          "type": "address"
        },
        {
          "internalType": "uint256",
          "name": "cdp",
          "type": "uint256"
        },
        {
          "internalType": "uint256",
          "name": "wadC",
          "type": "uint256"
        },
        {
          "internalType": "uint256",
          "name": "wadD",
          "type": "uint256"
        },
        {
          "internalType": "bool",
          "name": "transferFrom",
          "type": "bool"
        }
      ],
      "name": "lockGemAndDraw",
      "outputs": [],
      "payable": false,
      "stateMutability": "nonpayable",
      "type": "function"
    },
    {
      "constant": false,
      "inputs": [
        {
          "internalType": "address",
          "name": "gemJoin",
          "type": "address"
        }
      ],
      "name": "makeGemBag",
      "outputs": [
        {
          "internalType": "address",
          "name": "bag",
          "type": "address"
        }
      ],
      "payable": false,
      "stateMutability": "nonpayable",
      "type": "function"
    },
    {
      "constant": false,
      "inputs": [
        {
          "internalType": "address",
          "name": "manager",
          "type": "address"
        },
        {
          "internalType": "uint256",
          "name": "cdp",
          "type": "uint256"
        },
        {
          "internalType": "address",
          "name": "dst",
          "type": "address"
        },
        {
          "internalType": "uint256",
          "name": "rad",
          "type": "uint256"
        }
      ],
      "name": "move",
      "outputs": [],
      "payable": false,
      "stateMutability": "nonpayable",
      "type": "function"
    },
    {
      "constant": false,
      "inputs": [
        {
          "internalType": "address",
          "name": "obj",
          "type": "address"
        },
        {
          "internalType": "address",
          "name": "usr",
          "type": "address"
        }
      ],
      "name": "nope",
      "outputs": [],
      "payable": false,
      "stateMutability": "nonpayable",
      "type": "function"
    },
    {
      "constant": false,
      "inputs": [
        {
          "internalType": "address",
          "name": "manager",
          "type": "address"
        },
        {
          "internalType": "bytes32",
          "name": "ilk",
          "type": "bytes32"
        },
        {
          "internalType": "address",
          "name": "usr",
          "type": "address"
        }
      ],
      "name": "open",
      "outputs": [
        {
          "internalType": "uint256",
          "name": "cdp",
          "type": "uint256"
        }
      ],
      "payable": false,
      "stateMutability": "nonpayable",
      "type": "function"
    },
    {
      "constant": false,
      "inputs": [
        {
          "internalType": "address",
          "name": "manager",
          "type": "address"
        },
        {
          "internalType": "address",
          "name": "jug",
          "type": "address"
        },
        {
          "internalType": "address",
          "name": "ethJoin",
          "type": "address"
        },
        {
          "internalType": "address",
          "name": "daiJoin",
          "type": "address"
        },
        {
          "internalType": "bytes32",
          "name": "ilk",
          "type": "bytes32"
        },
        {
          "internalType": "uint256",
          "name": "wadD",
          "type": "uint256"
        }
      ],
      "name": "openLockETHAndDraw",
      "outputs": [
        {
          "internalType": "uint256",
          "name": "cdp",
          "type": "uint256"
        }
      ],
      "payable": true,
      "stateMutability": "payable",
      "type": "function"
    },
    {
      "constant": false,
      "inputs": [
        {
          "internalType": "address",
          "name": "manager",
          "type": "address"
        },
        {
          "internalType": "address",
          "name": "jug",
          "type": "address"
        },
        {
          "internalType": "address",
          "name": "gntJoin",
          "type": "address"
        },
        {
          "internalType": "address",
          "name": "daiJoin",
          "type": "address"
        },
        {
          "internalType": "bytes32",
          "name": "ilk",
          "type": "bytes32"
        },
        {
          "internalType": "uint256",
          "name": "wadC",
          "type": "uint256"
        },
        {
          "internalType": "uint256",
          "name": "wadD",
          "type": "uint256"
        }
      ],
      "name": "openLockGNTAndDraw",
      "outputs": [
        {
          "internalType": "address",
          "name": "bag",
          "type": "address"
        },
        {
          "internalType": "uint256",
          "name": "cdp",
          "type": "uint256"
        }
      ],
      "payable": false,
      "stateMutability": "nonpayable",
      "type": "function"
    },
    {
      "constant": false,
      "inputs": [
        {
          "internalType": "address",
          "name": "manager",
          "type": "address"
        },
        {
          "internalType": "address",
          "name": "jug",
          "type": "address"
        },
        {
          "internalType": "address",
          "name": "gemJoin",
          "type": "address"
        },
        {
          "internalType": "address",
          "name": "daiJoin",
          "type": "address"
        },
        {
          "internalType": "bytes32",
          "name": "ilk",
          "type": "bytes32"
        },
        {
          "internalType": "uint256",
          "name": "wadC",
          "type": "uint256"
        },
        {
          "internalType": "uint256",
          "name": "wadD",
          "type": "uint256"
        },
        {
          "internalType": "bool",
          "name": "transferFrom",
          "type": "bool"
        }
      ],
      "name": "openLockGemAndDraw",
      "outputs": [
        {
          "internalType": "uint256",
          "name": "cdp",
          "type": "uint256"
        }
      ],
      "payable": false,
      "stateMutability": "nonpayable",
      "type": "function"
    },
    {
      "constant": false,
      "inputs": [
        {
          "internalType": "address",
          "name": "manager",
          "type": "address"
        },
        {
          "internalType": "uint256",
          "name": "cdp",
          "type": "uint256"
        },
        {
          "internalType": "address",
          "name": "dst",
          "type": "address"
        }
      ],
      "name": "quit",
      "outputs": [],
      "payable": false,
      "stateMutability": "nonpayable",
      "type": "function"
    },
    {
      "constant": false,
      "inputs": [
        {
          "internalType": "address",
          "name": "manager",
          "type": "address"
        },
        {
          "internalType": "address",
          "name": "ethJoin",
          "type": "address"
        },
        {
          "internalType": "uint256",
          "name": "cdp",
          "type": "uint256"
        },
        {
          "internalType": "address",
          "name": "owner",
          "type": "address"
        }
      ],
      "name": "safeLockETH",
      "outputs": [],
      "payable": true,
      "stateMutability": "payable",
      "type": "function"
    },
    {
      "constant": false,
      "inputs": [
        {
          "internalType": "address",
          "name": "manager",
          "type": "address"
        },
        {
          "internalType": "address",
          "name": "gemJoin",
          "type": "address"
        },
        {
          "internalType": "uint256",
          "name": "cdp",
          "type": "uint256"
        },
        {
          "internalType": "uint256",
          "name": "wad",
          "type": "uint256"
        },
        {
          "internalType": "bool",
          "name": "transferFrom",
          "type": "bool"
        },
        {
          "internalType": "address",
          "name": "owner",
          "type": "address"
        }
      ],
      "name": "safeLockGem",
      "outputs": [],
      "payable": false,
      "stateMutability": "nonpayable",
      "type": "function"
    },
    {
      "constant": false,
      "inputs": [
        {
          "internalType": "address",
          "name": "manager",
          "type": "address"
        },
        {
          "internalType": "address",
          "name": "daiJoin",
          "type": "address"
        },
        {
          "internalType": "uint256",
          "name": "cdp",
          "type": "uint256"
        },
        {
          "internalType": "uint256",
          "name": "wad",
          "type": "uint256"
        },
        {
          "internalType": "address",
          "name": "owner",
          "type": "address"
        }
      ],
      "name": "safeWipe",
      "outputs": [],
      "payable": false,
      "stateMutability": "nonpayable",
      "type": "function"
    },
    {
      "constant": false,
      "inputs": [
        {
          "internalType": "address",
          "name": "manager",
          "type": "address"
        },
        {
          "internalType": "address",
          "name": "daiJoin",
          "type": "address"
        },
        {
          "internalType": "uint256",
          "name": "cdp",
          "type": "uint256"
        },
        {
          "internalType": "address",
          "name": "owner",
          "type": "address"
        }
      ],
      "name": "safeWipeAll",
      "outputs": [],
      "payable": false,
      "stateMutability": "nonpayable",
      "type": "function"
    },
    {
      "constant": false,
      "inputs": [
        {
          "internalType": "address",
          "name": "manager",
          "type": "address"
        },
        {
          "internalType": "uint256",
          "name": "cdpSrc",
          "type": "uint256"
        },
        {
          "internalType": "uint256",
          "name": "cdpOrg",
          "type": "uint256"
        }
      ],
      "name": "shift",
      "outputs": [],
      "payable": false,
      "stateMutability": "nonpayable",
      "type": "function"
    },
    {
      "constant": false,
      "inputs": [
        {
          "internalType": "address",
          "name": "gem",
          "type": "address"
        },
        {
          "internalType": "address",
          "name": "dst",
          "type": "address"
        },
        {
          "internalType": "uint256",
          "name": "wad",
          "type": "uint256"
        }
      ],
      "name": "transfer",
      "outputs": [],
      "payable": false,
      "stateMutability": "nonpayable",
      "type": "function"
    },
    {
      "constant": false,
      "inputs": [
        {
          "internalType": "address",
          "name": "manager",
          "type": "address"
        },
        {
          "internalType": "address",
          "name": "usr",
          "type": "address"
        },
        {
          "internalType": "uint256",
          "name": "ok",
          "type": "uint256"
        }
      ],
      "name": "urnAllow",
      "outputs": [],
      "payable": false,
      "stateMutability": "nonpayable",
      "type": "function"
    },
    {
      "constant": false,
      "inputs": [
        {
          "internalType": "address",
          "name": "manager",
          "type": "address"
        },
        {
          "internalType": "address",
          "name": "daiJoin",
          "type": "address"
        },
        {
          "internalType": "uint256",
          "name": "cdp",
          "type": "uint256"
        },
        {
          "internalType": "uint256",
          "name": "wad",
          "type": "uint256"
        }
      ],
      "name": "wipe",
      "outputs": [],
      "payable": false,
      "stateMutability": "nonpayable",
      "type": "function"
    },
    {
      "constant": false,
      "inputs": [
        {
          "internalType": "address",
          "name": "manager",
          "type": "address"
        },
        {
          "internalType": "address",
          "name": "daiJoin",
          "type": "address"
        },
        {
          "internalType": "uint256",
          "name": "cdp",
          "type": "uint256"
        }
      ],
      "name": "wipeAll",
      "outputs": [],
      "payable": false,
      "stateMutability": "nonpayable",
      "type": "function"
    },
    {
      "constant": false,
      "inputs": [
        {
          "internalType": "address",
          "name": "manager",
          "type": "address"
        },
        {
          "internalType": "address",
          "name": "ethJoin",
          "type": "address"
        },
        {
          "internalType": "address",
          "name": "daiJoin",
          "type": "address"
        },
        {
          "internalType": "uint256",
          "name": "cdp",
          "type": "uint256"
        },
        {
          "internalType": "uint256",
          "name": "wadC",
          "type": "uint256"
        }
      ],
      "name": "wipeAllAndFreeETH",
      "outputs": [],
      "payable": false,
      "stateMutability": "nonpayable",
      "type": "function"
    },
    {
      "constant": false,
      "inputs": [
        {
          "internalType": "address",
          "name": "manager",
          "type": "address"
        },
        {
          "internalType": "address",
          "name": "gemJoin",
          "type": "address"
        },
        {
          "internalType": "address",
          "name": "daiJoin",
          "type": "address"
        },
        {
          "internalType": "uint256",
          "name": "cdp",
          "type": "uint256"
        },
        {
          "internalType": "uint256",
          "name": "wadC",
          "type": "uint256"
        }
      ],
      "name": "wipeAllAndFreeGem",
      "outputs": [],
      "payable": false,
      "stateMutability": "nonpayable",
      "type": "function"
    },
    {
      "constant": false,
      "inputs": [
        {
          "internalType": "address",
          "name": "manager",
          "type": "address"
        },
        {
          "internalType": "address",
          "name": "ethJoin",
          "type": "address"
        },
        {
          "internalType": "address",
          "name": "daiJoin",
          "type": "address"
        },
        {
          "internalType": "uint256",
          "name": "cdp",
          "type": "uint256"
        },
        {
          "internalType": "uint256",
          "name": "wadC",
          "type": "uint256"
        },
        {
          "internalType": "uint256",
          "name": "wadD",
          "type": "uint256"
        }
      ],
      "name": "wipeAndFreeETH",
      "outputs": [],
      "payable": false,
      "stateMutability": "nonpayable",
      "type": "function"
    },
    {
      "constant": false,
      "inputs": [
        {
          "internalType": "address",
          "name": "manager",
          "type": "address"
        },
        {
          "internalType": "address",
          "name": "gemJoin",
          "type": "address"
        },
        {
          "internalType": "address",
          "name": "daiJoin",
          "type": "address"
        },
        {
          "internalType": "uint256",
          "name": "cdp",
          "type": "uint256"
        },
        {
          "internalType": "uint256",
          "name": "wadC",
          "type": "uint256"
        },
        {
          "internalType": "uint256",
          "name": "wadD",
          "type": "uint256"
        }
      ],
      "name": "wipeAndFreeGem",
      "outputs": [],
      "payable": false,
      "stateMutability": "nonpayable",
      "type": "function"
    }
  ],
  "transactionHash": "0x9fff35ac5e18f7a2266c3e187fa4ee63ef07c9cc9f9c38b00b66ee0ab6da4c27",
  "args": [],
  "solcInputHash": "49dbd8b6dfd23a09d47a1c5628f47c08",
  "bytecode": "0x608060405234801561001057600080fd5b5061719e80620000216000396000f3fe60806040526004361061023b5760003560e01c806396e8d72c1161012e578063c0791710116100ab578063e685cc041161006f578063e685cc041461163b578063ead6472914611707578063eb0b9a85146117b8578063ee28457614611833578063fba7591d146118c15761023b565b8063c079171014611270578063c56167c614611386578063cbd4be3f14611401578063db802a32146114dd578063e205c108146115cd5761023b565b8063b50a5869116100f2578063b50a586914610fab578063ba727a951461101c578063bcd6deec146110a1578063be5e6c0314611146578063beabacc8146111f55761023b565b806396e8d72c14610d135780639f6f3d5b14610d825780639f887fde14610e27578063a033df1214610e98578063a6add01114610efc5761023b565b80634592aca7116101bc5780636ab6a491116101805780636ab6a49114610a785780636d68b70b14610afd5780637b5a3b4314610ba25780637bc3bd5314610c275780637df2eb2514610c8c5761023b565b80634592aca7146107d3578063493c20491461084e5780634b666199146108e95780635f6ef4471461096e5780636aa3ee11146109e95761023b565b80631d10f231116102035780631d10f2311461051857806325cf37d0146105935780632958f8a5146106185780633e29e565146106bd57806342dd11bb1461074e5761023b565b8063036a23951461024057806308f00e34146102bb5780630aee8dec146103405780631558b048146103db5780631c02d84614610460575b600080fd5b34801561024c57600080fd5b506102b96004803603606081101561026357600080fd5b81019080803573ffffffffffffffffffffffffffffffffffffffff169060200190929190803573ffffffffffffffffffffffffffffffffffffffff16906020019092919080359060200190929190505050611952565b005b3480156102c757600080fd5b5061033e600480360360808110156102de57600080fd5b81019080803573ffffffffffffffffffffffffffffffffffffffff169060200190929190803573ffffffffffffffffffffffffffffffffffffffff1690602001909291908035906020019092919080359060200190929190505050611eee565b005b34801561034c57600080fd5b506103d96004803603608081101561036357600080fd5b81019080803573ffffffffffffffffffffffffffffffffffffffff169060200190929190803573ffffffffffffffffffffffffffffffffffffffff16906020019092919080359060200190929190803573ffffffffffffffffffffffffffffffffffffffff1690602001909291905050506120d3565b005b3480156103e757600080fd5b5061045e600480360360808110156103fe57600080fd5b81019080803573ffffffffffffffffffffffffffffffffffffffff16906020019092919080359060200190929190803573ffffffffffffffffffffffffffffffffffffffff16906020019092919080359060200190929190505050612210565b005b610516600480360360c081101561047657600080fd5b81019080803573ffffffffffffffffffffffffffffffffffffffff169060200190929190803573ffffffffffffffffffffffffffffffffffffffff169060200190929190803573ffffffffffffffffffffffffffffffffffffffff169060200190929190803573ffffffffffffffffffffffffffffffffffffffff16906020019092919080359060200190929190803590602001909291905050506122bd565b005b34801561052457600080fd5b506105916004803603606081101561053b57600080fd5b81019080803573ffffffffffffffffffffffffffffffffffffffff16906020019092919080359060200190929190803573ffffffffffffffffffffffffffffffffffffffff1690602001909291905050506126d6565b005b34801561059f57600080fd5b50610616600480360360808110156105b657600080fd5b81019080803573ffffffffffffffffffffffffffffffffffffffff16906020019092919080359060200190929190803573ffffffffffffffffffffffffffffffffffffffff1690602001909291908035906020019092919050505061277a565b005b34801561062457600080fd5b506106bb600480360360a081101561063b57600080fd5b81019080803573ffffffffffffffffffffffffffffffffffffffff169060200190929190803573ffffffffffffffffffffffffffffffffffffffff1690602001909291908035906020019092919080359060200190929190803573ffffffffffffffffffffffffffffffffffffffff169060200190929190505050612827565b005b3480156106c957600080fd5b5061074c600480360360a08110156106e057600080fd5b81019080803573ffffffffffffffffffffffffffffffffffffffff169060200190929190803573ffffffffffffffffffffffffffffffffffffffff1690602001909291908035906020019092919080359060200190929190803515159060200190929190505050612966565b005b34801561075a57600080fd5b506107d16004803603608081101561077157600080fd5b81019080803573ffffffffffffffffffffffffffffffffffffffff169060200190929190803573ffffffffffffffffffffffffffffffffffffffff1690602001909291908035906020019092919080359060200190929190505050612c38565b005b3480156107df57600080fd5b5061084c600480360360608110156107f657600080fd5b81019080803573ffffffffffffffffffffffffffffffffffffffff16906020019092919080359060200190929190803573ffffffffffffffffffffffffffffffffffffffff169060200190929190505050612cf2565b005b34801561085a57600080fd5b506108e76004803603608081101561087157600080fd5b81019080803573ffffffffffffffffffffffffffffffffffffffff169060200190929190803573ffffffffffffffffffffffffffffffffffffffff16906020019092919080359060200190929190803573ffffffffffffffffffffffffffffffffffffffff169060200190929190505050612d96565b005b3480156108f557600080fd5b5061096c6004803603608081101561090c57600080fd5b81019080803573ffffffffffffffffffffffffffffffffffffffff169060200190929190803573ffffffffffffffffffffffffffffffffffffffff169060200190929190803590602001909291908035906020019092919050505061308a565b005b34801561097a57600080fd5b506109e76004803603606081101561099157600080fd5b81019080803573ffffffffffffffffffffffffffffffffffffffff169060200190929190803573ffffffffffffffffffffffffffffffffffffffff16906020019092919080359060200190929190505050613617565b005b3480156109f557600080fd5b50610a6260048036036060811015610a0c57600080fd5b81019080803573ffffffffffffffffffffffffffffffffffffffff16906020019092919080359060200190929190803573ffffffffffffffffffffffffffffffffffffffff1690602001909291905050506136bb565b6040518082815260200191505060405180910390f35b348015610a8457600080fd5b50610afb60048036036080811015610a9b57600080fd5b81019080803573ffffffffffffffffffffffffffffffffffffffff169060200190929190803573ffffffffffffffffffffffffffffffffffffffff1690602001909291908035906020019092919080359060200190929190505050613788565b005b348015610b0957600080fd5b50610ba0600480360360a0811015610b2057600080fd5b81019080803573ffffffffffffffffffffffffffffffffffffffff169060200190929190803573ffffffffffffffffffffffffffffffffffffffff169060200190929190803573ffffffffffffffffffffffffffffffffffffffff1690602001909291908035906020019092919080359060200190929190505050613860565b005b348015610bae57600080fd5b50610c2560048036036080811015610bc557600080fd5b81019080803573ffffffffffffffffffffffffffffffffffffffff169060200190929190803573ffffffffffffffffffffffffffffffffffffffff1690602001909291908035906020019092919080359060200190929190505050613ced565b005b348015610c3357600080fd5b50610c8a60048036036060811015610c4a57600080fd5b81019080803573ffffffffffffffffffffffffffffffffffffffff1690602001909291908035906020019092919080359060200190929190505050613eea565b005b348015610c9857600080fd5b50610d1160048036036080811015610caf57600080fd5b81019080803573ffffffffffffffffffffffffffffffffffffffff169060200190929190803573ffffffffffffffffffffffffffffffffffffffff16906020019092919080359060200190929190803515159060200190929190505050613f62565b005b348015610d1f57600080fd5b50610d8060048036036080811015610d3657600080fd5b81019080803573ffffffffffffffffffffffffffffffffffffffff169060200190929190803590602001909291908035906020019092919080359060200190929190505050614284565b005b348015610d8e57600080fd5b50610e25600480360360a0811015610da557600080fd5b81019080803573ffffffffffffffffffffffffffffffffffffffff169060200190929190803573ffffffffffffffffffffffffffffffffffffffff169060200190929190803573ffffffffffffffffffffffffffffffffffffffff1690602001909291908035906020019092919080359060200190929190505050614305565b005b348015610e3357600080fd5b50610e9660048036036040811015610e4a57600080fd5b81019080803573ffffffffffffffffffffffffffffffffffffffff169060200190929190803573ffffffffffffffffffffffffffffffffffffffff16906020019092919050505061470c565b005b610efa60048036036040811015610eae57600080fd5b81019080803573ffffffffffffffffffffffffffffffffffffffff169060200190929190803573ffffffffffffffffffffffffffffffffffffffff1690602001909291905050506147a7565b005b348015610f0857600080fd5b50610fa9600480360360c0811015610f1f57600080fd5b81019080803573ffffffffffffffffffffffffffffffffffffffff169060200190929190803573ffffffffffffffffffffffffffffffffffffffff169060200190929190803573ffffffffffffffffffffffffffffffffffffffff169060200190929190803590602001909291908035906020019092919080359060200190929190505050614a4e565b005b348015610fb757600080fd5b5061101a60048036036040811015610fce57600080fd5b81019080803573ffffffffffffffffffffffffffffffffffffffff169060200190929190803573ffffffffffffffffffffffffffffffffffffffff169060200190929190505050614e10565b005b34801561102857600080fd5b5061109f6004803603608081101561103f57600080fd5b81019080803573ffffffffffffffffffffffffffffffffffffffff16906020019092919080359060200190929190803573ffffffffffffffffffffffffffffffffffffffff16906020019092919080359060200190929190505050614eab565b005b3480156110ad57600080fd5b50611144600480360360a08110156110c457600080fd5b81019080803573ffffffffffffffffffffffffffffffffffffffff169060200190929190803573ffffffffffffffffffffffffffffffffffffffff169060200190929190803573ffffffffffffffffffffffffffffffffffffffff1690602001909291908035906020019092919080359060200190929190505050614f58565b005b34801561115257600080fd5b506111f3600480360360c081101561116957600080fd5b81019080803573ffffffffffffffffffffffffffffffffffffffff169060200190929190803573ffffffffffffffffffffffffffffffffffffffff169060200190929190803573ffffffffffffffffffffffffffffffffffffffff1690602001909291908035906020019092919080359060200190929190803590602001909291905050506152c0565b005b34801561120157600080fd5b5061126e6004803603606081101561121857600080fd5b81019080803573ffffffffffffffffffffffffffffffffffffffff169060200190929190803573ffffffffffffffffffffffffffffffffffffffff169060200190929190803590602001909291905050506157a7565b005b34801561127c57600080fd5b5061133d600480360360e081101561129357600080fd5b81019080803573ffffffffffffffffffffffffffffffffffffffff169060200190929190803573ffffffffffffffffffffffffffffffffffffffff169060200190929190803573ffffffffffffffffffffffffffffffffffffffff169060200190929190803573ffffffffffffffffffffffffffffffffffffffff16906020019092919080359060200190929190803590602001909291908035906020019092919050505061584b565b604051808373ffffffffffffffffffffffffffffffffffffffff1673ffffffffffffffffffffffffffffffffffffffff1681526020018281526020019250505060405180910390f35b34801561139257600080fd5b506113ff600480360360608110156113a957600080fd5b81019080803573ffffffffffffffffffffffffffffffffffffffff169060200190929190803573ffffffffffffffffffffffffffffffffffffffff16906020019092919080359060200190929190505050615a89565b005b34801561140d57600080fd5b506114db600480360361010081101561142557600080fd5b81019080803573ffffffffffffffffffffffffffffffffffffffff169060200190929190803573ffffffffffffffffffffffffffffffffffffffff169060200190929190803573ffffffffffffffffffffffffffffffffffffffff169060200190929190803573ffffffffffffffffffffffffffffffffffffffff169060200190929190803590602001909291908035906020019092919080359060200190929190803515159060200190929190505050615da3565b005b3480156114e957600080fd5b506115b7600480360361010081101561150157600080fd5b81019080803573ffffffffffffffffffffffffffffffffffffffff169060200190929190803573ffffffffffffffffffffffffffffffffffffffff169060200190929190803573ffffffffffffffffffffffffffffffffffffffff169060200190929190803573ffffffffffffffffffffffffffffffffffffffff1690602001909291908035906020019092919080359060200190929190803590602001909291908035151590602001909291905050506161c9565b6040518082815260200191505060405180910390f35b611639600480360360608110156115e357600080fd5b81019080803573ffffffffffffffffffffffffffffffffffffffff169060200190929190803573ffffffffffffffffffffffffffffffffffffffff169060200190929190803590602001909291905050506161f4565b005b6116f1600480360360c081101561165157600080fd5b81019080803573ffffffffffffffffffffffffffffffffffffffff169060200190929190803573ffffffffffffffffffffffffffffffffffffffff169060200190929190803573ffffffffffffffffffffffffffffffffffffffff169060200190929190803573ffffffffffffffffffffffffffffffffffffffff16906020019092919080359060200190929190803590602001909291905050506164b9565b6040518082815260200191505060405180910390f35b34801561171357600080fd5b506117b6600480360360c081101561172a57600080fd5b81019080803573ffffffffffffffffffffffffffffffffffffffff169060200190929190803573ffffffffffffffffffffffffffffffffffffffff1690602001909291908035906020019092919080359060200190929190803515159060200190929190803573ffffffffffffffffffffffffffffffffffffffff1690602001909291905050506164e0565b005b3480156117c457600080fd5b50611831600480360360608110156117db57600080fd5b81019080803573ffffffffffffffffffffffffffffffffffffffff169060200190929190803573ffffffffffffffffffffffffffffffffffffffff16906020019092919080359060200190929190505050616621565b005b6118bf6004803603608081101561184957600080fd5b81019080803573ffffffffffffffffffffffffffffffffffffffff169060200190929190803573ffffffffffffffffffffffffffffffffffffffff16906020019092919080359060200190929190803573ffffffffffffffffffffffffffffffffffffffff1690602001909291905050506166c5565b005b3480156118cd57600080fd5b50611910600480360360208110156118e457600080fd5b81019080803573ffffffffffffffffffffffffffffffffffffffff169060200190929190505050616802565b604051808273ffffffffffffffffffffffffffffffffffffffff1673ffffffffffffffffffffffffffffffffffffffff16815260200191505060405180910390f35b60008373ffffffffffffffffffffffffffffffffffffffff166336569e776040518163ffffffff1660e01b815260040160206040518083038186803b15801561199a57600080fd5b505afa1580156119ae573d6000803e3d6000fd5b505050506040513d60208110156119c457600080fd5b8101908080519060200190929190505050905060008473ffffffffffffffffffffffffffffffffffffffff16632726b073846040518263ffffffff1660e01b81526004018082815260200191505060206040518083038186803b158015611a2a57600080fd5b505afa158015611a3e573d6000803e3d6000fd5b505050506040513d6020811015611a5457600080fd5b8101908080519060200190929190505050905060008573ffffffffffffffffffffffffffffffffffffffff16632c2cb9fd856040518263ffffffff1660e01b81526004018082815260200191505060206040518083038186803b158015611aba57600080fd5b505afa158015611ace573d6000803e3d6000fd5b505050506040513d6020811015611ae457600080fd5b8101908080519060200190929190505050905060008373ffffffffffffffffffffffffffffffffffffffff16632424be5c83856040518363ffffffff1660e01b8152600401808381526020018273ffffffffffffffffffffffffffffffffffffffff1673ffffffffffffffffffffffffffffffffffffffff16815260200192505050604080518083038186803b158015611b7d57600080fd5b505afa158015611b91573d6000803e3d6000fd5b505050506040513d6040811015611ba757600080fd5b81019080805190602001909291908051906020019092919050505091505060008773ffffffffffffffffffffffffffffffffffffffff16638161b120876040518263ffffffff1660e01b81526004018082815260200191505060206040518083038186803b158015611c1857600080fd5b505afa158015611c2c573d6000803e3d6000fd5b505050506040513d6020811015611c4257600080fd5b810190808051906020019092919050505090503073ffffffffffffffffffffffffffffffffffffffff168173ffffffffffffffffffffffffffffffffffffffff161480611d82575060018873ffffffffffffffffffffffffffffffffffffffff16635aebb4608389306040518463ffffffff1660e01b8152600401808473ffffffffffffffffffffffffffffffffffffffff1673ffffffffffffffffffffffffffffffffffffffff1681526020018381526020018273ffffffffffffffffffffffffffffffffffffffff1673ffffffffffffffffffffffffffffffffffffffff168152602001935050505060206040518083038186803b158015611d4557600080fd5b505afa158015611d59573d6000803e3d6000fd5b505050506040513d6020811015611d6f57600080fd5b8101908080519060200190929190505050145b15611db257611d9d8785611d98888889896168c5565b615a89565b611dad8887600085600003614284565b611ee4565b611dc88730611dc3883089896168c5565b615a89565b8473ffffffffffffffffffffffffffffffffffffffff166376088703848630306000886000036040518763ffffffff1660e01b8152600401808781526020018673ffffffffffffffffffffffffffffffffffffffff1673ffffffffffffffffffffffffffffffffffffffff1681526020018573ffffffffffffffffffffffffffffffffffffffff1673ffffffffffffffffffffffffffffffffffffffff1681526020018473ffffffffffffffffffffffffffffffffffffffff1673ffffffffffffffffffffffffffffffffffffffff1681526020018381526020018281526020019650505050505050600060405180830381600087803b158015611ecb57600080fd5b505af1158015611edf573d6000803e3d6000fd5b505050505b5050505050505050565b611efa84833084612210565b8273ffffffffffffffffffffffffffffffffffffffff1663ef693bed30836040518363ffffffff1660e01b8152600401808373ffffffffffffffffffffffffffffffffffffffff1673ffffffffffffffffffffffffffffffffffffffff16815260200182815260200192505050600060405180830381600087803b158015611f8157600080fd5b505af1158015611f95573d6000803e3d6000fd5b505050508273ffffffffffffffffffffffffffffffffffffffff16637bd2bea76040518163ffffffff1660e01b8152600401602060405180830381600087803b158015611fe157600080fd5b505af1158015611ff5573d6000803e3d6000fd5b505050506040513d602081101561200b57600080fd5b810190808051906020019092919050505073ffffffffffffffffffffffffffffffffffffffff16632e1a7d4d826040518263ffffffff1660e01b815260040180828152602001915050600060405180830381600087803b15801561206e57600080fd5b505af1158015612082573d6000803e3d6000fd5b505050503373ffffffffffffffffffffffffffffffffffffffff166108fc829081150290604051600060405180830381858888f193505050501580156120cc573d6000803e3d6000fd5b5050505050565b8073ffffffffffffffffffffffffffffffffffffffff168473ffffffffffffffffffffffffffffffffffffffff16638161b120846040518263ffffffff1660e01b81526004018082815260200191505060206040518083038186803b15801561213b57600080fd5b505afa15801561214f573d6000803e3d6000fd5b505050506040513d602081101561216557600080fd5b810190808051906020019092919050505073ffffffffffffffffffffffffffffffffffffffff16146121ff576040517f08c379a000000000000000000000000000000000000000000000000000000000815260040180806020018281038252600f8152602001807f6f776e65722d6d6973736d61746368000000000000000000000000000000000081525060200191505060405180910390fd5b61220a848484611952565b50505050565b8373ffffffffffffffffffffffffffffffffffffffff16639bb8f8388484846040518463ffffffff1660e01b8152600401808481526020018373ffffffffffffffffffffffffffffffffffffffff1673ffffffffffffffffffffffffffffffffffffffff1681526020018281526020019350505050600060405180830381600087803b15801561229f57600080fd5b505af11580156122b3573d6000803e3d6000fd5b5050505050505050565b60008673ffffffffffffffffffffffffffffffffffffffff16632726b073846040518263ffffffff1660e01b81526004018082815260200191505060206040518083038186803b15801561231057600080fd5b505afa158015612324573d6000803e3d6000fd5b505050506040513d602081101561233a57600080fd5b8101908080519060200190929190505050905060008773ffffffffffffffffffffffffffffffffffffffff166336569e776040518163ffffffff1660e01b815260040160206040518083038186803b15801561239557600080fd5b505afa1580156123a9573d6000803e3d6000fd5b505050506040513d60208110156123bf57600080fd5b8101908080519060200190929190505050905060008873ffffffffffffffffffffffffffffffffffffffff16632c2cb9fd866040518263ffffffff1660e01b81526004018082815260200191505060206040518083038186803b15801561242557600080fd5b505afa158015612439573d6000803e3d6000fd5b505050506040513d602081101561244f57600080fd5b8101908080519060200190929190505050905061246c87846147a7565b61248c898661247a34616b70565b612487868d89888c616bf1565b614284565b6124a089863061249b88616dcd565b61277a565b60008273ffffffffffffffffffffffffffffffffffffffff16634538c4eb30896040518363ffffffff1660e01b8152600401808373ffffffffffffffffffffffffffffffffffffffff1673ffffffffffffffffffffffffffffffffffffffff1681526020018273ffffffffffffffffffffffffffffffffffffffff1673ffffffffffffffffffffffffffffffffffffffff1681526020019250505060206040518083038186803b15801561255357600080fd5b505afa158015612567573d6000803e3d6000fd5b505050506040513d602081101561257d57600080fd5b8101908080519060200190929190505050141561262c578173ffffffffffffffffffffffffffffffffffffffff1663a3b22fc4876040518263ffffffff1660e01b8152600401808273ffffffffffffffffffffffffffffffffffffffff1673ffffffffffffffffffffffffffffffffffffffff168152602001915050600060405180830381600087803b15801561261357600080fd5b505af1158015612627573d6000803e3d6000fd5b505050505b8573ffffffffffffffffffffffffffffffffffffffff1663ef693bed33866040518363ffffffff1660e01b8152600401808373ffffffffffffffffffffffffffffffffffffffff1673ffffffffffffffffffffffffffffffffffffffff16815260200182815260200192505050600060405180830381600087803b1580156126b357600080fd5b505af11580156126c7573d6000803e3d6000fd5b50505050505050505050505050565b8273ffffffffffffffffffffffffffffffffffffffff1663fcafcc6883836040518363ffffffff1660e01b8152600401808381526020018273ffffffffffffffffffffffffffffffffffffffff1673ffffffffffffffffffffffffffffffffffffffff16815260200192505050600060405180830381600087803b15801561275d57600080fd5b505af1158015612771573d6000803e3d6000fd5b50505050505050565b8373ffffffffffffffffffffffffffffffffffffffff1663f9f30db68484846040518463ffffffff1660e01b8152600401808481526020018373ffffffffffffffffffffffffffffffffffffffff1673ffffffffffffffffffffffffffffffffffffffff1681526020018281526020019350505050600060405180830381600087803b15801561280957600080fd5b505af115801561281d573d6000803e3d6000fd5b5050505050505050565b8073ffffffffffffffffffffffffffffffffffffffff168573ffffffffffffffffffffffffffffffffffffffff16638161b120856040518263ffffffff1660e01b81526004018082815260200191505060206040518083038186803b15801561288f57600080fd5b505afa1580156128a3573d6000803e3d6000fd5b505050506040513d60208110156128b957600080fd5b810190808051906020019092919050505073ffffffffffffffffffffffffffffffffffffffff1614612953576040517f08c379a000000000000000000000000000000000000000000000000000000000815260040180806020018281038252600f8152602001807f6f776e65722d6d6973736d61746368000000000000000000000000000000000081525060200191505060405180910390fd5b61295f8585858561308a565b5050505050565b61297284308484613f62565b8473ffffffffffffffffffffffffffffffffffffffff166336569e776040518163ffffffff1660e01b815260040160206040518083038186803b1580156129b857600080fd5b505afa1580156129cc573d6000803e3d6000fd5b505050506040513d60208110156129e257600080fd5b810190808051906020019092919050505073ffffffffffffffffffffffffffffffffffffffff1663760887038673ffffffffffffffffffffffffffffffffffffffff16632c2cb9fd866040518263ffffffff1660e01b81526004018082815260200191505060206040518083038186803b158015612a5f57600080fd5b505afa158015612a73573d6000803e3d6000fd5b505050506040513d6020811015612a8957600080fd5b81019080805190602001909291905050508773ffffffffffffffffffffffffffffffffffffffff16632726b073876040518263ffffffff1660e01b81526004018082815260200191505060206040518083038186803b158015612aeb57600080fd5b505afa158015612aff573d6000803e3d6000fd5b505050506040513d6020811015612b1557600080fd5b81019080805190602001909291905050503030612b3a612b358b8a616dec565b616b70565b60006040518763ffffffff1660e01b8152600401808781526020018673ffffffffffffffffffffffffffffffffffffffff1673ffffffffffffffffffffffffffffffffffffffff1681526020018573ffffffffffffffffffffffffffffffffffffffff1673ffffffffffffffffffffffffffffffffffffffff1681526020018473ffffffffffffffffffffffffffffffffffffffff1673ffffffffffffffffffffffffffffffffffffffff1681526020018381526020018281526020019650505050505050600060405180830381600087803b158015612c1957600080fd5b505af1158015612c2d573d6000803e3d6000fd5b505050505050505050565b612c4d848330612c488786616dec565b612210565b8273ffffffffffffffffffffffffffffffffffffffff1663ef693bed33836040518363ffffffff1660e01b8152600401808373ffffffffffffffffffffffffffffffffffffffff1673ffffffffffffffffffffffffffffffffffffffff16815260200182815260200192505050600060405180830381600087803b158015612cd457600080fd5b505af1158015612ce8573d6000803e3d6000fd5b5050505050505050565b8273ffffffffffffffffffffffffffffffffffffffff16631b0dbf7283836040518363ffffffff1660e01b8152600401808381526020018273ffffffffffffffffffffffffffffffffffffffff1673ffffffffffffffffffffffffffffffffffffffff16815260200192505050600060405180830381600087803b158015612d7957600080fd5b505af1158015612d8d573d6000803e3d6000fd5b50505050505050565b60008473ffffffffffffffffffffffffffffffffffffffff1663c4552791836040518263ffffffff1660e01b8152600401808273ffffffffffffffffffffffffffffffffffffffff1673ffffffffffffffffffffffffffffffffffffffff16815260200191505060206040518083038186803b158015612e1557600080fd5b505afa158015612e29573d6000803e3d6000fd5b505050506040513d6020811015612e3f57600080fd5b81019080805190602001909291905050509050600073ffffffffffffffffffffffffffffffffffffffff168173ffffffffffffffffffffffffffffffffffffffff161480612f3957508173ffffffffffffffffffffffffffffffffffffffff168173ffffffffffffffffffffffffffffffffffffffff16638da5cb5b6040518163ffffffff1660e01b815260040160206040518083038186803b158015612ee557600080fd5b505afa158015612ef9573d6000803e3d6000fd5b505050506040513d6020811015612f0f57600080fd5b810190808051906020019092919050505073ffffffffffffffffffffffffffffffffffffffff1614155b15613078576000823b905060008114612fba576040517f08c379a00000000000000000000000000000000000000000000000000000000081526004018080602001828103825260118152602001807f4473742d69732d612d636f6e747261637400000000000000000000000000000081525060200191505060405180910390fd5b8573ffffffffffffffffffffffffffffffffffffffff1663f3701da2846040518263ffffffff1660e01b8152600401808273ffffffffffffffffffffffffffffffffffffffff1673ffffffffffffffffffffffffffffffffffffffff168152602001915050602060405180830381600087803b15801561303957600080fd5b505af115801561304d573d6000803e3d6000fd5b505050506040513d602081101561306357600080fd5b81019080805190602001909291905050509150505b6130838484836126d6565b5050505050565b60008473ffffffffffffffffffffffffffffffffffffffff166336569e776040518163ffffffff1660e01b815260040160206040518083038186803b1580156130d257600080fd5b505afa1580156130e6573d6000803e3d6000fd5b505050506040513d60208110156130fc57600080fd5b8101908080519060200190929190505050905060008573ffffffffffffffffffffffffffffffffffffffff16632726b073856040518263ffffffff1660e01b81526004018082815260200191505060206040518083038186803b15801561316257600080fd5b505afa158015613176573d6000803e3d6000fd5b505050506040513d602081101561318c57600080fd5b8101908080519060200190929190505050905060008673ffffffffffffffffffffffffffffffffffffffff16632c2cb9fd866040518263ffffffff1660e01b81526004018082815260200191505060206040518083038186803b1580156131f257600080fd5b505afa158015613206573d6000803e3d6000fd5b505050506040513d602081101561321c57600080fd5b8101908080519060200190929190505050905060008773ffffffffffffffffffffffffffffffffffffffff16638161b120876040518263ffffffff1660e01b81526004018082815260200191505060206040518083038186803b15801561328257600080fd5b505afa158015613296573d6000803e3d6000fd5b505050506040513d60208110156132ac57600080fd5b810190808051906020019092919050505090503073ffffffffffffffffffffffffffffffffffffffff168173ffffffffffffffffffffffffffffffffffffffff1614806133ec575060018873ffffffffffffffffffffffffffffffffffffffff16635aebb4608389306040518463ffffffff1660e01b8152600401808473ffffffffffffffffffffffffffffffffffffffff1673ffffffffffffffffffffffffffffffffffffffff1681526020018381526020018273ffffffffffffffffffffffffffffffffffffffff1673ffffffffffffffffffffffffffffffffffffffff168152602001935050505060206040518083038186803b1580156133af57600080fd5b505afa1580156133c3573d6000803e3d6000fd5b505050506040513d60208110156133d957600080fd5b8101908080519060200190929190505050145b156134d0576133fc878487615a89565b6134cb888760006134c6888973ffffffffffffffffffffffffffffffffffffffff16636c25b3468a6040518263ffffffff1660e01b8152600401808273ffffffffffffffffffffffffffffffffffffffff1673ffffffffffffffffffffffffffffffffffffffff16815260200191505060206040518083038186803b15801561348457600080fd5b505afa158015613498573d6000803e3d6000fd5b505050506040513d60208110156134ae57600080fd5b81019080805190602001909291905050508989616e88565b614284565b61360d565b6134db873087615a89565b8373ffffffffffffffffffffffffffffffffffffffff1663760887038385303060006135178b6b033b2e3c9fd0803ce80000008e028c8c616e88565b6040518763ffffffff1660e01b8152600401808781526020018673ffffffffffffffffffffffffffffffffffffffff1673ffffffffffffffffffffffffffffffffffffffff1681526020018573ffffffffffffffffffffffffffffffffffffffff1673ffffffffffffffffffffffffffffffffffffffff1681526020018473ffffffffffffffffffffffffffffffffffffffff1673ffffffffffffffffffffffffffffffffffffffff1681526020018381526020018281526020019650505050505050600060405180830381600087803b1580156135f457600080fd5b505af1158015613608573d6000803e3d6000fd5b505050505b5050505050505050565b8273ffffffffffffffffffffffffffffffffffffffff1663b68f400483836040518363ffffffff1660e01b8152600401808373ffffffffffffffffffffffffffffffffffffffff1673ffffffffffffffffffffffffffffffffffffffff16815260200182815260200192505050600060405180830381600087803b15801561369e57600080fd5b505af11580156136b2573d6000803e3d6000fd5b50505050505050565b60008373ffffffffffffffffffffffffffffffffffffffff16636090dec584846040518363ffffffff1660e01b8152600401808381526020018273ffffffffffffffffffffffffffffffffffffffff1673ffffffffffffffffffffffffffffffffffffffff16815260200192505050602060405180830381600087803b15801561374457600080fd5b505af1158015613758573d6000803e3d6000fd5b505050506040513d602081101561376e57600080fd5b810190808051906020019092919050505090509392505050565b60006137948483616dec565b90506137ae85846137a484616b70565b6000036000614284565b6137ba85843084612210565b8373ffffffffffffffffffffffffffffffffffffffff1663ef693bed33846040518363ffffffff1660e01b8152600401808373ffffffffffffffffffffffffffffffffffffffff1673ffffffffffffffffffffffffffffffffffffffff16815260200182815260200192505050600060405180830381600087803b15801561384157600080fd5b505af1158015613855573d6000803e3d6000fd5b505050505050505050565b60008573ffffffffffffffffffffffffffffffffffffffff166336569e776040518163ffffffff1660e01b815260040160206040518083038186803b1580156138a857600080fd5b505afa1580156138bc573d6000803e3d6000fd5b505050506040513d60208110156138d257600080fd5b8101908080519060200190929190505050905060008673ffffffffffffffffffffffffffffffffffffffff16632726b073856040518263ffffffff1660e01b81526004018082815260200191505060206040518083038186803b15801561393857600080fd5b505afa15801561394c573d6000803e3d6000fd5b505050506040513d602081101561396257600080fd5b8101908080519060200190929190505050905060008773ffffffffffffffffffffffffffffffffffffffff16632c2cb9fd866040518263ffffffff1660e01b81526004018082815260200191505060206040518083038186803b1580156139c857600080fd5b505afa1580156139dc573d6000803e3d6000fd5b505050506040513d60208110156139f257600080fd5b8101908080519060200190929190505050905060008373ffffffffffffffffffffffffffffffffffffffff16632424be5c83856040518363ffffffff1660e01b8152600401808381526020018273ffffffffffffffffffffffffffffffffffffffff1673ffffffffffffffffffffffffffffffffffffffff16815260200192505050604080518083038186803b158015613a8b57600080fd5b505afa158015613a9f573d6000803e3d6000fd5b505050506040513d6040811015613ab557600080fd5b810190808051906020019092919080519060200190929190505050915050613ae98784613ae4878788886168c5565b615a89565b613b038987613af788616b70565b60000384600003614284565b613b0f89873088612210565b8773ffffffffffffffffffffffffffffffffffffffff1663ef693bed30876040518363ffffffff1660e01b8152600401808373ffffffffffffffffffffffffffffffffffffffff1673ffffffffffffffffffffffffffffffffffffffff16815260200182815260200192505050600060405180830381600087803b158015613b9657600080fd5b505af1158015613baa573d6000803e3d6000fd5b505050508773ffffffffffffffffffffffffffffffffffffffff16637bd2bea76040518163ffffffff1660e01b8152600401602060405180830381600087803b158015613bf657600080fd5b505af1158015613c0a573d6000803e3d6000fd5b505050506040513d6020811015613c2057600080fd5b810190808051906020019092919050505073ffffffffffffffffffffffffffffffffffffffff16632e1a7d4d866040518263ffffffff1660e01b815260040180828152602001915050600060405180830381600087803b158015613c8357600080fd5b505af1158015613c97573d6000803e3d6000fd5b505050503373ffffffffffffffffffffffffffffffffffffffff166108fc869081150290604051600060405180830381858888f19350505050158015613ce1573d6000803e3d6000fd5b50505050505050505050565b613d058483613cfb84616b70565b6000036000614284565b613d1184833084612210565b8273ffffffffffffffffffffffffffffffffffffffff1663ef693bed30836040518363ffffffff1660e01b8152600401808373ffffffffffffffffffffffffffffffffffffffff1673ffffffffffffffffffffffffffffffffffffffff16815260200182815260200192505050600060405180830381600087803b158015613d9857600080fd5b505af1158015613dac573d6000803e3d6000fd5b505050508273ffffffffffffffffffffffffffffffffffffffff16637bd2bea76040518163ffffffff1660e01b8152600401602060405180830381600087803b158015613df857600080fd5b505af1158015613e0c573d6000803e3d6000fd5b505050506040513d6020811015613e2257600080fd5b810190808051906020019092919050505073ffffffffffffffffffffffffffffffffffffffff16632e1a7d4d826040518263ffffffff1660e01b815260040180828152602001915050600060405180830381600087803b158015613e8557600080fd5b505af1158015613e99573d6000803e3d6000fd5b505050503373ffffffffffffffffffffffffffffffffffffffff166108fc829081150290604051600060405180830381858888f19350505050158015613ee3573d6000803e3d6000fd5b5050505050565b8273ffffffffffffffffffffffffffffffffffffffff1663e50322a283836040518363ffffffff1660e01b81526004018083815260200182815260200192505050600060405180830381600087803b158015613f4557600080fd5b505af1158015613f59573d6000803e3d6000fd5b50505050505050565b80156141df578373ffffffffffffffffffffffffffffffffffffffff16637bd2bea76040518163ffffffff1660e01b8152600401602060405180830381600087803b158015613fb057600080fd5b505af1158015613fc4573d6000803e3d6000fd5b505050506040513d6020811015613fda57600080fd5b810190808051906020019092919050505073ffffffffffffffffffffffffffffffffffffffff166323b872dd3330856040518463ffffffff1660e01b8152600401808473ffffffffffffffffffffffffffffffffffffffff1673ffffffffffffffffffffffffffffffffffffffff1681526020018373ffffffffffffffffffffffffffffffffffffffff1673ffffffffffffffffffffffffffffffffffffffff1681526020018281526020019350505050600060405180830381600087803b1580156140a557600080fd5b505af11580156140b9573d6000803e3d6000fd5b505050508373ffffffffffffffffffffffffffffffffffffffff16637bd2bea76040518163ffffffff1660e01b8152600401602060405180830381600087803b15801561410557600080fd5b505af1158015614119573d6000803e3d6000fd5b505050506040513d602081101561412f57600080fd5b810190808051906020019092919050505073ffffffffffffffffffffffffffffffffffffffff1663095ea7b385846040518363ffffffff1660e01b8152600401808373ffffffffffffffffffffffffffffffffffffffff1673ffffffffffffffffffffffffffffffffffffffff16815260200182815260200192505050600060405180830381600087803b1580156141c657600080fd5b505af11580156141da573d6000803e3d6000fd5b505050505b8373ffffffffffffffffffffffffffffffffffffffff16633b4da69f84846040518363ffffffff1660e01b8152600401808373ffffffffffffffffffffffffffffffffffffffff1673ffffffffffffffffffffffffffffffffffffffff16815260200182815260200192505050600060405180830381600087803b15801561426657600080fd5b505af115801561427a573d6000803e3d6000fd5b5050505050505050565b8373ffffffffffffffffffffffffffffffffffffffff166345e6bdcd8484846040518463ffffffff1660e01b8152600401808481526020018381526020018281526020019350505050600060405180830381600087803b1580156142e757600080fd5b505af11580156142fb573d6000803e3d6000fd5b5050505050505050565b60008573ffffffffffffffffffffffffffffffffffffffff16632726b073846040518263ffffffff1660e01b81526004018082815260200191505060206040518083038186803b15801561435857600080fd5b505afa15801561436c573d6000803e3d6000fd5b505050506040513d602081101561438257600080fd5b8101908080519060200190929190505050905060008673ffffffffffffffffffffffffffffffffffffffff166336569e776040518163ffffffff1660e01b815260040160206040518083038186803b1580156143dd57600080fd5b505afa1580156143f1573d6000803e3d6000fd5b505050506040513d602081101561440757600080fd5b8101908080519060200190929190505050905060008773ffffffffffffffffffffffffffffffffffffffff16632c2cb9fd866040518263ffffffff1660e01b81526004018082815260200191505060206040518083038186803b15801561446d57600080fd5b505afa158015614481573d6000803e3d6000fd5b505050506040513d602081101561449757600080fd5b810190808051906020019092919050505090506144c3888660006144be868c89888c616bf1565b614284565b6144d78886306144d288616dcd565b61277a565b60008273ffffffffffffffffffffffffffffffffffffffff16634538c4eb30896040518363ffffffff1660e01b8152600401808373ffffffffffffffffffffffffffffffffffffffff1673ffffffffffffffffffffffffffffffffffffffff1681526020018273ffffffffffffffffffffffffffffffffffffffff1673ffffffffffffffffffffffffffffffffffffffff1681526020019250505060206040518083038186803b15801561458a57600080fd5b505afa15801561459e573d6000803e3d6000fd5b505050506040513d60208110156145b457600080fd5b81019080805190602001909291905050501415614663578173ffffffffffffffffffffffffffffffffffffffff1663a3b22fc4876040518263ffffffff1660e01b8152600401808273ffffffffffffffffffffffffffffffffffffffff1673ffffffffffffffffffffffffffffffffffffffff168152602001915050600060405180830381600087803b15801561464a57600080fd5b505af115801561465e573d6000803e3d6000fd5b505050505b8573ffffffffffffffffffffffffffffffffffffffff1663ef693bed33866040518363ffffffff1660e01b8152600401808373ffffffffffffffffffffffffffffffffffffffff1673ffffffffffffffffffffffffffffffffffffffff16815260200182815260200192505050600060405180830381600087803b1580156146ea57600080fd5b505af11580156146fe573d6000803e3d6000fd5b505050505050505050505050565b8173ffffffffffffffffffffffffffffffffffffffff1663dc4d20fa826040518263ffffffff1660e01b8152600401808273ffffffffffffffffffffffffffffffffffffffff1673ffffffffffffffffffffffffffffffffffffffff168152602001915050600060405180830381600087803b15801561478b57600080fd5b505af115801561479f573d6000803e3d6000fd5b505050505050565b8173ffffffffffffffffffffffffffffffffffffffff16637bd2bea76040518163ffffffff1660e01b8152600401602060405180830381600087803b1580156147ef57600080fd5b505af1158015614803573d6000803e3d6000fd5b505050506040513d602081101561481957600080fd5b810190808051906020019092919050505073ffffffffffffffffffffffffffffffffffffffff1663d0e30db0346040518263ffffffff1660e01b81526004016000604051808303818588803b15801561487157600080fd5b505af1158015614885573d6000803e3d6000fd5b50505050508173ffffffffffffffffffffffffffffffffffffffff16637bd2bea76040518163ffffffff1660e01b8152600401602060405180830381600087803b1580156148d257600080fd5b505af11580156148e6573d6000803e3d6000fd5b505050506040513d60208110156148fc57600080fd5b810190808051906020019092919050505073ffffffffffffffffffffffffffffffffffffffff1663095ea7b383346040518363ffffffff1660e01b8152600401808373ffffffffffffffffffffffffffffffffffffffff1673ffffffffffffffffffffffffffffffffffffffff16815260200182815260200192505050600060405180830381600087803b15801561499357600080fd5b505af11580156149a7573d6000803e3d6000fd5b505050508173ffffffffffffffffffffffffffffffffffffffff16633b4da69f82346040518363ffffffff1660e01b8152600401808373ffffffffffffffffffffffffffffffffffffffff1673ffffffffffffffffffffffffffffffffffffffff16815260200182815260200192505050600060405180830381600087803b158015614a3257600080fd5b505af1158015614a46573d6000803e3d6000fd5b505050505050565b60008673ffffffffffffffffffffffffffffffffffffffff16632726b073856040518263ffffffff1660e01b81526004018082815260200191505060206040518083038186803b158015614aa157600080fd5b505afa158015614ab5573d6000803e3d6000fd5b505050506040513d6020811015614acb57600080fd5b81019080805190602001909291905050509050614ae9858284615a89565b6000614af58785616dec565b9050614d5b8886614b0584616b70565b600003614d568c73ffffffffffffffffffffffffffffffffffffffff166336569e776040518163ffffffff1660e01b815260040160206040518083038186803b158015614b5157600080fd5b505afa158015614b65573d6000803e3d6000fd5b505050506040513d6020811015614b7b57600080fd5b81019080805190602001909291905050508d73ffffffffffffffffffffffffffffffffffffffff166336569e776040518163ffffffff1660e01b815260040160206040518083038186803b158015614bd257600080fd5b505afa158015614be6573d6000803e3d6000fd5b505050506040513d6020811015614bfc57600080fd5b810190808051906020019092919050505073ffffffffffffffffffffffffffffffffffffffff16636c25b346896040518263ffffffff1660e01b8152600401808273ffffffffffffffffffffffffffffffffffffffff1673ffffffffffffffffffffffffffffffffffffffff16815260200191505060206040518083038186803b158015614c8957600080fd5b505afa158015614c9d573d6000803e3d6000fd5b505050506040513d6020811015614cb357600080fd5b8101908080519060200190929190505050888f73ffffffffffffffffffffffffffffffffffffffff16632c2cb9fd8e6040518263ffffffff1660e01b81526004018082815260200191505060206040518083038186803b158015614d1657600080fd5b505afa158015614d2a573d6000803e3d6000fd5b505050506040513d6020811015614d4057600080fd5b8101908080519060200190929190505050616e88565b614284565b614d6788863084612210565b8673ffffffffffffffffffffffffffffffffffffffff1663ef693bed33866040518363ffffffff1660e01b8152600401808373ffffffffffffffffffffffffffffffffffffffff1673ffffffffffffffffffffffffffffffffffffffff16815260200182815260200192505050600060405180830381600087803b158015614dee57600080fd5b505af1158015614e02573d6000803e3d6000fd5b505050505050505050505050565b8173ffffffffffffffffffffffffffffffffffffffff1663a3b22fc4826040518263ffffffff1660e01b8152600401808273ffffffffffffffffffffffffffffffffffffffff1673ffffffffffffffffffffffffffffffffffffffff168152602001915050600060405180830381600087803b158015614e8f57600080fd5b505af1158015614ea3573d6000803e3d6000fd5b505050505050565b8373ffffffffffffffffffffffffffffffffffffffff16630b63fb628484846040518463ffffffff1660e01b8152600401808481526020018373ffffffffffffffffffffffffffffffffffffffff1673ffffffffffffffffffffffffffffffffffffffff1681526020018281526020019350505050600060405180830381600087803b158015614f3a57600080fd5b505af1158015614f4e573d6000803e3d6000fd5b5050505050505050565b60008573ffffffffffffffffffffffffffffffffffffffff166336569e776040518163ffffffff1660e01b815260040160206040518083038186803b158015614fa057600080fd5b505afa158015614fb4573d6000803e3d6000fd5b505050506040513d6020811015614fca57600080fd5b8101908080519060200190929190505050905060008673ffffffffffffffffffffffffffffffffffffffff16632726b073856040518263ffffffff1660e01b81526004018082815260200191505060206040518083038186803b15801561503057600080fd5b505afa158015615044573d6000803e3d6000fd5b505050506040513d602081101561505a57600080fd5b8101908080519060200190929190505050905060008773ffffffffffffffffffffffffffffffffffffffff16632c2cb9fd866040518263ffffffff1660e01b81526004018082815260200191505060206040518083038186803b1580156150c057600080fd5b505afa1580156150d4573d6000803e3d6000fd5b505050506040513d60208110156150ea57600080fd5b8101908080519060200190929190505050905060008373ffffffffffffffffffffffffffffffffffffffff16632424be5c83856040518363ffffffff1660e01b8152600401808381526020018273ffffffffffffffffffffffffffffffffffffffff1673ffffffffffffffffffffffffffffffffffffffff16815260200192505050604080518083038186803b15801561518357600080fd5b505afa158015615197573d6000803e3d6000fd5b505050506040513d60408110156151ad57600080fd5b8101908080519060200190929190805190602001909291905050509150506151e187846151dc878788886168c5565b615a89565b60006151ed8987616dec565b90506152098a886151fd84616b70565b60000385600003614284565b6152158a883084612210565b8873ffffffffffffffffffffffffffffffffffffffff1663ef693bed33886040518363ffffffff1660e01b8152600401808373ffffffffffffffffffffffffffffffffffffffff1673ffffffffffffffffffffffffffffffffffffffff16815260200182815260200192505050600060405180830381600087803b15801561529c57600080fd5b505af11580156152b0573d6000803e3d6000fd5b5050505050505050505050505050565b60008673ffffffffffffffffffffffffffffffffffffffff16632726b073856040518263ffffffff1660e01b81526004018082815260200191505060206040518083038186803b15801561531357600080fd5b505afa158015615327573d6000803e3d6000fd5b505050506040513d602081101561533d57600080fd5b8101908080519060200190929190505050905061535b858284615a89565b6155bf878561536986616b70565b6000036155ba8b73ffffffffffffffffffffffffffffffffffffffff166336569e776040518163ffffffff1660e01b815260040160206040518083038186803b1580156153b557600080fd5b505afa1580156153c9573d6000803e3d6000fd5b505050506040513d60208110156153df57600080fd5b81019080805190602001909291905050508c73ffffffffffffffffffffffffffffffffffffffff166336569e776040518163ffffffff1660e01b815260040160206040518083038186803b15801561543657600080fd5b505afa15801561544a573d6000803e3d6000fd5b505050506040513d602081101561546057600080fd5b810190808051906020019092919050505073ffffffffffffffffffffffffffffffffffffffff16636c25b346886040518263ffffffff1660e01b8152600401808273ffffffffffffffffffffffffffffffffffffffff1673ffffffffffffffffffffffffffffffffffffffff16815260200191505060206040518083038186803b1580156154ed57600080fd5b505afa158015615501573d6000803e3d6000fd5b505050506040513d602081101561551757600080fd5b8101908080519060200190929190505050878e73ffffffffffffffffffffffffffffffffffffffff16632c2cb9fd8d6040518263ffffffff1660e01b81526004018082815260200191505060206040518083038186803b15801561557a57600080fd5b505afa15801561558e573d6000803e3d6000fd5b505050506040513d60208110156155a457600080fd5b8101908080519060200190929190505050616e88565b614284565b6155cb87853086612210565b8573ffffffffffffffffffffffffffffffffffffffff1663ef693bed30856040518363ffffffff1660e01b8152600401808373ffffffffffffffffffffffffffffffffffffffff1673ffffffffffffffffffffffffffffffffffffffff16815260200182815260200192505050600060405180830381600087803b15801561565257600080fd5b505af1158015615666573d6000803e3d6000fd5b505050508573ffffffffffffffffffffffffffffffffffffffff16637bd2bea76040518163ffffffff1660e01b8152600401602060405180830381600087803b1580156156b257600080fd5b505af11580156156c6573d6000803e3d6000fd5b505050506040513d60208110156156dc57600080fd5b810190808051906020019092919050505073ffffffffffffffffffffffffffffffffffffffff16632e1a7d4d846040518263ffffffff1660e01b815260040180828152602001915050600060405180830381600087803b15801561573f57600080fd5b505af1158015615753573d6000803e3d6000fd5b505050503373ffffffffffffffffffffffffffffffffffffffff166108fc849081150290604051600060405180830381858888f1935050505015801561579d573d6000803e3d6000fd5b5050505050505050565b8273ffffffffffffffffffffffffffffffffffffffff1663a9059cbb83836040518363ffffffff1660e01b8152600401808373ffffffffffffffffffffffffffffffffffffffff1673ffffffffffffffffffffffffffffffffffffffff16815260200182815260200192505050600060405180830381600087803b15801561582e57600080fd5b505af1158015615842573d6000803e3d6000fd5b50505050505050565b6000808673ffffffffffffffffffffffffffffffffffffffff16638c4c2801306040518263ffffffff1660e01b8152600401808273ffffffffffffffffffffffffffffffffffffffff1673ffffffffffffffffffffffffffffffffffffffff16815260200191505060206040518083038186803b1580156158cb57600080fd5b505afa1580156158df573d6000803e3d6000fd5b505050506040513d60208110156158f557600080fd5b81019080805190602001909291905050509150600073ffffffffffffffffffffffffffffffffffffffff168273ffffffffffffffffffffffffffffffffffffffff1614156159495761594687616802565b91505b8673ffffffffffffffffffffffffffffffffffffffff16637bd2bea76040518163ffffffff1660e01b8152600401602060405180830381600087803b15801561599157600080fd5b505af11580156159a5573d6000803e3d6000fd5b505050506040513d60208110156159bb57600080fd5b810190808051906020019092919050505073ffffffffffffffffffffffffffffffffffffffff1663a9059cbb83866040518363ffffffff1660e01b8152600401808373ffffffffffffffffffffffffffffffffffffffff1673ffffffffffffffffffffffffffffffffffffffff16815260200182815260200192505050600060405180830381600087803b158015615a5257600080fd5b505af1158015615a66573d6000803e3d6000fd5b50505050615a7b8989898989898960006161c9565b905097509795505050505050565b8273ffffffffffffffffffffffffffffffffffffffff1663f4b9fa756040518163ffffffff1660e01b8152600401602060405180830381600087803b158015615ad157600080fd5b505af1158015615ae5573d6000803e3d6000fd5b505050506040513d6020811015615afb57600080fd5b810190808051906020019092919050505073ffffffffffffffffffffffffffffffffffffffff166323b872dd3330846040518463ffffffff1660e01b8152600401808473ffffffffffffffffffffffffffffffffffffffff1673ffffffffffffffffffffffffffffffffffffffff1681526020018373ffffffffffffffffffffffffffffffffffffffff1673ffffffffffffffffffffffffffffffffffffffff1681526020018281526020019350505050600060405180830381600087803b158015615bc657600080fd5b505af1158015615bda573d6000803e3d6000fd5b505050508273ffffffffffffffffffffffffffffffffffffffff1663f4b9fa756040518163ffffffff1660e01b8152600401602060405180830381600087803b158015615c2657600080fd5b505af1158015615c3a573d6000803e3d6000fd5b505050506040513d6020811015615c5057600080fd5b810190808051906020019092919050505073ffffffffffffffffffffffffffffffffffffffff1663095ea7b384836040518363ffffffff1660e01b8152600401808373ffffffffffffffffffffffffffffffffffffffff1673ffffffffffffffffffffffffffffffffffffffff16815260200182815260200192505050600060405180830381600087803b158015615ce757600080fd5b505af1158015615cfb573d6000803e3d6000fd5b505050508273ffffffffffffffffffffffffffffffffffffffff16633b4da69f83836040518363ffffffff1660e01b8152600401808373ffffffffffffffffffffffffffffffffffffffff1673ffffffffffffffffffffffffffffffffffffffff16815260200182815260200192505050600060405180830381600087803b158015615d8657600080fd5b505af1158015615d9a573d6000803e3d6000fd5b50505050505050565b60008873ffffffffffffffffffffffffffffffffffffffff16632726b073866040518263ffffffff1660e01b81526004018082815260200191505060206040518083038186803b158015615df657600080fd5b505afa158015615e0a573d6000803e3d6000fd5b505050506040513d6020811015615e2057600080fd5b8101908080519060200190929190505050905060008973ffffffffffffffffffffffffffffffffffffffff166336569e776040518163ffffffff1660e01b815260040160206040518083038186803b158015615e7b57600080fd5b505afa158015615e8f573d6000803e3d6000fd5b505050506040513d6020811015615ea557600080fd5b8101908080519060200190929190505050905060008a73ffffffffffffffffffffffffffffffffffffffff16632c2cb9fd886040518263ffffffff1660e01b81526004018082815260200191505060206040518083038186803b158015615f0b57600080fd5b505afa158015615f1f573d6000803e3d6000fd5b505050506040513d6020811015615f3557600080fd5b81019080805190602001909291905050509050615f5489848887613f62565b615f7d8b88615f6b615f668d8b616dec565b616b70565b615f78868f89888d616bf1565b614284565b615f918b8830615f8c89616dcd565b61277a565b60008273ffffffffffffffffffffffffffffffffffffffff16634538c4eb308b6040518363ffffffff1660e01b8152600401808373ffffffffffffffffffffffffffffffffffffffff1673ffffffffffffffffffffffffffffffffffffffff1681526020018273ffffffffffffffffffffffffffffffffffffffff1673ffffffffffffffffffffffffffffffffffffffff1681526020019250505060206040518083038186803b15801561604457600080fd5b505afa158015616058573d6000803e3d6000fd5b505050506040513d602081101561606e57600080fd5b8101908080519060200190929190505050141561611d578173ffffffffffffffffffffffffffffffffffffffff1663a3b22fc4896040518263ffffffff1660e01b8152600401808273ffffffffffffffffffffffffffffffffffffffff1673ffffffffffffffffffffffffffffffffffffffff168152602001915050600060405180830381600087803b15801561610457600080fd5b505af1158015616118573d6000803e3d6000fd5b505050505b8773ffffffffffffffffffffffffffffffffffffffff1663ef693bed33876040518363ffffffff1660e01b8152600401808373ffffffffffffffffffffffffffffffffffffffff1673ffffffffffffffffffffffffffffffffffffffff16815260200182815260200192505050600060405180830381600087803b1580156161a457600080fd5b505af11580156161b8573d6000803e3d6000fd5b505050505050505050505050505050565b60006161d68986306136bb565b90506161e88989898985898989615da3565b98975050505050505050565b6161fe82306147a7565b8273ffffffffffffffffffffffffffffffffffffffff166336569e776040518163ffffffff1660e01b815260040160206040518083038186803b15801561624457600080fd5b505afa158015616258573d6000803e3d6000fd5b505050506040513d602081101561626e57600080fd5b810190808051906020019092919050505073ffffffffffffffffffffffffffffffffffffffff1663760887038473ffffffffffffffffffffffffffffffffffffffff16632c2cb9fd846040518263ffffffff1660e01b81526004018082815260200191505060206040518083038186803b1580156162eb57600080fd5b505afa1580156162ff573d6000803e3d6000fd5b505050506040513d602081101561631557600080fd5b81019080805190602001909291905050508573ffffffffffffffffffffffffffffffffffffffff16632726b073856040518263ffffffff1660e01b81526004018082815260200191505060206040518083038186803b15801561637757600080fd5b505afa15801561638b573d6000803e3d6000fd5b505050506040513d60208110156163a157600080fd5b810190808051906020019092919050505030306163bd34616b70565b60006040518763ffffffff1660e01b8152600401808781526020018673ffffffffffffffffffffffffffffffffffffffff1673ffffffffffffffffffffffffffffffffffffffff1681526020018573ffffffffffffffffffffffffffffffffffffffff1673ffffffffffffffffffffffffffffffffffffffff1681526020018473ffffffffffffffffffffffffffffffffffffffff1673ffffffffffffffffffffffffffffffffffffffff1681526020018381526020018281526020019650505050505050600060405180830381600087803b15801561649c57600080fd5b505af11580156164b0573d6000803e3d6000fd5b50505050505050565b60006164c68784306136bb565b90506164d68787878785876122bd565b9695505050505050565b8073ffffffffffffffffffffffffffffffffffffffff168673ffffffffffffffffffffffffffffffffffffffff16638161b120866040518263ffffffff1660e01b81526004018082815260200191505060206040518083038186803b15801561654857600080fd5b505afa15801561655c573d6000803e3d6000fd5b505050506040513d602081101561657257600080fd5b810190808051906020019092919050505073ffffffffffffffffffffffffffffffffffffffff161461660c576040517f08c379a000000000000000000000000000000000000000000000000000000000815260040180806020018281038252600f8152602001807f6f776e65722d6d6973736d61746368000000000000000000000000000000000081525060200191505060405180910390fd5b6166198686868686612966565b505050505050565b8273ffffffffffffffffffffffffffffffffffffffff16637e348b7d83836040518363ffffffff1660e01b8152600401808373ffffffffffffffffffffffffffffffffffffffff1673ffffffffffffffffffffffffffffffffffffffff16815260200182815260200192505050600060405180830381600087803b1580156166a857600080fd5b505af11580156166bc573d6000803e3d6000fd5b50505050505050565b8073ffffffffffffffffffffffffffffffffffffffff168473ffffffffffffffffffffffffffffffffffffffff16638161b120846040518263ffffffff1660e01b81526004018082815260200191505060206040518083038186803b15801561672d57600080fd5b505afa158015616741573d6000803e3d6000fd5b505050506040513d602081101561675757600080fd5b810190808051906020019092919050505073ffffffffffffffffffffffffffffffffffffffff16146167f1576040517f08c379a000000000000000000000000000000000000000000000000000000000815260040180806020018281038252600f8152602001807f6f776e65722d6d6973736d61746368000000000000000000000000000000000081525060200191505060405180910390fd5b6167fc8484846161f4565b50505050565b60008173ffffffffffffffffffffffffffffffffffffffff16631060930d306040518263ffffffff1660e01b8152600401808273ffffffffffffffffffffffffffffffffffffffff1673ffffffffffffffffffffffffffffffffffffffff168152602001915050602060405180830381600087803b15801561688357600080fd5b505af1158015616897573d6000803e3d6000fd5b505050506040513d60208110156168ad57600080fd5b81019080805190602001909291905050509050919050565b6000808573ffffffffffffffffffffffffffffffffffffffff1663d9638d36846040518263ffffffff1660e01b81526004018082815260200191505060a06040518083038186803b15801561691957600080fd5b505afa15801561692d573d6000803e3d6000fd5b505050506040513d60a081101561694357600080fd5b81019080805190602001909291908051906020019092919080519060200190929190805190602001909291908051906020019092919050505050505091505060008673ffffffffffffffffffffffffffffffffffffffff16632424be5c85876040518363ffffffff1660e01b8152600401808381526020018273ffffffffffffffffffffffffffffffffffffffff1673ffffffffffffffffffffffffffffffffffffffff16815260200192505050604080518083038186803b158015616a0857600080fd5b505afa158015616a1c573d6000803e3d6000fd5b505050506040513d6040811015616a3257600080fd5b81019080805190602001909291908051906020019092919050505091505060008773ffffffffffffffffffffffffffffffffffffffff16636c25b346886040518263ffffffff1660e01b8152600401808273ffffffffffffffffffffffffffffffffffffffff1673ffffffffffffffffffffffffffffffffffffffff16815260200191505060206040518083038186803b158015616acf57600080fd5b505afa158015616ae3573d6000803e3d6000fd5b505050506040513d6020811015616af957600080fd5b810190808051906020019092919050505090506000616b21616b1b8486617051565b836170e6565b90506b033b2e3c9fd0803ce80000008181616b3857fe5b04945080616b52866b033b2e3c9fd0803ce8000000617051565b10616b5d5784616b62565b600185015b945050505050949350505050565b60008190506000811215616bec576040517f08c379a000000000000000000000000000000000000000000000000000000000815260040180806020018281038252600c8152602001807f696e742d6f766572666c6f77000000000000000000000000000000000000000081525060200191505060405180910390fd5b919050565b6000808573ffffffffffffffffffffffffffffffffffffffff166344e2a5a8856040518263ffffffff1660e01b815260040180828152602001915050602060405180830381600087803b158015616c4757600080fd5b505af1158015616c5b573d6000803e3d6000fd5b505050506040513d6020811015616c7157600080fd5b8101908080519060200190929190505050905060008773ffffffffffffffffffffffffffffffffffffffff16636c25b346876040518263ffffffff1660e01b8152600401808273ffffffffffffffffffffffffffffffffffffffff1673ffffffffffffffffffffffffffffffffffffffff16815260200191505060206040518083038186803b158015616d0357600080fd5b505afa158015616d17573d6000803e3d6000fd5b505050506040513d6020811015616d2d57600080fd5b81019080805190602001909291905050509050616d56846b033b2e3c9fd0803ce8000000617051565b811015616dc257616d8d82616d80616d7a876b033b2e3c9fd0803ce8000000617051565b846170e6565b81616d8757fe5b04616b70565b9250616da5846b033b2e3c9fd0803ce8000000617051565b616daf8484617051565b10616dba5782616dbf565b600183015b92505b505095945050505050565b6000616de5826b033b2e3c9fd0803ce8000000617051565b9050919050565b6000616e80828473ffffffffffffffffffffffffffffffffffffffff1663b3bcfa826040518163ffffffff1660e01b8152600401602060405180830381600087803b158015616e3a57600080fd5b505af1158015616e4e573d6000803e3d6000fd5b505050506040513d6020811015616e6457600080fd5b8101908080519060200190929190505050601203600a0a617051565b905092915050565b6000808573ffffffffffffffffffffffffffffffffffffffff1663d9638d36846040518263ffffffff1660e01b81526004018082815260200191505060a06040518083038186803b158015616edc57600080fd5b505afa158015616ef0573d6000803e3d6000fd5b505050506040513d60a0811015616f0657600080fd5b81019080805190602001909291908051906020019092919080519060200190929190805190602001909291908051906020019092919050505050505091505060008673ffffffffffffffffffffffffffffffffffffffff16632424be5c85876040518363ffffffff1660e01b8152600401808381526020018273ffffffffffffffffffffffffffffffffffffffff1673ffffffffffffffffffffffffffffffffffffffff16815260200192505050604080518083038186803b158015616fcb57600080fd5b505afa158015616fdf573d6000803e3d6000fd5b505050506040513d6040811015616ff557600080fd5b81019080805190602001909291908051906020019092919050505091505061702582878161701f57fe5b04616b70565b9250808311156170405761703881616b70565b600003617045565b826000035b92505050949350505050565b60008082148061706e575082828385029250828161706b57fe5b04145b6170e0576040517f08c379a000000000000000000000000000000000000000000000000000000000815260040180806020018281038252600c8152602001807f6d756c2d6f766572666c6f77000000000000000000000000000000000000000081525060200191505060405180910390fd5b92915050565b6000828284039150811115617163576040517f08c379a000000000000000000000000000000000000000000000000000000000815260040180806020018281038252600c8152602001807f7375622d6f766572666c6f77000000000000000000000000000000000000000081525060200191505060405180910390fd5b9291505056fea265627a7a7231582036db1eac5835f2356c21c1fd3c3c8cc167925ff45382f585748eb2cfff35e48364736f6c634300050c0032",
  "devdoc": {
    "methods": {}
  },
  "userdoc": {
    "methods": {}
  }
}