{
  "address": "0x09635F643e140090A9A8Dcd712eD6285858ceBef",
  "abi": [
    {
      "inputs": [
        {
          "internalType": "contract ILendingPoolAddressesProvider",
          "name": "provider",
          "type": "address"
        }
      ],
      "stateMutability": "nonpayable",
      "type": "constructor"
    },
    {
      "inputs": [],
      "name": "ADDRESSES_PROVIDER",
      "outputs": [
        {
          "internalType": "contract ILendingPoolAddressesProvider",
          "name": "",
          "type": "address"
        }
      ],
      "stateMutability": "view",
      "type": "function"
    },
    {
      "inputs": [],
      "name": "LENDING_POOL",
      "outputs": [
        {
          "internalType": "contract ILendingPool",
          "name": "",
          "type": "address"
        }
      ],
      "stateMutability": "view",
      "type": "function"
    },
    {
      "inputs": [
        {
          "internalType": "address[]",
          "name": "assets",
          "type": "address[]"
        },
        {
          "internalType": "uint256[]",
          "name": "amounts",
          "type": "uint256[]"
        },
        {
          "internalType": "uint256[]",
          "name": "premiums",
          "type": "uint256[]"
        },
        {
          "internalType": "address",
          "name": "initiator",
          "type": "address"
        },
        {
          "internalType": "bytes",
          "name": "params",
          "type": "bytes"
        }
      ],
      "name": "executeOperation",
      "outputs": [
        {
          "internalType": "bool",
          "name": "",
          "type": "bool"
        }
      ],
      "stateMutability": "nonpayable",
      "type": "function"
    },
    {
      "inputs": [
        {
          "internalType": "address",
          "name": "owner",
          "type": "address"
        },
        {
          "internalType": "address",
          "name": "target",
          "type": "address"
        },
        {
          "internalType": "address[]",
          "name": "ownerTokens",
          "type": "address[]"
        },
        {
          "internalType": "uint256[]",
          "name": "ownerAmounts",
          "type": "uint256[]"
        },
        {
          "internalType": "address",
          "name": "lendingPool",
          "type": "address"
        },
        {
          "internalType": "address[]",
          "name": "loanTokens",
          "type": "address[]"
        },
        {
          "internalType": "uint256[]",
          "name": "loanAmounts",
          "type": "uint256[]"
        },
        {
          "internalType": "uint256[]",
          "name": "modes",
          "type": "uint256[]"
        },
        {
          "internalType": "bytes",
          "name": "data",
          "type": "bytes"
        }
      ],
      "name": "flashLoanFromDSProxy",
      "outputs": [],
      "stateMutability": "payable",
      "type": "function"
    },
    {
      "inputs": [
        {
          "components": [
            {
              "internalType": "address",
              "name": "sender",
              "type": "address"
            },
            {
              "internalType": "address",
              "name": "debtToken",
              "type": "address"
            },
            {
              "internalType": "uint256",
              "name": "debtToPay",
              "type": "uint256"
            },
            {
              "internalType": "uint256",
              "name": "amountFromSenderInDebtToken",
              "type": "uint256"
            },
            {
              "internalType": "uint256",
              "name": "amountFromLoanInDebtToken",
              "type": "uint256"
            },
            {
              "internalType": "address",
              "name": "tokenA",
              "type": "address"
            },
            {
              "internalType": "address",
              "name": "tokenB",
              "type": "address"
            },
            {
              "internalType": "address",
              "name": "pairToken",
              "type": "address"
            },
            {
              "internalType": "uint256",
              "name": "collateralAmountToFree",
              "type": "uint256"
            },
            {
              "internalType": "uint256",
              "name": "collateralAmountToUseToPayDebt",
              "type": "uint256"
            },
            {
              "internalType": "uint256",
              "name": "debtToCoverWithTokenA",
              "type": "uint256"
            },
            {
              "internalType": "uint256",
              "name": "debtToCoverWithTokenB",
              "type": "uint256"
            },
            {
              "internalType": "uint256",
              "name": "minTokenAToRecive",
              "type": "uint256"
            },
            {
              "internalType": "uint256",
              "name": "minTokenBToRecive",
              "type": "uint256"
            },
            {
              "internalType": "uint256",
              "name": "loanFee",
              "type": "uint256"
            },
            {
              "internalType": "uint256",
              "name": "deadline",
              "type": "uint256"
            },
            {
              "internalType": "address",
              "name": "dsProxy",
              "type": "address"
            },
            {
              "internalType": "address",
              "name": "dsProxyActions",
              "type": "address"
            },
            {
              "internalType": "address",
              "name": "manager",
              "type": "address"
            },
            {
              "internalType": "address",
              "name": "gemJoin",
              "type": "address"
            },
            {
              "internalType": "address",
              "name": "daiJoin",
              "type": "address"
            },
            {
              "internalType": "uint256",
              "name": "cdp",
              "type": "uint256"
            },
            {
              "internalType": "address",
              "name": "router02",
              "type": "address"
            }
          ],
          "internalType": "struct RemovePosition.PayBackParameters",
          "name": "parameters",
          "type": "tuple"
        }
      ],
      "name": "paybackDebt",
      "outputs": [
        {
          "internalType": "uint256",
          "name": "freeTokenA",
          "type": "uint256"
        },
        {
          "internalType": "uint256",
          "name": "freeTokenB",
          "type": "uint256"
        },
        {
          "internalType": "uint256",
          "name": "freePairToken",
          "type": "uint256"
        }
      ],
      "stateMutability": "payable",
      "type": "function"
    }
  ],
  "transactionHash": "0xded0379ef158b7851e3923b54daa61a6e63b799f15abe1faffd321060f05da4f",
  "args": [
    "0xB53C1a33016B2DC2fF3653530bfF1848a515c8c5"
  ],
  "solcInputHash": "862ce1ebfea980de055ebd19871c11c0",
  "bytecode": "0x60c06040523480156200001157600080fd5b50604051620023c9380380620023c9833981810160405281019062000037919062000148565b808073ffffffffffffffffffffffffffffffffffffffff1660808173ffffffffffffffffffffffffffffffffffffffff1660601b815250508073ffffffffffffffffffffffffffffffffffffffff16630261bf8b6040518163ffffffff1660e01b815260040160206040518083038186803b158015620000b657600080fd5b505afa158015620000cb573d6000803e3d6000fd5b505050506040513d6020811015620000e257600080fd5b810190808051906020019092919050505073ffffffffffffffffffffffffffffffffffffffff1660a08173ffffffffffffffffffffffffffffffffffffffff1660601b815250505050620001d6565b6000815190506200014281620001bc565b92915050565b6000602082840312156200015b57600080fd5b60006200016b8482850162000131565b91505092915050565b600062000181826200019c565b9050919050565b6000620001958262000174565b9050919050565b600073ffffffffffffffffffffffffffffffffffffffff82169050919050565b620001c78162000188565b8114620001d357600080fd5b50565b60805160601c60a05160601c6121c46200020560003980610470528061095052508061013252506121c46000f3fe60806040526004361061004a5760003560e01c80630542975c1461004f5780637ad0b69e1461007a578063920f5c8414610096578063b0d326a7146100d3578063b4dcfc7714610105575b600080fd5b34801561005b57600080fd5b50610064610130565b6040516100719190611e03565b60405180910390f35b610094600480360381019061008f91906116b7565b610154565b005b3480156100a257600080fd5b506100bd60048036038101906100b8919061180d565b61032e565b6040516100ca9190611de8565b60405180910390f35b6100ed60048036038101906100e891906118f5565b610507565b6040516100fc93929190611e5b565b60405180910390f35b34801561011157600080fd5b5061011a61094e565b6040516101279190611e1e565b60405180910390f35b7f000000000000000000000000000000000000000000000000000000000000000081565b60005a90503073ffffffffffffffffffffffffffffffffffffffff166313af40358a6040518263ffffffff1660e01b81526004016101929190611cb5565b600060405180830381600087803b1580156101ac57600080fd5b505af11580156101c0573d6000803e3d6000fd5b5050505060005b885181101561023e576102238b8b8a84815181106101e157fe5b60200260200101518c85815181106101f557fe5b602002602001015173ffffffffffffffffffffffffffffffffffffffff16610972909392919063ffffffff16565b610237600182610a3390919063ffffffff16565b90506101c7565b508573ffffffffffffffffffffffffffffffffffffffff1663ab9c4b5d8a8787878e8860006040518863ffffffff1660e01b81526004016102859796959493929190611d5d565b600060405180830381600087803b15801561029f57600080fd5b505af11580156102b3573d6000803e3d6000fd5b505050503073ffffffffffffffffffffffffffffffffffffffff166313af40358b6040518263ffffffff1660e01b81526004016102f09190611cb5565b600060405180830381600087803b15801561030a57600080fd5b505af115801561031e573d6000803e3d6000fd5b5050505050505050505050505050565b600080838381019061034091906118f5565b9050600080600061035084610507565b9250925092506000831115610393576103928460000151848660a0015173ffffffffffffffffffffffffffffffffffffffff16610abb9092919063ffffffff16565b5b60008211156103d0576103cf8460000151838660c0015173ffffffffffffffffffffffffffffffffffffffff16610abb9092919063ffffffff16565b5b600081111561040d5761040c8460000151838660e0015173ffffffffffffffffffffffffffffffffffffffff16610abb9092919063ffffffff16565b5b61046b846000015161044161271061043360038960400151610b5d90919063ffffffff16565b610be390919063ffffffff16565b866020015173ffffffffffffffffffffffffffffffffffffffff16610abb9092919063ffffffff16565b6104f27f00000000000000000000000000000000000000000000000000000000000000006104c88e8e600081811061049f57fe5b905060200201358d8d60008181106104b357fe5b90506020020135610a3390919063ffffffff16565b866020015173ffffffffffffffffffffffffffffffffffffffff16610c6c9092919063ffffffff16565b60019450505050509998505050505050505050565b60008060008084604001519050737a2088a1bFc9d81c55368AE168C2C02570cB814F63f151809b8661020001518761022001518861024001518961026001518a61028001518b6102a001518c6101000151898e602001516040518a63ffffffff1660e01b815260040161058299989796959493929190611cd0565b60006040518083038186803b15801561059a57600080fd5b505af41580156105ae573d6000803e3d6000fd5b505050506000600267ffffffffffffffff811180156105cc57600080fd5b506040519080825280602002602001820160405280156105fb5781602001602082028036833780820191505090505b5090508560a001518160008151811061061057fe5b602002602001019073ffffffffffffffffffffffffffffffffffffffff16908173ffffffffffffffffffffffffffffffffffffffff168152505085602001518160018151811061065c57fe5b602002602001019073ffffffffffffffffffffffffffffffffffffffff16908173ffffffffffffffffffffffffffffffffffffffff16815250506000600267ffffffffffffffff811180156106b057600080fd5b506040519080825280602002602001820160405280156106df5781602001602082028036833780820191505090505b5090508660c00151816000815181106106f457fe5b602002602001019073ffffffffffffffffffffffffffffffffffffffff16908173ffffffffffffffffffffffffffffffffffffffff168152505086602001518160018151811061074057fe5b602002602001019073ffffffffffffffffffffffffffffffffffffffff16908173ffffffffffffffffffffffffffffffffffffffff1681525050600080737a2088a1bFc9d81c55368AE168C2C02570cB814F63397c0f6d6040518061018001604052808c6102c0015173ffffffffffffffffffffffffffffffffffffffff1681526020018c60a0015173ffffffffffffffffffffffffffffffffffffffff1681526020018c60c0015173ffffffffffffffffffffffffffffffffffffffff1681526020018c60e0015173ffffffffffffffffffffffffffffffffffffffff1681526020018c610120015181526020018c610180015181526020018c6101a0015181526020018c6101e0015181526020018c610140015181526020018c61016001518152602001878152602001868152506040518263ffffffff1660e01b815260040161088c9190611e39565b604080518083038186803b1580156108a357600080fd5b505af41580156108b7573d6000803e3d6000fd5b505050506040513d601f19601f820116820180604052508101906108db919061191f565b9150915060008073ffffffffffffffffffffffffffffffffffffffff168a60e0015173ffffffffffffffffffffffffffffffffffffffff1614610938576109358a61012001518b6101000151610de590919063ffffffff16565b90505b8282829850985098505050505050509193909250565b7f000000000000000000000000000000000000000000000000000000000000000081565b610a2d846323b872dd60e01b858585604051602401808473ffffffffffffffffffffffffffffffffffffffff1681526020018373ffffffffffffffffffffffffffffffffffffffff1681526020018281526020019350505050604051602081830303815290604052907bffffffffffffffffffffffffffffffffffffffffffffffffffffffff19166020820180517bffffffffffffffffffffffffffffffffffffffffffffffffffffffff8381831617835250505050610e68565b50505050565b600080828401905083811015610ab1576040517f08c379a000000000000000000000000000000000000000000000000000000000815260040180806020018281038252601b8152602001807f536166654d6174683a206164646974696f6e206f766572666c6f77000000000081525060200191505060405180910390fd5b8091505092915050565b610b588363a9059cbb60e01b8484604051602401808373ffffffffffffffffffffffffffffffffffffffff16815260200182815260200192505050604051602081830303815290604052907bffffffffffffffffffffffffffffffffffffffffffffffffffffffff19166020820180517bffffffffffffffffffffffffffffffffffffffffffffffffffffffff8381831617835250505050610e68565b505050565b600080831415610b705760009050610bdd565b6000828402905082848281610b8157fe5b0414610bd8576040517f08c379a00000000000000000000000000000000000000000000000000000000081526004018080602001828103825260218152602001806121446021913960400191505060405180910390fd5b809150505b92915050565b6000808211610c5a576040517f08c379a000000000000000000000000000000000000000000000000000000000815260040180806020018281038252601a8152602001807f536166654d6174683a206469766973696f6e206279207a65726f00000000000081525060200191505060405180910390fd5b818381610c6357fe5b04905092915050565b6000610d40828573ffffffffffffffffffffffffffffffffffffffff1663dd62ed3e30876040518363ffffffff1660e01b8152600401808373ffffffffffffffffffffffffffffffffffffffff1681526020018273ffffffffffffffffffffffffffffffffffffffff1681526020019250505060206040518083038186803b158015610cf757600080fd5b505afa158015610d0b573d6000803e3d6000fd5b505050506040513d6020811015610d2157600080fd5b8101908080519060200190929190505050610a3390919063ffffffff16565b9050610ddf8463095ea7b360e01b8584604051602401808373ffffffffffffffffffffffffffffffffffffffff16815260200182815260200192505050604051602081830303815290604052907bffffffffffffffffffffffffffffffffffffffffffffffffffffffff19166020820180517bffffffffffffffffffffffffffffffffffffffffffffffffffffffff8381831617835250505050610e68565b50505050565b600082821115610e5d576040517f08c379a000000000000000000000000000000000000000000000000000000000815260040180806020018281038252601e8152602001807f536166654d6174683a207375627472616374696f6e206f766572666c6f77000081525060200191505060405180910390fd5b818303905092915050565b6000610eca826040518060400160405280602081526020017f5361666545524332303a206c6f772d6c6576656c2063616c6c206661696c65648152508573ffffffffffffffffffffffffffffffffffffffff16610f579092919063ffffffff16565b9050600081511115610f5257808060200190516020811015610eeb57600080fd5b8101908080519060200190929190505050610f51576040517f08c379a000000000000000000000000000000000000000000000000000000000815260040180806020018281038252602a815260200180612165602a913960400191505060405180910390fd5b5b505050565b6060610f668484600085610f6f565b90509392505050565b606082471015610fca576040517f08c379a000000000000000000000000000000000000000000000000000000000815260040180806020018281038252602681526020018061211e6026913960400191505060405180910390fd5b610fd385611117565b611045576040517f08c379a000000000000000000000000000000000000000000000000000000000815260040180806020018281038252601d8152602001807f416464726573733a2063616c6c20746f206e6f6e2d636f6e747261637400000081525060200191505060405180910390fd5b6000808673ffffffffffffffffffffffffffffffffffffffff1685876040518082805190602001908083835b602083106110945780518252602082019150602081019050602083039250611071565b6001836020036101000a03801982511681845116808217855250505050505090500191505060006040518083038185875af1925050503d80600081146110f6576040519150601f19603f3d011682016040523d82523d6000602084013e6110fb565b606091505b509150915061110b82828661112a565b92505050949350505050565b600080823b905060008111915050919050565b6060831561113a578290506111ef565b60008351111561114d5782518084602001fd5b816040517f08c379a00000000000000000000000000000000000000000000000000000000081526004018080602001828103825283818151815260200191508051906020019080838360005b838110156111b4578082015181840152602081019050611199565b50505050905090810190601f1680156111e15780820380516001836020036101000a031916815260200191505b509250505060405180910390fd5b9392505050565b600061120961120484611ec3565b611e92565b9050808382526020820190508285602086028201111561122857600080fd5b60005b85811015611258578161123e888261130c565b84526020840193506020830192505060018101905061122b565b5050509392505050565b600061127561127084611eef565b611e92565b9050808382526020820190508285602086028201111561129457600080fd5b60005b858110156112c457816112aa888261168d565b845260208401935060208301925050600181019050611297565b5050509392505050565b60006112e16112dc84611f1b565b611e92565b9050828152602081018484840111156112f957600080fd5b61130484828561209a565b509392505050565b60008135905061131b816120ef565b92915050565b60008083601f84011261133357600080fd5b8235905067ffffffffffffffff81111561134c57600080fd5b60208301915083602082028301111561136457600080fd5b9250929050565b600082601f83011261137c57600080fd5b813561138c8482602086016111f6565b91505092915050565b60008083601f8401126113a757600080fd5b8235905067ffffffffffffffff8111156113c057600080fd5b6020830191508360208202830111156113d857600080fd5b9250929050565b600082601f8301126113f057600080fd5b8135611400848260208601611262565b91505092915050565b60008083601f84011261141b57600080fd5b8235905067ffffffffffffffff81111561143457600080fd5b60208301915083600182028301111561144c57600080fd5b9250929050565b600082601f83011261146457600080fd5b81356114748482602086016112ce565b91505092915050565b60006102e0828403121561149057600080fd5b61149b6102e0611e92565b905060006114ab8482850161130c565b60008301525060206114bf8482850161130c565b60208301525060406114d38482850161168d565b60408301525060606114e78482850161168d565b60608301525060806114fb8482850161168d565b60808301525060a061150f8482850161130c565b60a08301525060c06115238482850161130c565b60c08301525060e06115378482850161130c565b60e08301525061010061154c8482850161168d565b610100830152506101206115628482850161168d565b610120830152506101406115788482850161168d565b6101408301525061016061158e8482850161168d565b610160830152506101806115a48482850161168d565b610180830152506101a06115ba8482850161168d565b6101a0830152506101c06115d08482850161168d565b6101c0830152506101e06115e68482850161168d565b6101e0830152506102006115fc8482850161130c565b610200830152506102206116128482850161130c565b610220830152506102406116288482850161130c565b6102408301525061026061163e8482850161130c565b610260830152506102806116548482850161130c565b610280830152506102a061166a8482850161168d565b6102a0830152506102c06116808482850161130c565b6102c08301525092915050565b60008135905061169c81612106565b92915050565b6000815190506116b181612106565b92915050565b60008060008060008060008060006101208a8c0312156116d657600080fd5b60006116e48c828d0161130c565b99505060206116f58c828d0161130c565b98505060408a013567ffffffffffffffff81111561171257600080fd5b61171e8c828d0161136b565b97505060608a013567ffffffffffffffff81111561173b57600080fd5b6117478c828d016113df565b96505060806117588c828d0161130c565b95505060a08a013567ffffffffffffffff81111561177557600080fd5b6117818c828d0161136b565b94505060c08a013567ffffffffffffffff81111561179e57600080fd5b6117aa8c828d016113df565b93505060e08a013567ffffffffffffffff8111156117c757600080fd5b6117d38c828d016113df565b9250506101008a013567ffffffffffffffff8111156117f157600080fd5b6117fd8c828d01611453565b9150509295985092959850929598565b600080600080600080600080600060a08a8c03121561182b57600080fd5b60008a013567ffffffffffffffff81111561184557600080fd5b6118518c828d01611321565b995099505060208a013567ffffffffffffffff81111561187057600080fd5b61187c8c828d01611395565b975097505060408a013567ffffffffffffffff81111561189b57600080fd5b6118a78c828d01611395565b955095505060606118ba8c828d0161130c565b93505060808a013567ffffffffffffffff8111156118d757600080fd5b6118e38c828d01611409565b92509250509295985092959850929598565b60006102e0828403121561190857600080fd5b60006119168482850161147d565b91505092915050565b6000806040838503121561193257600080fd5b6000611940858286016116a2565b9250506020611951858286016116a2565b9150509250929050565b600061196783836119a3565b60208301905092915050565b600061197f83836119d0565b60208301905092915050565b60006119978383611c79565b60208301905092915050565b6119ac81611fea565b82525050565b6119bb81611fea565b82525050565b6119ca81611fea565b82525050565b6119d981611fea565b82525050565b60006119ea82611f6b565b6119f48185611fa6565b93506119ff83611f4b565b8060005b83811015611a30578151611a17888261195b565b9750611a2283611f8c565b925050600181019050611a03565b5085935050505092915050565b6000611a4882611f6b565b611a528185611fb7565b9350611a5d83611f4b565b8060005b83811015611a8e578151611a758882611973565b9750611a8083611f8c565b925050600181019050611a61565b5085935050505092915050565b6000611aa682611f76565b611ab08185611fc8565b9350611abb83611f5b565b8060005b83811015611aec578151611ad3888261198b565b9750611ade83611f99565b925050600181019050611abf565b5085935050505092915050565b611b0281611ffc565b82525050565b6000611b1382611f81565b611b1d8185611fd9565b9350611b2d8185602086016120a9565b611b36816120de565b840191505092915050565b611b4a81612040565b82525050565b611b5981612064565b82525050565b611b6881612088565b82525050565b600061018083016000830151611b8760008601826119d0565b506020830151611b9a60208601826119d0565b506040830151611bad60408601826119d0565b506060830151611bc060608601826119d0565b506080830151611bd36080860182611ca6565b5060a0830151611be660a0860182611ca6565b5060c0830151611bf960c0860182611ca6565b5060e0830151611c0c60e0860182611ca6565b50610100830151611c21610100860182611ca6565b50610120830151611c36610120860182611ca6565b50610140830151848203610140860152611c508282611a3d565b915050610160830151848203610160860152611c6c8282611a3d565b9150508091505092915050565b611c8281612036565b82525050565b611c9181612036565b82525050565b611ca081612036565b82525050565b611caf81612036565b82525050565b6000602082019050611cca60008301846119b2565b92915050565b600061012082019050611ce6600083018c6119c1565b611cf3602083018b6119c1565b611d00604083018a6119c1565b611d0d60608301896119c1565b611d1a60808301886119c1565b611d2760a0830187611c97565b611d3460c0830186611c97565b611d4160e0830185611c97565b611d4f6101008301846119c1565b9a9950505050505050505050565b600060e082019050611d72600083018a6119b2565b8181036020830152611d8481896119df565b90508181036040830152611d988188611a9b565b90508181036060830152611dac8187611a9b565b9050611dbb60808301866119b2565b81810360a0830152611dcd8185611b08565b9050611ddc60c0830184611b5f565b98975050505050505050565b6000602082019050611dfd6000830184611af9565b92915050565b6000602082019050611e186000830184611b41565b92915050565b6000602082019050611e336000830184611b50565b92915050565b60006020820190508181036000830152611e538184611b6e565b905092915050565b6000606082019050611e706000830186611c88565b611e7d6020830185611c88565b611e8a6040830184611c88565b949350505050565b6000604051905081810181811067ffffffffffffffff82111715611eb957611eb86120dc565b5b8060405250919050565b600067ffffffffffffffff821115611ede57611edd6120dc565b5b602082029050602081019050919050565b600067ffffffffffffffff821115611f0a57611f096120dc565b5b602082029050602081019050919050565b600067ffffffffffffffff821115611f3657611f356120dc565b5b601f19601f8301169050602081019050919050565b6000819050602082019050919050565b6000819050602082019050919050565b600081519050919050565b600081519050919050565b600081519050919050565b6000602082019050919050565b6000602082019050919050565b600082825260208201905092915050565b600082825260208201905092915050565b600082825260208201905092915050565b600082825260208201905092915050565b6000611ff582612016565b9050919050565b60008115159050919050565b600061ffff82169050919050565b600073ffffffffffffffffffffffffffffffffffffffff82169050919050565b6000819050919050565b600061204b82612052565b9050919050565b600061205d82612016565b9050919050565b600061206f82612076565b9050919050565b600061208182612016565b9050919050565b600061209382612008565b9050919050565b82818337600083830152505050565b60005b838110156120c75780820151818401526020810190506120ac565b838111156120d6576000848401525b50505050565bfe5b6000601f19601f8301169050919050565b6120f881611fea565b811461210357600080fd5b50565b61210f81612036565b811461211a57600080fd5b5056fe416464726573733a20696e73756666696369656e742062616c616e636520666f722063616c6c536166654d6174683a206d756c7469706c69636174696f6e206f766572666c6f775361666545524332303a204552433230206f7065726174696f6e20646964206e6f742073756363656564a26469706673582212209ac0aca50024f6b9150a9e96d059336fae8a5abbda18c0f049c752dfaa2d9d9064736f6c63430007060033",
  "deployedBytecode": "0x60806040526004361061004a5760003560e01c80630542975c1461004f5780637ad0b69e1461007a578063920f5c8414610096578063b0d326a7146100d3578063b4dcfc7714610105575b600080fd5b34801561005b57600080fd5b50610064610130565b6040516100719190611e03565b60405180910390f35b610094600480360381019061008f91906116b7565b610154565b005b3480156100a257600080fd5b506100bd60048036038101906100b8919061180d565b61032e565b6040516100ca9190611de8565b60405180910390f35b6100ed60048036038101906100e891906118f5565b610507565b6040516100fc93929190611e5b565b60405180910390f35b34801561011157600080fd5b5061011a61094e565b6040516101279190611e1e565b60405180910390f35b7f000000000000000000000000000000000000000000000000000000000000000081565b60005a90503073ffffffffffffffffffffffffffffffffffffffff166313af40358a6040518263ffffffff1660e01b81526004016101929190611cb5565b600060405180830381600087803b1580156101ac57600080fd5b505af11580156101c0573d6000803e3d6000fd5b5050505060005b885181101561023e576102238b8b8a84815181106101e157fe5b60200260200101518c85815181106101f557fe5b602002602001015173ffffffffffffffffffffffffffffffffffffffff16610972909392919063ffffffff16565b610237600182610a3390919063ffffffff16565b90506101c7565b508573ffffffffffffffffffffffffffffffffffffffff1663ab9c4b5d8a8787878e8860006040518863ffffffff1660e01b81526004016102859796959493929190611d5d565b600060405180830381600087803b15801561029f57600080fd5b505af11580156102b3573d6000803e3d6000fd5b505050503073ffffffffffffffffffffffffffffffffffffffff166313af40358b6040518263ffffffff1660e01b81526004016102f09190611cb5565b600060405180830381600087803b15801561030a57600080fd5b505af115801561031e573d6000803e3d6000fd5b5050505050505050505050505050565b600080838381019061034091906118f5565b9050600080600061035084610507565b9250925092506000831115610393576103928460000151848660a0015173ffffffffffffffffffffffffffffffffffffffff16610abb9092919063ffffffff16565b5b60008211156103d0576103cf8460000151838660c0015173ffffffffffffffffffffffffffffffffffffffff16610abb9092919063ffffffff16565b5b600081111561040d5761040c8460000151838660e0015173ffffffffffffffffffffffffffffffffffffffff16610abb9092919063ffffffff16565b5b61046b846000015161044161271061043360038960400151610b5d90919063ffffffff16565b610be390919063ffffffff16565b866020015173ffffffffffffffffffffffffffffffffffffffff16610abb9092919063ffffffff16565b6104f27f00000000000000000000000000000000000000000000000000000000000000006104c88e8e600081811061049f57fe5b905060200201358d8d60008181106104b357fe5b90506020020135610a3390919063ffffffff16565b866020015173ffffffffffffffffffffffffffffffffffffffff16610c6c9092919063ffffffff16565b60019450505050509998505050505050505050565b6000806000808460400151905073__$4c4fe12e8ade0f42ba90aa1ebe74a75687$__63f151809b8661020001518761022001518861024001518961026001518a61028001518b6102a001518c6101000151898e602001516040518a63ffffffff1660e01b815260040161058299989796959493929190611cd0565b60006040518083038186803b15801561059a57600080fd5b505af41580156105ae573d6000803e3d6000fd5b505050506000600267ffffffffffffffff811180156105cc57600080fd5b506040519080825280602002602001820160405280156105fb5781602001602082028036833780820191505090505b5090508560a001518160008151811061061057fe5b602002602001019073ffffffffffffffffffffffffffffffffffffffff16908173ffffffffffffffffffffffffffffffffffffffff168152505085602001518160018151811061065c57fe5b602002602001019073ffffffffffffffffffffffffffffffffffffffff16908173ffffffffffffffffffffffffffffffffffffffff16815250506000600267ffffffffffffffff811180156106b057600080fd5b506040519080825280602002602001820160405280156106df5781602001602082028036833780820191505090505b5090508660c00151816000815181106106f457fe5b602002602001019073ffffffffffffffffffffffffffffffffffffffff16908173ffffffffffffffffffffffffffffffffffffffff168152505086602001518160018151811061074057fe5b602002602001019073ffffffffffffffffffffffffffffffffffffffff16908173ffffffffffffffffffffffffffffffffffffffff168152505060008073__$4c4fe12e8ade0f42ba90aa1ebe74a75687$__63397c0f6d6040518061018001604052808c6102c0015173ffffffffffffffffffffffffffffffffffffffff1681526020018c60a0015173ffffffffffffffffffffffffffffffffffffffff1681526020018c60c0015173ffffffffffffffffffffffffffffffffffffffff1681526020018c60e0015173ffffffffffffffffffffffffffffffffffffffff1681526020018c610120015181526020018c610180015181526020018c6101a0015181526020018c6101e0015181526020018c610140015181526020018c61016001518152602001878152602001868152506040518263ffffffff1660e01b815260040161088c9190611e39565b604080518083038186803b1580156108a357600080fd5b505af41580156108b7573d6000803e3d6000fd5b505050506040513d601f19601f820116820180604052508101906108db919061191f565b9150915060008073ffffffffffffffffffffffffffffffffffffffff168a60e0015173ffffffffffffffffffffffffffffffffffffffff1614610938576109358a61012001518b6101000151610de590919063ffffffff16565b90505b8282829850985098505050505050509193909250565b7f000000000000000000000000000000000000000000000000000000000000000081565b610a2d846323b872dd60e01b858585604051602401808473ffffffffffffffffffffffffffffffffffffffff1681526020018373ffffffffffffffffffffffffffffffffffffffff1681526020018281526020019350505050604051602081830303815290604052907bffffffffffffffffffffffffffffffffffffffffffffffffffffffff19166020820180517bffffffffffffffffffffffffffffffffffffffffffffffffffffffff8381831617835250505050610e68565b50505050565b600080828401905083811015610ab1576040517f08c379a000000000000000000000000000000000000000000000000000000000815260040180806020018281038252601b8152602001807f536166654d6174683a206164646974696f6e206f766572666c6f77000000000081525060200191505060405180910390fd5b8091505092915050565b610b588363a9059cbb60e01b8484604051602401808373ffffffffffffffffffffffffffffffffffffffff16815260200182815260200192505050604051602081830303815290604052907bffffffffffffffffffffffffffffffffffffffffffffffffffffffff19166020820180517bffffffffffffffffffffffffffffffffffffffffffffffffffffffff8381831617835250505050610e68565b505050565b600080831415610b705760009050610bdd565b6000828402905082848281610b8157fe5b0414610bd8576040517f08c379a00000000000000000000000000000000000000000000000000000000081526004018080602001828103825260218152602001806121446021913960400191505060405180910390fd5b809150505b92915050565b6000808211610c5a576040517f08c379a000000000000000000000000000000000000000000000000000000000815260040180806020018281038252601a8152602001807f536166654d6174683a206469766973696f6e206279207a65726f00000000000081525060200191505060405180910390fd5b818381610c6357fe5b04905092915050565b6000610d40828573ffffffffffffffffffffffffffffffffffffffff1663dd62ed3e30876040518363ffffffff1660e01b8152600401808373ffffffffffffffffffffffffffffffffffffffff1681526020018273ffffffffffffffffffffffffffffffffffffffff1681526020019250505060206040518083038186803b158015610cf757600080fd5b505afa158015610d0b573d6000803e3d6000fd5b505050506040513d6020811015610d2157600080fd5b8101908080519060200190929190505050610a3390919063ffffffff16565b9050610ddf8463095ea7b360e01b8584604051602401808373ffffffffffffffffffffffffffffffffffffffff16815260200182815260200192505050604051602081830303815290604052907bffffffffffffffffffffffffffffffffffffffffffffffffffffffff19166020820180517bffffffffffffffffffffffffffffffffffffffffffffffffffffffff8381831617835250505050610e68565b50505050565b600082821115610e5d576040517f08c379a000000000000000000000000000000000000000000000000000000000815260040180806020018281038252601e8152602001807f536166654d6174683a207375627472616374696f6e206f766572666c6f77000081525060200191505060405180910390fd5b818303905092915050565b6000610eca826040518060400160405280602081526020017f5361666545524332303a206c6f772d6c6576656c2063616c6c206661696c65648152508573ffffffffffffffffffffffffffffffffffffffff16610f579092919063ffffffff16565b9050600081511115610f5257808060200190516020811015610eeb57600080fd5b8101908080519060200190929190505050610f51576040517f08c379a000000000000000000000000000000000000000000000000000000000815260040180806020018281038252602a815260200180612165602a913960400191505060405180910390fd5b5b505050565b6060610f668484600085610f6f565b90509392505050565b606082471015610fca576040517f08c379a000000000000000000000000000000000000000000000000000000000815260040180806020018281038252602681526020018061211e6026913960400191505060405180910390fd5b610fd385611117565b611045576040517f08c379a000000000000000000000000000000000000000000000000000000000815260040180806020018281038252601d8152602001807f416464726573733a2063616c6c20746f206e6f6e2d636f6e747261637400000081525060200191505060405180910390fd5b6000808673ffffffffffffffffffffffffffffffffffffffff1685876040518082805190602001908083835b602083106110945780518252602082019150602081019050602083039250611071565b6001836020036101000a03801982511681845116808217855250505050505090500191505060006040518083038185875af1925050503d80600081146110f6576040519150601f19603f3d011682016040523d82523d6000602084013e6110fb565b606091505b509150915061110b82828661112a565b92505050949350505050565b600080823b905060008111915050919050565b6060831561113a578290506111ef565b60008351111561114d5782518084602001fd5b816040517f08c379a00000000000000000000000000000000000000000000000000000000081526004018080602001828103825283818151815260200191508051906020019080838360005b838110156111b4578082015181840152602081019050611199565b50505050905090810190601f1680156111e15780820380516001836020036101000a031916815260200191505b509250505060405180910390fd5b9392505050565b600061120961120484611ec3565b611e92565b9050808382526020820190508285602086028201111561122857600080fd5b60005b85811015611258578161123e888261130c565b84526020840193506020830192505060018101905061122b565b5050509392505050565b600061127561127084611eef565b611e92565b9050808382526020820190508285602086028201111561129457600080fd5b60005b858110156112c457816112aa888261168d565b845260208401935060208301925050600181019050611297565b5050509392505050565b60006112e16112dc84611f1b565b611e92565b9050828152602081018484840111156112f957600080fd5b61130484828561209a565b509392505050565b60008135905061131b816120ef565b92915050565b60008083601f84011261133357600080fd5b8235905067ffffffffffffffff81111561134c57600080fd5b60208301915083602082028301111561136457600080fd5b9250929050565b600082601f83011261137c57600080fd5b813561138c8482602086016111f6565b91505092915050565b60008083601f8401126113a757600080fd5b8235905067ffffffffffffffff8111156113c057600080fd5b6020830191508360208202830111156113d857600080fd5b9250929050565b600082601f8301126113f057600080fd5b8135611400848260208601611262565b91505092915050565b60008083601f84011261141b57600080fd5b8235905067ffffffffffffffff81111561143457600080fd5b60208301915083600182028301111561144c57600080fd5b9250929050565b600082601f83011261146457600080fd5b81356114748482602086016112ce565b91505092915050565b60006102e0828403121561149057600080fd5b61149b6102e0611e92565b905060006114ab8482850161130c565b60008301525060206114bf8482850161130c565b60208301525060406114d38482850161168d565b60408301525060606114e78482850161168d565b60608301525060806114fb8482850161168d565b60808301525060a061150f8482850161130c565b60a08301525060c06115238482850161130c565b60c08301525060e06115378482850161130c565b60e08301525061010061154c8482850161168d565b610100830152506101206115628482850161168d565b610120830152506101406115788482850161168d565b6101408301525061016061158e8482850161168d565b610160830152506101806115a48482850161168d565b610180830152506101a06115ba8482850161168d565b6101a0830152506101c06115d08482850161168d565b6101c0830152506101e06115e68482850161168d565b6101e0830152506102006115fc8482850161130c565b610200830152506102206116128482850161130c565b610220830152506102406116288482850161130c565b6102408301525061026061163e8482850161130c565b610260830152506102806116548482850161130c565b610280830152506102a061166a8482850161168d565b6102a0830152506102c06116808482850161130c565b6102c08301525092915050565b60008135905061169c81612106565b92915050565b6000815190506116b181612106565b92915050565b60008060008060008060008060006101208a8c0312156116d657600080fd5b60006116e48c828d0161130c565b99505060206116f58c828d0161130c565b98505060408a013567ffffffffffffffff81111561171257600080fd5b61171e8c828d0161136b565b97505060608a013567ffffffffffffffff81111561173b57600080fd5b6117478c828d016113df565b96505060806117588c828d0161130c565b95505060a08a013567ffffffffffffffff81111561177557600080fd5b6117818c828d0161136b565b94505060c08a013567ffffffffffffffff81111561179e57600080fd5b6117aa8c828d016113df565b93505060e08a013567ffffffffffffffff8111156117c757600080fd5b6117d38c828d016113df565b9250506101008a013567ffffffffffffffff8111156117f157600080fd5b6117fd8c828d01611453565b9150509295985092959850929598565b600080600080600080600080600060a08a8c03121561182b57600080fd5b60008a013567ffffffffffffffff81111561184557600080fd5b6118518c828d01611321565b995099505060208a013567ffffffffffffffff81111561187057600080fd5b61187c8c828d01611395565b975097505060408a013567ffffffffffffffff81111561189b57600080fd5b6118a78c828d01611395565b955095505060606118ba8c828d0161130c565b93505060808a013567ffffffffffffffff8111156118d757600080fd5b6118e38c828d01611409565b92509250509295985092959850929598565b60006102e0828403121561190857600080fd5b60006119168482850161147d565b91505092915050565b6000806040838503121561193257600080fd5b6000611940858286016116a2565b9250506020611951858286016116a2565b9150509250929050565b600061196783836119a3565b60208301905092915050565b600061197f83836119d0565b60208301905092915050565b60006119978383611c79565b60208301905092915050565b6119ac81611fea565b82525050565b6119bb81611fea565b82525050565b6119ca81611fea565b82525050565b6119d981611fea565b82525050565b60006119ea82611f6b565b6119f48185611fa6565b93506119ff83611f4b565b8060005b83811015611a30578151611a17888261195b565b9750611a2283611f8c565b925050600181019050611a03565b5085935050505092915050565b6000611a4882611f6b565b611a528185611fb7565b9350611a5d83611f4b565b8060005b83811015611a8e578151611a758882611973565b9750611a8083611f8c565b925050600181019050611a61565b5085935050505092915050565b6000611aa682611f76565b611ab08185611fc8565b9350611abb83611f5b565b8060005b83811015611aec578151611ad3888261198b565b9750611ade83611f99565b925050600181019050611abf565b5085935050505092915050565b611b0281611ffc565b82525050565b6000611b1382611f81565b611b1d8185611fd9565b9350611b2d8185602086016120a9565b611b36816120de565b840191505092915050565b611b4a81612040565b82525050565b611b5981612064565b82525050565b611b6881612088565b82525050565b600061018083016000830151611b8760008601826119d0565b506020830151611b9a60208601826119d0565b506040830151611bad60408601826119d0565b506060830151611bc060608601826119d0565b506080830151611bd36080860182611ca6565b5060a0830151611be660a0860182611ca6565b5060c0830151611bf960c0860182611ca6565b5060e0830151611c0c60e0860182611ca6565b50610100830151611c21610100860182611ca6565b50610120830151611c36610120860182611ca6565b50610140830151848203610140860152611c508282611a3d565b915050610160830151848203610160860152611c6c8282611a3d565b9150508091505092915050565b611c8281612036565b82525050565b611c9181612036565b82525050565b611ca081612036565b82525050565b611caf81612036565b82525050565b6000602082019050611cca60008301846119b2565b92915050565b600061012082019050611ce6600083018c6119c1565b611cf3602083018b6119c1565b611d00604083018a6119c1565b611d0d60608301896119c1565b611d1a60808301886119c1565b611d2760a0830187611c97565b611d3460c0830186611c97565b611d4160e0830185611c97565b611d4f6101008301846119c1565b9a9950505050505050505050565b600060e082019050611d72600083018a6119b2565b8181036020830152611d8481896119df565b90508181036040830152611d988188611a9b565b90508181036060830152611dac8187611a9b565b9050611dbb60808301866119b2565b81810360a0830152611dcd8185611b08565b9050611ddc60c0830184611b5f565b98975050505050505050565b6000602082019050611dfd6000830184611af9565b92915050565b6000602082019050611e186000830184611b41565b92915050565b6000602082019050611e336000830184611b50565b92915050565b60006020820190508181036000830152611e538184611b6e565b905092915050565b6000606082019050611e706000830186611c88565b611e7d6020830185611c88565b611e8a6040830184611c88565b949350505050565b6000604051905081810181811067ffffffffffffffff82111715611eb957611eb86120dc565b5b8060405250919050565b600067ffffffffffffffff821115611ede57611edd6120dc565b5b602082029050602081019050919050565b600067ffffffffffffffff821115611f0a57611f096120dc565b5b602082029050602081019050919050565b600067ffffffffffffffff821115611f3657611f356120dc565b5b601f19601f8301169050602081019050919050565b6000819050602082019050919050565b6000819050602082019050919050565b600081519050919050565b600081519050919050565b600081519050919050565b6000602082019050919050565b6000602082019050919050565b600082825260208201905092915050565b600082825260208201905092915050565b600082825260208201905092915050565b600082825260208201905092915050565b6000611ff582612016565b9050919050565b60008115159050919050565b600061ffff82169050919050565b600073ffffffffffffffffffffffffffffffffffffffff82169050919050565b6000819050919050565b600061204b82612052565b9050919050565b600061205d82612016565b9050919050565b600061206f82612076565b9050919050565b600061208182612016565b9050919050565b600061209382612008565b9050919050565b82818337600083830152505050565b60005b838110156120c75780820151818401526020810190506120ac565b838111156120d6576000848401525b50505050565bfe5b6000601f19601f8301169050919050565b6120f881611fea565b811461210357600080fd5b50565b61210f81612036565b811461211a57600080fd5b5056fe416464726573733a20696e73756666696369656e742062616c616e636520666f722063616c6c536166654d6174683a206d756c7469706c69636174696f6e206f766572666c6f775361666545524332303a204552433230206f7065726174696f6e20646964206e6f742073756363656564a26469706673582212209ac0aca50024f6b9150a9e96d059336fae8a5abbda18c0f049c752dfaa2d9d9064736f6c63430007060033",
  "libraries": {
    "UnifiLibrary": "0x7a2088a1bFc9d81c55368AE168C2C02570cB814F"
  },
  "devdoc": {
    "kind": "dev",
    "methods": {},
    "version": 1
  },
  "userdoc": {
    "kind": "user",
    "methods": {
      "executeOperation(address[],uint256[],uint256[],address,bytes)": {
        "notice": "This function is called after your contract has received the flash loan amount"
      },
      "flashLoanFromDSProxy(address,address,address[],uint256[],address,address[],uint256[],uint256[],bytes)": {
        "notice": "Executed as DSProxy."
      }
    },
    "version": 1
  },
  "storageLayout": {
    "storage": [],
    "types": null
  }
}