{
  "address": "0x76fd04a2bF4E58223D57c6dd32E947f0052EfA7a",
  "abi": [
    {
      "anonymous": false,
      "inputs": [
        {
          "indexed": false,
          "internalType": "address",
          "name": "sender",
          "type": "address"
        },
        {
          "indexed": false,
          "internalType": "uint256",
          "name": "cdp",
          "type": "uint256"
        },
        {
          "indexed": false,
          "internalType": "uint256",
          "name": "collateral",
          "type": "uint256"
        },
        {
          "indexed": false,
          "internalType": "uint256",
          "name": "debt",
          "type": "uint256"
        }
      ],
      "name": "LockAndDraw",
      "type": "event"
    },
    {
      "anonymous": false,
      "inputs": [
        {
          "indexed": true,
          "internalType": "address",
          "name": "previousOwner",
          "type": "address"
        },
        {
          "indexed": true,
          "internalType": "address",
          "name": "newOwner",
          "type": "address"
        }
      ],
      "name": "OwnershipTransferred",
      "type": "event"
    },
    {
      "anonymous": false,
      "inputs": [
        {
          "indexed": false,
          "internalType": "address",
          "name": "sender",
          "type": "address"
        },
        {
          "indexed": false,
          "internalType": "uint256",
          "name": "cdp",
          "type": "uint256"
        },
        {
          "indexed": false,
          "internalType": "uint256",
          "name": "collateral",
          "type": "uint256"
        },
        {
          "indexed": false,
          "internalType": "uint256",
          "name": "debt",
          "type": "uint256"
        }
      ],
      "name": "WipeAndFree",
      "type": "event"
    },
    {
      "stateMutability": "payable",
      "type": "fallback"
    },
    {
      "inputs": [],
      "name": "LOCK_AND_DRAW",
      "outputs": [
        {
          "internalType": "uint8",
          "name": "",
          "type": "uint8"
        }
      ],
      "stateMutability": "view",
      "type": "function"
    },
    {
      "inputs": [],
      "name": "WIPE_AND_FREE",
      "outputs": [
        {
          "internalType": "uint8",
          "name": "",
          "type": "uint8"
        }
      ],
      "stateMutability": "view",
      "type": "function"
    },
    {
      "inputs": [
        {
          "internalType": "address",
          "name": "sender",
          "type": "address"
        },
        {
          "components": [
            {
              "internalType": "address",
              "name": "owner",
              "type": "address"
            },
            {
              "internalType": "uint256",
              "name": "number",
              "type": "uint256"
            }
          ],
          "internalType": "struct Account.Info",
          "name": "account",
          "type": "tuple"
        },
        {
          "internalType": "bytes",
          "name": "data",
          "type": "bytes"
        }
      ],
      "name": "callFunction",
      "outputs": [],
      "stateMutability": "nonpayable",
      "type": "function"
    },
    {
      "inputs": [
        {
          "internalType": "address",
          "name": "soloMargin",
          "type": "address"
        },
        {
          "components": [
            {
              "internalType": "address",
              "name": "owner",
              "type": "address"
            },
            {
              "internalType": "uint256",
              "name": "number",
              "type": "uint256"
            }
          ],
          "internalType": "struct Account.Info[]",
          "name": "accountInfos",
          "type": "tuple[]"
        },
        {
          "components": [
            {
              "internalType": "enum Actions.ActionType",
              "name": "actionType",
              "type": "uint8"
            },
            {
              "internalType": "uint256",
              "name": "accountId",
              "type": "uint256"
            },
            {
              "components": [
                {
                  "internalType": "bool",
                  "name": "sign",
                  "type": "bool"
                },
                {
                  "internalType": "enum Types.AssetDenomination",
                  "name": "denomination",
                  "type": "uint8"
                },
                {
                  "internalType": "enum Types.AssetReference",
                  "name": "ref",
                  "type": "uint8"
                },
                {
                  "internalType": "uint256",
                  "name": "value",
                  "type": "uint256"
                }
              ],
              "internalType": "struct Types.AssetAmount",
              "name": "amount",
              "type": "tuple"
            },
            {
              "internalType": "uint256",
              "name": "primaryMarketId",
              "type": "uint256"
            },
            {
              "internalType": "uint256",
              "name": "secondaryMarketId",
              "type": "uint256"
            },
            {
              "internalType": "address",
              "name": "otherAddress",
              "type": "address"
            },
            {
              "internalType": "uint256",
              "name": "otherAccountId",
              "type": "uint256"
            },
            {
              "internalType": "bytes",
              "name": "data",
              "type": "bytes"
            }
          ],
          "internalType": "struct Actions.ActionArgs[]",
          "name": "actions",
          "type": "tuple[]"
        }
      ],
      "name": "callOperate",
      "outputs": [],
      "stateMutability": "nonpayable",
      "type": "function"
    },
    {
      "inputs": [],
      "name": "feeManager",
      "outputs": [
        {
          "internalType": "address",
          "name": "",
          "type": "address"
        }
      ],
      "stateMutability": "view",
      "type": "function"
    },
    {
      "inputs": [
        {
          "internalType": "address",
          "name": "owner",
          "type": "address"
        },
        {
          "internalType": "address payable",
          "name": "target",
          "type": "address"
        },
        {
          "internalType": "address[]",
          "name": "ownerTokens",
          "type": "address[]"
        },
        {
          "internalType": "uint256[]",
          "name": "ownerAmounts",
          "type": "uint256[]"
        },
        {
          "internalType": "address",
          "name": "soloMargin",
          "type": "address"
        },
        {
          "components": [
            {
              "internalType": "address",
              "name": "owner",
              "type": "address"
            },
            {
              "internalType": "uint256",
              "name": "number",
              "type": "uint256"
            }
          ],
          "internalType": "struct Account.Info[]",
          "name": "accountInfos",
          "type": "tuple[]"
        },
        {
          "components": [
            {
              "internalType": "enum Actions.ActionType",
              "name": "actionType",
              "type": "uint8"
            },
            {
              "internalType": "uint256",
              "name": "accountId",
              "type": "uint256"
            },
            {
              "components": [
                {
                  "internalType": "bool",
                  "name": "sign",
                  "type": "bool"
                },
                {
                  "internalType": "enum Types.AssetDenomination",
                  "name": "denomination",
                  "type": "uint8"
                },
                {
                  "internalType": "enum Types.AssetReference",
                  "name": "ref",
                  "type": "uint8"
                },
                {
                  "internalType": "uint256",
                  "name": "value",
                  "type": "uint256"
                }
              ],
              "internalType": "struct Types.AssetAmount",
              "name": "amount",
              "type": "tuple"
            },
            {
              "internalType": "uint256",
              "name": "primaryMarketId",
              "type": "uint256"
            },
            {
              "internalType": "uint256",
              "name": "secondaryMarketId",
              "type": "uint256"
            },
            {
              "internalType": "address",
              "name": "otherAddress",
              "type": "address"
            },
            {
              "internalType": "uint256",
              "name": "otherAccountId",
              "type": "uint256"
            },
            {
              "internalType": "bytes",
              "name": "data",
              "type": "bytes"
            }
          ],
          "internalType": "struct Actions.ActionArgs[]",
          "name": "actions",
          "type": "tuple[]"
        },
        {
          "internalType": "address",
          "name": "weth",
          "type": "address"
        }
      ],
      "name": "flashLoanFromDSProxy",
      "outputs": [],
      "stateMutability": "payable",
      "type": "function"
    },
    {
      "inputs": [],
      "name": "owner",
      "outputs": [
        {
          "internalType": "address",
          "name": "",
          "type": "address"
        }
      ],
      "stateMutability": "view",
      "type": "function"
    },
    {
      "inputs": [],
      "name": "renounceOwnership",
      "outputs": [],
      "stateMutability": "nonpayable",
      "type": "function"
    },
    {
      "inputs": [
        {
          "internalType": "address",
          "name": "_feeManager",
          "type": "address"
        }
      ],
      "name": "setFeeManager",
      "outputs": [],
      "stateMutability": "nonpayable",
      "type": "function"
    },
    {
      "inputs": [
        {
          "internalType": "address",
          "name": "newOwner",
          "type": "address"
        }
      ],
      "name": "transferOwnership",
      "outputs": [],
      "stateMutability": "nonpayable",
      "type": "function"
    }
  ],
  "transactionHash": "0x065d237c0bdb8fdd75943ba940537a80d5c01893de131d11e9466b7132b7dba2",
  "args": [],
  "solcInputHash": "34720498cf659559d949c6fb31b9fd53",
  "bytecode": "0x60806040523480156200001157600080fd5b50600062000024620000c860201b60201c565b9050806000806101000a81548173ffffffffffffffffffffffffffffffffffffffff021916908373ffffffffffffffffffffffffffffffffffffffff1602179055508073ffffffffffffffffffffffffffffffffffffffff16600073ffffffffffffffffffffffffffffffffffffffff167f8be0079c531659141344cd1fd0a4f28419497f9722a3daafe3b4186f6b6457e060405160405180910390a350620000d0565b600033905090565b614b2f80620000e06000396000f3fe6080604052600436106100955760003560e01c80638da5cb5b116100595780638da5cb5b146101575780639165ad8b14610182578063a281e17a146101ab578063d0fb0203146101c7578063f2fde38b146101f257610096565b806308a4279714610098578063472d35b9146100c3578063715018a6146100ec5780638348d034146101035780638b4187131461012e57610096565b5b005b3480156100a457600080fd5b506100ad61021b565b6040516100ba91906145ba565b60405180910390f35b3480156100cf57600080fd5b506100ea60048036038101906100e59190613803565b610220565b005b3480156100f857600080fd5b50610101610313565b005b34801561010f57600080fd5b50610118610480565b60405161012591906145ba565b60405180910390f35b34801561013a57600080fd5b50610155600480360381019061015091906139bd565b610485565b005b34801561016357600080fd5b5061016c610529565b604051610179919061410f565b60405180910390f35b34801561018e57600080fd5b506101a960048036038101906101a4919061393e565b610552565b005b6101c560048036038101906101c0919061382c565b6105c4565b005b3480156101d357600080fd5b506101dc610824565b6040516101e9919061410f565b60405180910390f35b3480156101fe57600080fd5b5061021960048036038101906102149190613803565b61084a565b005b600281565b610228610a3c565b73ffffffffffffffffffffffffffffffffffffffff16610246610529565b73ffffffffffffffffffffffffffffffffffffffff16146102cf576040517f08c379a00000000000000000000000000000000000000000000000000000000081526004018080602001828103825260208152602001807f4f776e61626c653a2063616c6c6572206973206e6f7420746865206f776e657281525060200191505060405180910390fd5b80600160006101000a81548173ffffffffffffffffffffffffffffffffffffffff021916908373ffffffffffffffffffffffffffffffffffffffff16021790555050565b61031b610a3c565b73ffffffffffffffffffffffffffffffffffffffff16610339610529565b73ffffffffffffffffffffffffffffffffffffffff16146103c2576040517f08c379a00000000000000000000000000000000000000000000000000000000081526004018080602001828103825260208152602001807f4f776e61626c653a2063616c6c6572206973206e6f7420746865206f776e657281525060200191505060405180910390fd5b600073ffffffffffffffffffffffffffffffffffffffff1660008054906101000a900473ffffffffffffffffffffffffffffffffffffffff1673ffffffffffffffffffffffffffffffffffffffff167f8be0079c531659141344cd1fd0a4f28419497f9722a3daafe3b4186f6b6457e060405160405180910390a360008060006101000a81548173ffffffffffffffffffffffffffffffffffffffff021916908373ffffffffffffffffffffffffffffffffffffffff160217905550565b600181565b60008180602001905181019061049b9190613aa6565b9050600160ff16816000015160ff1614156104c2576104bd8160200151610a44565b610523565b600260ff16816000015160ff1614156104e7576104e28160200151610f2e565b610522565b6040517f08c379a0000000000000000000000000000000000000000000000000000000008152600401610519906144cb565b60405180910390fd5b5b50505050565b60008060009054906101000a900473ffffffffffffffffffffffffffffffffffffffff16905090565b8273ffffffffffffffffffffffffffffffffffffffff1663a67a6a4583836040518363ffffffff1660e01b815260040161058d929190614454565b600060405180830381600087803b1580156105a757600080fd5b505af11580156105bb573d6000803e3d6000fd5b50505050505050565b600034111561065a578073ffffffffffffffffffffffffffffffffffffffff1663d0e30db0346040518263ffffffff1660e01b81526004016000604051808303818588803b15801561061557600080fd5b505af1158015610629573d6000803e3d6000fd5b505050505061065987348373ffffffffffffffffffffffffffffffffffffffff1661179d9092919063ffffffff16565b5b3073ffffffffffffffffffffffffffffffffffffffff166313af4035886040518263ffffffff1660e01b8152600401610693919061412a565b600060405180830381600087803b1580156106ad57600080fd5b505af11580156106c1573d6000803e3d6000fd5b5050505060005b865181101561073f5761072489898884815181106106e257fe5b60200260200101518a85815181106106f657fe5b602002602001015173ffffffffffffffffffffffffffffffffffffffff1661183f909392919063ffffffff16565b61073860018261190090919063ffffffff16565b90506106c8565b508673ffffffffffffffffffffffffffffffffffffffff16639165ad8b8585856040518463ffffffff1660e01b815260040161077d9392919061439a565b600060405180830381600087803b15801561079757600080fd5b505af11580156107ab573d6000803e3d6000fd5b505050503073ffffffffffffffffffffffffffffffffffffffff166313af4035896040518263ffffffff1660e01b81526004016107e8919061410f565b600060405180830381600087803b15801561080257600080fd5b505af1158015610816573d6000803e3d6000fd5b505050505050505050505050565b600160009054906101000a900473ffffffffffffffffffffffffffffffffffffffff1681565b610852610a3c565b73ffffffffffffffffffffffffffffffffffffffff16610870610529565b73ffffffffffffffffffffffffffffffffffffffff16146108f9576040517f08c379a00000000000000000000000000000000000000000000000000000000081526004018080602001828103825260208152602001807f4f776e61626c653a2063616c6c6572206973206e6f7420746865206f776e657281525060200191505060405180910390fd5b600073ffffffffffffffffffffffffffffffffffffffff168173ffffffffffffffffffffffffffffffffffffffff16141561097f576040517f08c379a0000000000000000000000000000000000000000000000000000000008152600401808060200182810382526026815260200180614a2d6026913960400191505060405180910390fd5b8073ffffffffffffffffffffffffffffffffffffffff1660008054906101000a900473ffffffffffffffffffffffffffffffffffffffff1673ffffffffffffffffffffffffffffffffffffffff167f8be0079c531659141344cd1fd0a4f28419497f9722a3daafe3b4186f6b6457e060405160405180910390a3806000806101000a81548173ffffffffffffffffffffffffffffffffffffffff021916908373ffffffffffffffffffffffffffffffffffffffff16021790555050565b600033905090565b600081806020019051810190610a5a9190613ae7565b90506000806000610a6a84611988565b925092509250836101800151831015610ab8576040517f08c379a0000000000000000000000000000000000000000000000000000000008152600401610aaf906144ab565b60405180910390fd5b836101a00151821015610b00576040517f08c379a0000000000000000000000000000000000000000000000000000000008152600401610af7906144ab565b60405180910390fd5b610b358460200151600160009054906101000a900473ffffffffffffffffffffffffffffffffffffffff168660400151611ba2565b600073ffffffffffffffffffffffffffffffffffffffff16600160009054906101000a900473ffffffffffffffffffffffffffffffffffffffff1673ffffffffffffffffffffffffffffffffffffffff1614610c2957600160009054906101000a900473ffffffffffffffffffffffffffffffffffffffff1673ffffffffffffffffffffffffffffffffffffffff1663651b8cb68560000151866020015187604001516040518463ffffffff1660e01b8152600401610bf693929190614276565b600060405180830381600087803b158015610c1057600080fd5b505af1158015610c24573d6000803e3d6000fd5b505050505b600073ffffffffffffffffffffffffffffffffffffffff16846102c0015173ffffffffffffffffffffffffffffffffffffffff1614610dd7576000846102c0015173ffffffffffffffffffffffffffffffffffffffff16856060015173ffffffffffffffffffffffffffffffffffffffff161415610ca957839050600093505b846102c0015173ffffffffffffffffffffffffffffffffffffffff16856080015173ffffffffffffffffffffffffffffffffffffffff161415610cee57829050600092505b6000811115610dd557846102c0015173ffffffffffffffffffffffffffffffffffffffff16632e1a7d4d826040518263ffffffff1660e01b8152600401610d3591906144eb565b600060405180830381600087803b158015610d4f57600080fd5b505af1158015610d63573d6000803e3d6000fd5b50505050846000015173ffffffffffffffffffffffffffffffffffffffff1681604051610d8f906140fa565b60006040518083038185875af1925050503d8060008114610dcc576040519150601f19603f3d011682016040523d82523d6000602084013e610dd1565b606091505b5050505b505b6000831180610deb57506000846101800151115b15610e2457610e23846000015184866060015173ffffffffffffffffffffffffffffffffffffffff1661179d9092919063ffffffff16565b5b6000821180610e3857506000846101a00151115b15610e7157610e70846000015183866080015173ffffffffffffffffffffffffffffffffffffffff1661179d9092919063ffffffff16565b5b6000811115610eae57610ead8460000151828660a0015173ffffffffffffffffffffffffffffffffffffffff1661179d9092919063ffffffff16565b5b610ed98460200151856103800151610ed460028860400151611c9390919063ffffffff16565b611ba2565b7fac0cbef1a8ac246924422e9ff961ee097263dc73ccb13c5780e2d048c6e228c584600001518561028001518660c001518760400151604051610f1f949392919061440f565b60405180910390a15050505050565b600081806020019051810190610f449190613a65565b9050610f818160e0015151826101800151518360200151846040015185606001518660a00151876101400151886101000151896101a00151611d19565b6000806000808460a00151111561112f57836080015173ffffffffffffffffffffffffffffffffffffffff16846020015173ffffffffffffffffffffffffffffffffffffffff161415610fda578360a00151925061112b565b83610100015115611062578360c001519250836060015173ffffffffffffffffffffffffffffffffffffffff16638d7ef9bb30856040518363ffffffff1660e01b815260040161102b92919061416e565b600060405180830381600087803b15801561104557600080fd5b505af1158015611059573d6000803e3d6000fd5b5050505061112a565b836040015173ffffffffffffffffffffffffffffffffffffffff166338ed17398560a0015160008760e00151308961038001516040518663ffffffff1660e01b81526004016110b5959493929190614506565b600060405180830381600087803b1580156110cf57600080fd5b505af11580156110e3573d6000803e3d6000fd5b505050506040513d6000823e3d601f19601f8201168201806040525081019061110c9190613a24565b60018560e0015151038151811061111f57fe5b602002602001015192505b5b8290505b600084610140015111156112dd5783610120015173ffffffffffffffffffffffffffffffffffffffff16846020015173ffffffffffffffffffffffffffffffffffffffff1614156111875783610140015191506112dc565b836101a0015115611210578361016001519150836060015173ffffffffffffffffffffffffffffffffffffffff16638d7ef9bb30846040518363ffffffff1660e01b81526004016111d992919061416e565b600060405180830381600087803b1580156111f357600080fd5b505af1158015611207573d6000803e3d6000fd5b505050506112db565b836040015173ffffffffffffffffffffffffffffffffffffffff166338ed17398561014001516000876101800151308961038001516040518663ffffffff1660e01b8152600401611265959493929190614506565b600060405180830381600087803b15801561127f57600080fd5b505af1158015611293573d6000803e3d6000fd5b505050506040513d6000823e3d601f19601f820116820180604052508101906112bc9190613a24565b60018561018001515103815181106112d057fe5b602002602001015191505b5b5b60006112f783866101e0015161190090919063ffffffff16565b111561155d576113278460800151856040015161132286886101c0015161190090919063ffffffff16565b611ba2565b611352846101200151856040015161134d85886101e0015161190090919063ffffffff16565b611ba2565b6000806000866040015173ffffffffffffffffffffffffffffffffffffffff1663e8e33700886080015189610120015161139a8a8c6101c0015161190090919063ffffffff16565b6113b28a8d6101e0015161190090919063ffffffff16565b600080308f61038001516040518963ffffffff1660e01b81526004016113df98979695949392919061431c565b606060405180830381600087803b1580156113f957600080fd5b505af115801561140d573d6000803e3d6000fd5b505050506040513d601f19601f820116820180604052508101906114319190613b8d565b925092509250809350600061146684611458898b6101c0015161190090919063ffffffff16565b611dd390919063ffffffff16565b11156114c9576114c8876000015161149e856114908a8c6101c0015161190090919063ffffffff16565b611dd390919063ffffffff16565b896080015173ffffffffffffffffffffffffffffffffffffffff1661179d9092919063ffffffff16565b5b60006114f5836114e7888b6101e0015161190090919063ffffffff16565b611dd390919063ffffffff16565b111561155957611558876000015161152d8461151f898c6101e0015161190090919063ffffffff16565b611dd390919063ffffffff16565b89610120015173ffffffffffffffffffffffffffffffffffffffff1661179d9092919063ffffffff16565b5b5050505b8361020001518110156115a5576040517f08c379a000000000000000000000000000000000000000000000000000000000815260040161159c9061448b565b60405180910390fd5b60006115bf8286610220015161190090919063ffffffff16565b9050611606856102400151866102600151876102800151886102a00151896102c001518a6102e001518b61030001518c6103200151898e61034001518f6103600151611e56565b61163c8560200151600160009054906101000a900473ffffffffffffffffffffffffffffffffffffffff16876103400151611ba2565b600073ffffffffffffffffffffffffffffffffffffffff16600160009054906101000a900473ffffffffffffffffffffffffffffffffffffffff1673ffffffffffffffffffffffffffffffffffffffff161461173157600160009054906101000a900473ffffffffffffffffffffffffffffffffffffffff1673ffffffffffffffffffffffffffffffffffffffff1663651b8cb6866000015187602001518861034001516040518463ffffffff1660e01b81526004016116fe93929190614276565b600060405180830381600087803b15801561171857600080fd5b505af115801561172c573d6000803e3d6000fd5b505050505b61174a8560200151866103a00151876103400151611ba2565b7f992628f13bc2e3ecd138e194a77dfb9fb7a85e5cb3823b6d5f1030f3dc5fc2b485600001518661032001518388610340015160405161178d949392919061440f565b60405180910390a1505050505050565b61183a8363a9059cbb60e01b8484604051602401808373ffffffffffffffffffffffffffffffffffffffff16815260200182815260200192505050604051602081830303815290604052907bffffffffffffffffffffffffffffffffffffffffffffffffffffffff19166020820180517bffffffffffffffffffffffffffffffffffffffffffffffffffffffff8381831617835250505050611f76565b505050565b6118fa846323b872dd60e01b858585604051602401808473ffffffffffffffffffffffffffffffffffffffff1681526020018373ffffffffffffffffffffffffffffffffffffffff1681526020018281526020019350505050604051602081830303815290604052907bffffffffffffffffffffffffffffffffffffffffffffffffffffffff19166020820180517bffffffffffffffffffffffffffffffffffffffffffffffffffffffff8381831617835250505050611f76565b50505050565b60008082840190508381101561197e576040517f08c379a000000000000000000000000000000000000000000000000000000000815260040180806020018281038252601b8152602001807f536166654d6174683a206164646974696f6e206f766572666c6f77000000000081525060200191505060405180910390fd5b8091505092915050565b60008060008360400151506119ce846101e001518561020001518661022001518761024001518861026001518961028001518a60c001518b604001518c60200151612065565b600080611b34604051806102200160405280886102a0015173ffffffffffffffffffffffffffffffffffffffff168152602001886060015173ffffffffffffffffffffffffffffffffffffffff168152602001886080015173ffffffffffffffffffffffffffffffffffffffff1681526020018860a0015173ffffffffffffffffffffffffffffffffffffffff1681526020018860e0015181526020018861018001518152602001886101a001518152602001886101c0015181526020018861010001518152602001886101200151815260200188610140015181526020018861016001518152602001886102e0015173ffffffffffffffffffffffffffffffffffffffff16815260200188610300015173ffffffffffffffffffffffffffffffffffffffff16815260200188610320015173ffffffffffffffffffffffffffffffffffffffff168152602001886103400151815260200188610360015181525061217f565b9150915060008073ffffffffffffffffffffffffffffffffffffffff168760a0015173ffffffffffffffffffffffffffffffffffffffff1614611b8f57611b8c8760e001518860c00151611dd390919063ffffffff16565b90505b8282829550955095505050509193909250565b808373ffffffffffffffffffffffffffffffffffffffff1663dd62ed3e30856040518363ffffffff1660e01b8152600401611bde929190614145565b60206040518083038186803b158015611bf657600080fd5b505afa158015611c0a573d6000803e3d6000fd5b505050506040513d601f19601f82011682018060405250810190611c2e9190613b28565b1015611c8e57611c608260008573ffffffffffffffffffffffffffffffffffffffff166126d09092919063ffffffff16565b611c8d826000198573ffffffffffffffffffffffffffffffffffffffff166126d09092919063ffffffff16565b5b505050565b600080831415611ca65760009050611d13565b6000828402905082848281611cb757fe5b0414611d0e576040517f08c379a0000000000000000000000000000000000000000000000000000000008152600401808060200182810382526021815260200180614a796021913960400191505060405180910390fd5b809150505b92915050565b60008060008b1115611d5c578315611d4557611d3e868261190090919063ffffffff16565b9050611d5b565b611d58868361190090919063ffffffff16565b91505b5b60008a1115611d9c578215611d8557611d7e858261190090919063ffffffff16565b9050611d9b565b611d98858361190090919063ffffffff16565b91505b5b6000821115611db157611db0898984611ba2565b5b6000811115611dc657611dc5898883611ba2565b5b5050505050505050505050565b600082821115611e4b576040517f08c379a000000000000000000000000000000000000000000000000000000000815260040180806020018281038252601e8152602001807f536166654d6174683a207375627472616374696f6e206f766572666c6f77000081525060200191505060405180910390fd5b818303905092915050565b611e618b8b85611ba2565b8973ffffffffffffffffffffffffffffffffffffffff16631cff79cd8a8a8a8a8a8a8a8a8a604051602401611e9d989796959493929190614197565b6040516020818303038152906040527fcbd4be3f000000000000000000000000000000000000000000000000000000007bffffffffffffffffffffffffffffffffffffffffffffffffffffffff19166020820180517bffffffffffffffffffffffffffffffffffffffffffffffffffffffff83818316178352505050506040518363ffffffff1660e01b8152600401611f379291906143df565b600060405180830381600087803b158015611f5157600080fd5b505af1158015611f65573d6000803e3d6000fd5b505050505050505050505050505050565b6000611fd8826040518060400160405280602081526020017f5361666545524332303a206c6f772d6c6576656c2063616c6c206661696c65648152508573ffffffffffffffffffffffffffffffffffffffff166128959092919063ffffffff16565b905060008151111561206057808060200190516020811015611ff957600080fd5b810190808051906020019092919050505061205f576040517f08c379a000000000000000000000000000000000000000000000000000000000815260040180806020018281038252602a815260200180614a9a602a913960400191505060405180910390fd5b5b505050565b612070818a84611ba2565b8873ffffffffffffffffffffffffffffffffffffffff16631cff79cd898989898989896040516024016120a896959493929190614215565b6040516020818303038152906040527fa6add011000000000000000000000000000000000000000000000000000000007bffffffffffffffffffffffffffffffffffffffffffffffffffffffff19166020820180517bffffffffffffffffffffffffffffffffffffffffffffffffffffffff83818316178352505050506040518363ffffffff1660e01b81526004016121429291906143df565b600060405180830381600087803b15801561215c57600080fd5b505af1158015612170573d6000803e3d6000fd5b50505050505050505050505050565b600080600080600080600073ffffffffffffffffffffffffffffffffffffffff16876040015173ffffffffffffffffffffffffffffffffffffffff1614612492576121d7876060015188600001518960800151611ba2565b866000015173ffffffffffffffffffffffffffffffffffffffff1663baa2abde886020015189604001518a60800151600080308e60e001516040518863ffffffff1660e01b815260040161223197969594939291906142ad565b6040805180830381600087803b15801561224a57600080fd5b505af115801561225e573d6000803e3d6000fd5b505050506040513d601f19601f820116820180604052508101906122829190613b51565b80945081955050506000876101200151111561248d5760008761016001515114156122b457866101200151905061248c565b866040015173ffffffffffffffffffffffffffffffffffffffff1687610180015173ffffffffffffffffffffffffffffffffffffffff16141561238e5761230a8760400151886101a00151896101e00151611ba2565b866101c0015173ffffffffffffffffffffffffffffffffffffffff16639599127630896101e001516040518363ffffffff1660e01b815260040161234f92919061416e565b600060405180830381600087803b15801561236957600080fd5b505af115801561237d573d6000803e3d6000fd5b50505050866101e00151905061248b565b6123b4876040015188600001516123af600287611c9390919063ffffffff16565b611ba2565b866000015173ffffffffffffffffffffffffffffffffffffffff16638803dbee8861012001516123f18a60c0015187611dd390919063ffffffff16565b8a6101600151308c60e001516040518663ffffffff1660e01b815260040161241d959493929190614560565b600060405180830381600087803b15801561243757600080fd5b505af115801561244b573d6000803e3d6000fd5b505050506040513d6000823e3d601f19601f820116820180604052508101906124749190613a24565b60008151811061248057fe5b602002602001015190505b5b5b61249a565b866080015193505b6000876101000151111561269d5760008761014001515114156124c457866101000151915061269c565b866020015173ffffffffffffffffffffffffffffffffffffffff1687610180015173ffffffffffffffffffffffffffffffffffffffff16141561259e5761251a8760200151886101a00151896101e00151611ba2565b866101c0015173ffffffffffffffffffffffffffffffffffffffff16639599127630896101e001516040518363ffffffff1660e01b815260040161255f92919061416e565b600060405180830381600087803b15801561257957600080fd5b505af115801561258d573d6000803e3d6000fd5b50505050866101e00151915061269b565b6125c4876020015188600001516125bf600288611c9390919063ffffffff16565b611ba2565b866000015173ffffffffffffffffffffffffffffffffffffffff16638803dbee8861010001516126018a60a0015188611dd390919063ffffffff16565b8a6101400151308c60e001516040518663ffffffff1660e01b815260040161262d959493929190614560565b600060405180830381600087803b15801561264757600080fd5b505af115801561265b573d6000803e3d6000fd5b505050506040513d6000823e3d601f19601f820116820180604052508101906126849190613a24565b60008151811061269057fe5b602002602001015191505b5b5b6126b08285611dd390919063ffffffff16565b6126c38285611dd390919063ffffffff16565b9550955050505050915091565b600081148061279e575060008373ffffffffffffffffffffffffffffffffffffffff1663dd62ed3e30856040518363ffffffff1660e01b8152600401808373ffffffffffffffffffffffffffffffffffffffff1681526020018273ffffffffffffffffffffffffffffffffffffffff1681526020019250505060206040518083038186803b15801561276157600080fd5b505afa158015612775573d6000803e3d6000fd5b505050506040513d602081101561278b57600080fd5b8101908080519060200190929190505050145b6127f3576040517f08c379a0000000000000000000000000000000000000000000000000000000008152600401808060200182810382526036815260200180614ac46036913960400191505060405180910390fd5b6128908363095ea7b360e01b8484604051602401808373ffffffffffffffffffffffffffffffffffffffff16815260200182815260200192505050604051602081830303815290604052907bffffffffffffffffffffffffffffffffffffffffffffffffffffffff19166020820180517bffffffffffffffffffffffffffffffffffffffffffffffffffffffff8381831617835250505050611f76565b505050565b60606128a484846000856128ad565b90509392505050565b606082471015612908576040517f08c379a0000000000000000000000000000000000000000000000000000000008152600401808060200182810382526026815260200180614a536026913960400191505060405180910390fd5b61291185612a55565b612983576040517f08c379a000000000000000000000000000000000000000000000000000000000815260040180806020018281038252601d8152602001807f416464726573733a2063616c6c20746f206e6f6e2d636f6e747261637400000081525060200191505060405180910390fd5b6000808673ffffffffffffffffffffffffffffffffffffffff1685876040518082805190602001908083835b602083106129d257805182526020820191506020810190506020830392506129af565b6001836020036101000a03801982511681845116808217855250505050505090500191505060006040518083038185875af1925050503d8060008114612a34576040519150601f19603f3d011682016040523d82523d6000602084013e612a39565b606091505b5091509150612a49828286612a68565b92505050949350505050565b600080823b905060008111915050919050565b60608315612a7857829050612b2d565b600083511115612a8b5782518084602001fd5b816040517f08c379a00000000000000000000000000000000000000000000000000000000081526004018080602001828103825283818151815260200191508051906020019080838360005b83811015612af2578082015181840152602081019050612ad7565b50505050905090810190601f168015612b1f5780820380516001836020036101000a031916815260200191505b509250505060405180910390fd5b9392505050565b6000612b47612b4284614606565b6145d5565b90508083825260208201905082856020860282011115612b6657600080fd5b60005b85811015612b965781612b7c8882612e29565b845260208401935060208301925050600181019050612b69565b5050509392505050565b6000612bb3612bae84614606565b6145d5565b90508083825260208201905082856020860282011115612bd257600080fd5b60005b85811015612c025781612be88882612e3e565b845260208401935060208301925050600181019050612bd5565b5050509392505050565b6000612c1f612c1a84614632565b6145d5565b9050808382526020820190508260005b85811015612c5f5781358501612c458882613021565b845260208401935060208301925050600181019050612c2f565b5050509392505050565b6000612c7c612c778461465e565b6145d5565b90508083825260208201905082856040860282011115612c9b57600080fd5b60005b85811015612ccb5781612cb18882613176565b845260208401935060408301925050600181019050612c9e565b5050509392505050565b6000612ce8612ce38461468a565b6145d5565b90508083825260208201905082856020860282011115612d0757600080fd5b60005b85811015612d375781612d1d88826137c4565b845260208401935060208301925050600181019050612d0a565b5050509392505050565b6000612d54612d4f8461468a565b6145d5565b90508083825260208201905082856020860282011115612d7357600080fd5b60005b85811015612da35781612d8988826137d9565b845260208401935060208301925050600181019050612d76565b5050509392505050565b6000612dc0612dbb846146b6565b6145d5565b905082815260208101848484011115612dd857600080fd5b612de38482856148f8565b509392505050565b6000612dfe612df9846146b6565b6145d5565b905082815260208101848484011115612e1657600080fd5b612e21848285614907565b509392505050565b600081359050612e3881614989565b92915050565b600081519050612e4d81614989565b92915050565b600081359050612e62816149a0565b92915050565b600082601f830112612e7957600080fd5b8135612e89848260208601612b34565b91505092915050565b600082601f830112612ea357600080fd5b8151612eb3848260208601612ba0565b91505092915050565b600082601f830112612ecd57600080fd5b8135612edd848260208601612c0c565b91505092915050565b600082601f830112612ef757600080fd5b8135612f07848260208601612c69565b91505092915050565b600082601f830112612f2157600080fd5b8135612f31848260208601612cd5565b91505092915050565b600082601f830112612f4b57600080fd5b8151612f5b848260208601612d41565b91505092915050565b600081359050612f73816149b7565b92915050565b600081519050612f88816149b7565b92915050565b600082601f830112612f9f57600080fd5b8135612faf848260208601612dad565b91505092915050565b600082601f830112612fc957600080fd5b8151612fd9848260208601612deb565b91505092915050565b600081359050612ff1816149ce565b92915050565b600081359050613006816149de565b92915050565b60008135905061301b816149ee565b92915050565b6000610160828403121561303457600080fd5b61303f6101006145d5565b9050600061304f84828501612fe2565b6000830152506020613063848285016137c4565b602083015250604061307784828501613102565b60408301525060c061308b848285016137c4565b60608301525060e061309f848285016137c4565b6080830152506101006130b484828501612e29565b60a0830152506101206130c9848285016137c4565b60c08301525061014082013567ffffffffffffffff8111156130ea57600080fd5b6130f684828501612f8e565b60e08301525092915050565b60006080828403121561311457600080fd5b61311e60806145d5565b9050600061312e84828501612f64565b600083015250602061314284828501612ff7565b60208301525060406131568482850161300c565b604083015250606061316a848285016137c4565b60608301525092915050565b60006040828403121561318857600080fd5b61319260406145d5565b905060006131a284828501612e29565b60008301525060206131b6848285016137c4565b60208301525092915050565b60006103c082840312156131d557600080fd5b6131e06103c06145d5565b905060006131f084828501612e3e565b600083015250602061320484828501612e3e565b602083015250604061321884828501612e3e565b604083015250606061322c84828501612e3e565b606083015250608061324084828501612e3e565b60808301525060a0613254848285016137d9565b60a08301525060c0613268848285016137d9565b60c08301525060e082015167ffffffffffffffff81111561328857600080fd5b61329484828501612e92565b60e0830152506101006132a984828501612f79565b610100830152506101206132bf84828501612e3e565b610120830152506101406132d5848285016137d9565b610140830152506101606132eb848285016137d9565b6101608301525061018082015167ffffffffffffffff81111561330d57600080fd5b61331984828501612e92565b610180830152506101a061332f84828501612f79565b6101a0830152506101c0613345848285016137d9565b6101c0830152506101e061335b848285016137d9565b6101e083015250610200613371848285016137d9565b61020083015250610220613387848285016137d9565b6102208301525061024061339d84828501612e3e565b610240830152506102606133b384828501612e3e565b610260830152506102806133c984828501612e3e565b610280830152506102a06133df84828501612e3e565b6102a0830152506102c06133f584828501612e3e565b6102c0830152506102e061340b84828501612e3e565b6102e08301525061030061342184828501612e3e565b61030083015250610320613437848285016137d9565b6103208301525061034061344d848285016137d9565b6103408301525061036061346384828501612f79565b61036083015250610380613479848285016137d9565b610380830152506103a061348f84828501612e3e565b6103a08301525092915050565b6000604082840312156134ae57600080fd5b6134b860406145d5565b905060006134c8848285016137ee565b600083015250602082015167ffffffffffffffff8111156134e857600080fd5b6134f484828501612fb8565b60208301525092915050565b60006103a0828403121561351357600080fd5b61351e6103a06145d5565b9050600061352e84828501612e3e565b600083015250602061354284828501612e3e565b6020830152506040613556848285016137d9565b604083015250606061356a84828501612e3e565b606083015250608061357e84828501612e3e565b60808301525060a061359284828501612e3e565b60a08301525060c06135a6848285016137d9565b60c08301525060e06135ba848285016137d9565b60e0830152506101006135cf848285016137d9565b610100830152506101206135e5848285016137d9565b6101208301525061014082015167ffffffffffffffff81111561360757600080fd5b61361384828501612e92565b6101408301525061016082015167ffffffffffffffff81111561363557600080fd5b61364184828501612e92565b61016083015250610180613657848285016137d9565b610180830152506101a061366d848285016137d9565b6101a0830152506101c0613683848285016137d9565b6101c0830152506101e061369984828501612e3e565b6101e0830152506102006136af84828501612e3e565b610200830152506102206136c584828501612e3e565b610220830152506102406136db84828501612e3e565b610240830152506102606136f184828501612e3e565b61026083015250610280613707848285016137d9565b610280830152506102a061371d84828501612e3e565b6102a0830152506102c061373384828501612e3e565b6102c0830152506102e061374984828501612e3e565b6102e08301525061030061375f84828501612e3e565b6103008301525061032061377584828501612e3e565b6103208301525061034061378b848285016137d9565b610340830152506103606137a1848285016137d9565b610360830152506103806137b784828501612e3e565b6103808301525092915050565b6000813590506137d3816149fe565b92915050565b6000815190506137e8816149fe565b92915050565b6000815190506137fd81614a15565b92915050565b60006020828403121561381557600080fd5b600061382384828501612e29565b91505092915050565b600080600080600080600080610100898b03121561384957600080fd5b60006138578b828c01612e29565b98505060206138688b828c01612e53565b975050604089013567ffffffffffffffff81111561388557600080fd5b6138918b828c01612e68565b965050606089013567ffffffffffffffff8111156138ae57600080fd5b6138ba8b828c01612f10565b95505060806138cb8b828c01612e29565b94505060a089013567ffffffffffffffff8111156138e857600080fd5b6138f48b828c01612ee6565b93505060c089013567ffffffffffffffff81111561391157600080fd5b61391d8b828c01612ebc565b92505060e061392e8b828c01612e29565b9150509295985092959890939650565b60008060006060848603121561395357600080fd5b600061396186828701612e29565b935050602084013567ffffffffffffffff81111561397e57600080fd5b61398a86828701612ee6565b925050604084013567ffffffffffffffff8111156139a757600080fd5b6139b386828701612ebc565b9150509250925092565b6000806000608084860312156139d257600080fd5b60006139e086828701612e29565b93505060206139f186828701613176565b925050606084013567ffffffffffffffff811115613a0e57600080fd5b613a1a86828701612f8e565b9150509250925092565b600060208284031215613a3657600080fd5b600082015167ffffffffffffffff811115613a5057600080fd5b613a5c84828501612f3a565b91505092915050565b600060208284031215613a7757600080fd5b600082015167ffffffffffffffff811115613a9157600080fd5b613a9d848285016131c2565b91505092915050565b600060208284031215613ab857600080fd5b600082015167ffffffffffffffff811115613ad257600080fd5b613ade8482850161349c565b91505092915050565b600060208284031215613af957600080fd5b600082015167ffffffffffffffff811115613b1357600080fd5b613b1f84828501613500565b91505092915050565b600060208284031215613b3a57600080fd5b6000613b48848285016137d9565b91505092915050565b60008060408385031215613b6457600080fd5b6000613b72858286016137d9565b9250506020613b83858286016137d9565b9150509250929050565b600080600060608486031215613ba257600080fd5b6000613bb0868287016137d9565b9350506020613bc1868287016137d9565b9250506040613bd2868287016137d9565b9150509250925092565b6000613be88383613c2f565b60208301905092915050565b6000613c008383613f96565b905092915050565b6000613c14838361409e565b60408301905092915050565b613c298161487a565b82525050565b613c38816147da565b82525050565b613c47816147da565b82525050565b6000613c5882614716565b613c628185614769565b9350613c6d836146e6565b8060005b83811015613c9e578151613c858882613bdc565b9750613c9083614742565b925050600181019050613c71565b5085935050505092915050565b6000613cb682614721565b613cc0818561477a565b935083602082028501613cd2856146f6565b8060005b85811015613d0e5784840389528151613cef8582613bf4565b9450613cfa8361474f565b925060208a01995050600181019050613cd6565b50829750879550505050505092915050565b6000613d2b8261472c565b613d35818561478b565b9350613d4083614706565b8060005b83811015613d71578151613d588882613c08565b9750613d638361475c565b925050600181019050613d44565b5085935050505092915050565b613d87816147fe565b82525050565b613d96816147fe565b82525050565b6000613da782614737565b613db1818561479c565b9350613dc1818560208601614907565b613dca8161493c565b840191505092915050565b6000613de082614737565b613dea81856147ad565b9350613dfa818560208601614907565b613e038161493c565b840191505092915050565b613e178161488c565b82525050565b613e268161489e565b82525050565b613e35816148b0565b82525050565b613e44816148c2565b82525050565b6000613e576041836147c9565b91507f4465756e6966693a20426f7567687420636f6c6c61746572616c206c6f77657260008301527f207468616e20657870656374656420636f6c6c61746572616c20746f2062757960208301527f2e000000000000000000000000000000000000000000000000000000000000006040830152606082019050919050565b6000613ee3602d836147c9565b91507f4465756e6966693a2052656d61696e696e6720746f6b656e206c6f776572207460008301527f68616e2065787065637465642e000000000000000000000000000000000000006020830152604082019050919050565b6000613f496000836147be565b9150600082019050919050565b6000613f63601b836147c9565b91507f4465756e6966693a20496e76616c6964206f7065726174696f6e2e00000000006000830152602082019050919050565b600061016083016000830151613faf6000860182613e0e565b506020830151613fc260208601826140cd565b506040830151613fd56040860182614049565b506060830151613fe860c08601826140cd565b506080830151613ffb60e08601826140cd565b5060a083015161400f610100860182613c2f565b5060c08301516140236101208601826140cd565b5060e083015184820361014086015261403c8282613d9c565b9150508091505092915050565b60808201600082015161405f6000850182613d7e565b5060208201516140726020850182613e1d565b5060408201516140856040850182613e2c565b50606082015161409860608501826140cd565b50505050565b6040820160008201516140b46000850182613c2f565b5060208201516140c760208501826140cd565b50505050565b6140d681614863565b82525050565b6140e581614863565b82525050565b6140f48161486d565b82525050565b600061410582613f3c565b9150819050919050565b60006020820190506141246000830184613c3e565b92915050565b600060208201905061413f6000830184613c20565b92915050565b600060408201905061415a6000830185613c20565b6141676020830184613c3e565b9392505050565b60006040820190506141836000830185613c20565b61419060208301846140dc565b9392505050565b6000610100820190506141ad600083018b613c3e565b6141ba602083018a613c3e565b6141c76040830189613c3e565b6141d46060830188613c3e565b6141e160808301876140dc565b6141ee60a08301866140dc565b6141fb60c08301856140dc565b61420860e0830184613d8d565b9998505050505050505050565b600060c08201905061422a6000830189613c3e565b6142376020830188613c3e565b6142446040830187613c3e565b61425160608301866140dc565b61425e60808301856140dc565b61426b60a08301846140dc565b979650505050505050565b600060608201905061428b6000830186613c3e565b6142986020830185613c3e565b6142a560408301846140dc565b949350505050565b600060e0820190506142c2600083018a613c3e565b6142cf6020830189613c3e565b6142dc60408301886140dc565b6142e96060830187613e3b565b6142f66080830186613e3b565b61430360a0830185613c20565b61431060c08301846140dc565b98975050505050505050565b600061010082019050614332600083018b613c3e565b61433f602083018a613c3e565b61434c60408301896140dc565b61435960608301886140dc565b6143666080830187613e3b565b61437360a0830186613e3b565b61438060c0830185613c20565b61438d60e08301846140dc565b9998505050505050505050565b60006060820190506143af6000830186613c3e565b81810360208301526143c18185613d20565b905081810360408301526143d58184613cab565b9050949350505050565b60006040820190506143f46000830185613c3e565b81810360208301526144068184613dd5565b90509392505050565b60006080820190506144246000830187613c3e565b61443160208301866140dc565b61443e60408301856140dc565b61444b60608301846140dc565b95945050505050565b6000604082019050818103600083015261446e8185613d20565b905081810360208301526144828184613cab565b90509392505050565b600060208201905081810360008301526144a481613e4a565b9050919050565b600060208201905081810360008301526144c481613ed6565b9050919050565b600060208201905081810360008301526144e481613f56565b9050919050565b600060208201905061450060008301846140dc565b92915050565b600060a08201905061451b60008301886140dc565b6145286020830187613e3b565b818103604083015261453a8186613c4d565b90506145496060830185613c20565b61455660808301846140dc565b9695505050505050565b600060a08201905061457560008301886140dc565b61458260208301876140dc565b81810360408301526145948186613c4d565b90506145a36060830185613c20565b6145b060808301846140dc565b9695505050505050565b60006020820190506145cf60008301846140eb565b92915050565b6000604051905081810181811067ffffffffffffffff821117156145fc576145fb61493a565b5b8060405250919050565b600067ffffffffffffffff8211156146215761462061493a565b5b602082029050602081019050919050565b600067ffffffffffffffff82111561464d5761464c61493a565b5b602082029050602081019050919050565b600067ffffffffffffffff8211156146795761467861493a565b5b602082029050602081019050919050565b600067ffffffffffffffff8211156146a5576146a461493a565b5b602082029050602081019050919050565b600067ffffffffffffffff8211156146d1576146d061493a565b5b601f19601f8301169050602081019050919050565b6000819050602082019050919050565b6000819050602082019050919050565b6000819050602082019050919050565b600081519050919050565b600081519050919050565b600081519050919050565b600081519050919050565b6000602082019050919050565b6000602082019050919050565b6000602082019050919050565b600082825260208201905092915050565b600082825260208201905092915050565b600082825260208201905092915050565b600082825260208201905092915050565b600082825260208201905092915050565b600081905092915050565b600082825260208201905092915050565b60006147e582614843565b9050919050565b60006147f782614843565b9050919050565b60008115159050919050565b60008190506148188261494d565b919050565b600081905061482b82614961565b919050565b600081905061483e82614975565b919050565b600073ffffffffffffffffffffffffffffffffffffffff82169050919050565b6000819050919050565b600060ff82169050919050565b6000614885826148d4565b9050919050565b60006148978261480a565b9050919050565b60006148a98261481d565b9050919050565b60006148bb82614830565b9050919050565b60006148cd82614863565b9050919050565b60006148df826148e6565b9050919050565b60006148f182614843565b9050919050565b82818337600083830152505050565b60005b8381101561492557808201518184015260208101905061490a565b83811115614934576000848401525b50505050565bfe5b6000601f19601f8301169050919050565b6009811061495e5761495d61493a565b5b50565b600281106149725761497161493a565b5b50565b600281106149865761498561493a565b5b50565b614992816147da565b811461499d57600080fd5b50565b6149a9816147ec565b81146149b457600080fd5b50565b6149c0816147fe565b81146149cb57600080fd5b50565b600981106149db57600080fd5b50565b600281106149eb57600080fd5b50565b600281106149fb57600080fd5b50565b614a0781614863565b8114614a1257600080fd5b50565b614a1e8161486d565b8114614a2957600080fd5b5056fe4f776e61626c653a206e6577206f776e657220697320746865207a65726f2061646472657373416464726573733a20696e73756666696369656e742062616c616e636520666f722063616c6c536166654d6174683a206d756c7469706c69636174696f6e206f766572666c6f775361666545524332303a204552433230206f7065726174696f6e20646964206e6f7420737563636565645361666545524332303a20617070726f76652066726f6d206e6f6e2d7a65726f20746f206e6f6e2d7a65726f20616c6c6f77616e6365a264697066735822122039389754773011348b1fea4b559f76064225d7566356089377f20281b668dd4564736f6c63430007060033",
  "devdoc": {
    "kind": "dev",
    "methods": {
      "owner()": {
        "details": "Returns the address of the current owner."
      },
      "renounceOwnership()": {
        "details": "Leaves the contract without owner. It will not be possible to call `onlyOwner` functions anymore. Can only be called by the current owner. NOTE: Renouncing ownership will leave the contract without an owner, thereby removing any functionality that is only available to the owner."
      },
      "transferOwnership(address)": {
        "details": "Transfers ownership of the contract to a new account (`newOwner`). Can only be called by the current owner."
      }
    },
    "version": 1
  },
  "userdoc": {
    "kind": "user",
    "methods": {
      "callOperate(address,(address,uint256)[],(uint8,uint256,(bool,uint8,uint8,uint256),uint256,uint256,address,uint256,bytes)[])": {
        "notice": "To call SoloMargin.operate from Deunifi, instead of DssProxy (required by SoloMargin)."
      },
      "flashLoanFromDSProxy(address,address,address[],uint256[],address,(address,uint256)[],(uint8,uint256,(bool,uint8,uint8,uint256),uint256,uint256,address,uint256,bytes)[],address)": {
        "notice": "Executed as DSProxy."
      }
    },
    "version": 1
  },
  "storageLayout": {
    "storage": [
      {
        "astId": 7,
        "contract": "contracts/Deunifi.sol:Deunifi",
        "label": "_owner",
        "offset": 0,
        "slot": "0",
        "type": "t_address"
      },
      {
        "astId": 1829,
        "contract": "contracts/Deunifi.sol:Deunifi",
        "label": "feeManager",
        "offset": 0,
        "slot": "1",
        "type": "t_address"
      }
    ],
    "types": {
      "t_address": {
        "encoding": "inplace",
        "label": "address",
        "numberOfBytes": "20"
      }
    }
  }
}