{
  "address": "0x2CaacC48F4E5649Ee4BE1aE962084da9d33C085F",
  "abi": [
    {
      "anonymous": false,
      "inputs": [
        {
          "indexed": true,
          "internalType": "address",
          "name": "previousOwner",
          "type": "address"
        },
        {
          "indexed": true,
          "internalType": "address",
          "name": "newOwner",
          "type": "address"
        }
      ],
      "name": "OwnershipTransferred",
      "type": "event"
    },
    {
      "inputs": [],
      "name": "FLASHLOAN_PREMIUM_TOTAL",
      "outputs": [
        {
          "internalType": "uint256",
          "name": "",
          "type": "uint256"
        }
      ],
      "stateMutability": "view",
      "type": "function"
    },
    {
      "inputs": [
        {
          "internalType": "address",
          "name": "receiverAddress",
          "type": "address"
        },
        {
          "internalType": "address[]",
          "name": "assets",
          "type": "address[]"
        },
        {
          "internalType": "uint256[]",
          "name": "amounts",
          "type": "uint256[]"
        },
        {
          "internalType": "uint256[]",
          "name": "modes",
          "type": "uint256[]"
        },
        {
          "internalType": "address",
          "name": "onBehalfOf",
          "type": "address"
        },
        {
          "internalType": "bytes",
          "name": "params",
          "type": "bytes"
        },
        {
          "internalType": "uint16",
          "name": "referralCode",
          "type": "uint16"
        }
      ],
      "name": "flashLoan",
      "outputs": [],
      "stateMutability": "nonpayable",
      "type": "function"
    },
    {
      "inputs": [],
      "name": "owner",
      "outputs": [
        {
          "internalType": "address",
          "name": "",
          "type": "address"
        }
      ],
      "stateMutability": "view",
      "type": "function"
    },
    {
      "inputs": [],
      "name": "renounceOwnership",
      "outputs": [],
      "stateMutability": "nonpayable",
      "type": "function"
    },
    {
      "inputs": [
        {
          "internalType": "address",
          "name": "newOwner",
          "type": "address"
        }
      ],
      "name": "transferOwnership",
      "outputs": [],
      "stateMutability": "nonpayable",
      "type": "function"
    },
    {
      "inputs": [
        {
          "internalType": "address",
          "name": "token",
          "type": "address"
        },
        {
          "internalType": "address",
          "name": "to",
          "type": "address"
        },
        {
          "internalType": "uint256",
          "name": "amount",
          "type": "uint256"
        }
      ],
      "name": "withdraw",
      "outputs": [],
      "stateMutability": "nonpayable",
      "type": "function"
    }
  ],
  "transactionHash": "0x2e60a985ac279424d45a1a7012d72fc914136935db462b0569e2f9fea47b736e",
  "args": [],
  "solcInputHash": "05287afcaf790e0cad697fe9811caf63",
  "bytecode": "0x608060405234801561001057600080fd5b5060006100216100c460201b60201c565b9050806000806101000a81548173ffffffffffffffffffffffffffffffffffffffff021916908373ffffffffffffffffffffffffffffffffffffffff1602179055508073ffffffffffffffffffffffffffffffffffffffff16600073ffffffffffffffffffffffffffffffffffffffff167f8be0079c531659141344cd1fd0a4f28419497f9722a3daafe3b4186f6b6457e060405160405180910390a3506100cc565b600033905090565b61132c806100db6000396000f3fe608060405234801561001057600080fd5b50600436106100625760003560e01c8063074b2e4314610067578063715018a6146100855780638da5cb5b1461008f578063ab9c4b5d146100c3578063d9caed1214610289578063f2fde38b146102f7575b600080fd5b61006f61033b565b6040518082815260200191505060405180910390f35b61008d610344565b005b6100976104b1565b604051808273ffffffffffffffffffffffffffffffffffffffff16815260200191505060405180910390f35b610287600480360360e08110156100d957600080fd5b81019080803573ffffffffffffffffffffffffffffffffffffffff1690602001909291908035906020019064010000000081111561011657600080fd5b82018360208201111561012857600080fd5b8035906020019184602083028401116401000000008311171561014a57600080fd5b90919293919293908035906020019064010000000081111561016b57600080fd5b82018360208201111561017d57600080fd5b8035906020019184602083028401116401000000008311171561019f57600080fd5b9091929391929390803590602001906401000000008111156101c057600080fd5b8201836020820111156101d257600080fd5b803590602001918460208302840111640100000000831117156101f457600080fd5b9091929391929390803573ffffffffffffffffffffffffffffffffffffffff1690602001909291908035906020019064010000000081111561023557600080fd5b82018360208201111561024757600080fd5b8035906020019184600183028401116401000000008311171561026957600080fd5b9091929391929390803561ffff1690602001909291905050506104da565b005b6102f56004803603606081101561029f57600080fd5b81019080803573ffffffffffffffffffffffffffffffffffffffff169060200190929190803573ffffffffffffffffffffffffffffffffffffffff1690602001909291908035906020019092919050505061085d565b005b6103396004803603602081101561030d57600080fd5b81019080803573ffffffffffffffffffffffffffffffffffffffff1690602001909291905050506109dd565b005b60006009905090565b61034c610bcf565b73ffffffffffffffffffffffffffffffffffffffff1661036a6104b1565b73ffffffffffffffffffffffffffffffffffffffff16146103f3576040517f08c379a00000000000000000000000000000000000000000000000000000000081526004018080602001828103825260208152602001807f4f776e61626c653a2063616c6c6572206973206e6f7420746865206f776e657281525060200191505060405180910390fd5b600073ffffffffffffffffffffffffffffffffffffffff1660008054906101000a900473ffffffffffffffffffffffffffffffffffffffff1673ffffffffffffffffffffffffffffffffffffffff167f8be0079c531659141344cd1fd0a4f28419497f9722a3daafe3b4186f6b6457e060405160405180910390a360008060006101000a81548173ffffffffffffffffffffffffffffffffffffffff021916908373ffffffffffffffffffffffffffffffffffffffff160217905550565b60008060009054906101000a900473ffffffffffffffffffffffffffffffffffffffff16905090565b60008a8a905067ffffffffffffffff811180156104f657600080fd5b506040519080825280602002602001820160405280156105255781602001602082028036833780820191505090505b50905060005b8b8b90508110156106085761059b8d8b8b8481811061054657fe5b905060200201358e8e8581811061055957fe5b9050602002013573ffffffffffffffffffffffffffffffffffffffff1673ffffffffffffffffffffffffffffffffffffffff16610bd79092919063ffffffff16565b6105d56127106105c760098d8d868181106105b257fe5b90506020020135610c7990919063ffffffff16565b610cff90919063ffffffff16565b8282815181106105e157fe5b602002602001018181525050610601600182610d8890919063ffffffff16565b905061052b565b508b73ffffffffffffffffffffffffffffffffffffffff1663920f5c848c8c8c8c86338b8b6040518963ffffffff1660e01b8152600401808060200180602001806020018773ffffffffffffffffffffffffffffffffffffffff1681526020018060200185810385528d8d82818152602001925060200280828437600081840152601f19601f82011690508083019250505085810384528b8b82818152602001925060200280828437600081840152601f19601f820116905080830192505050858103835289818151815260200191508051906020019060200280838360005b838110156107035780820151818401526020810190506106e8565b505050509050018581038252878782818152602001925080828437600081840152601f19601f8201169050808301925050509c50505050505050505050505050602060405180830381600087803b15801561075d57600080fd5b505af1158015610771573d6000803e3d6000fd5b505050506040513d602081101561078757600080fd5b81019080805190602001909291905050505060005b8b8b905081101561084e576108338d306107e48585815181106107bb57fe5b60200260200101518e8e878181106107cf57fe5b90506020020135610d8890919063ffffffff16565b8f8f868181106107f057fe5b9050602002013573ffffffffffffffffffffffffffffffffffffffff1673ffffffffffffffffffffffffffffffffffffffff16610e10909392919063ffffffff16565b610847600182610d8890919063ffffffff16565b905061079c565b50505050505050505050505050565b610865610bcf565b73ffffffffffffffffffffffffffffffffffffffff166108836104b1565b73ffffffffffffffffffffffffffffffffffffffff161461090c576040517f08c379a00000000000000000000000000000000000000000000000000000000081526004018080602001828103825260208152602001807f4f776e61626c653a2063616c6c6572206973206e6f7420746865206f776e657281525060200191505060405180910390fd5b600073ffffffffffffffffffffffffffffffffffffffff168373ffffffffffffffffffffffffffffffffffffffff1614156109ac578173ffffffffffffffffffffffffffffffffffffffff168160405180600001905060006040518083038185875af1925050503d806000811461099f576040519150601f19603f3d011682016040523d82523d6000602084013e6109a4565b606091505b5050506109d8565b6109d782828573ffffffffffffffffffffffffffffffffffffffff16610bd79092919063ffffffff16565b5b505050565b6109e5610bcf565b73ffffffffffffffffffffffffffffffffffffffff16610a036104b1565b73ffffffffffffffffffffffffffffffffffffffff1614610a8c576040517f08c379a00000000000000000000000000000000000000000000000000000000081526004018080602001828103825260208152602001807f4f776e61626c653a2063616c6c6572206973206e6f7420746865206f776e657281525060200191505060405180910390fd5b600073ffffffffffffffffffffffffffffffffffffffff168173ffffffffffffffffffffffffffffffffffffffff161415610b12576040517f08c379a00000000000000000000000000000000000000000000000000000000081526004018080602001828103825260268152602001806112606026913960400191505060405180910390fd5b8073ffffffffffffffffffffffffffffffffffffffff1660008054906101000a900473ffffffffffffffffffffffffffffffffffffffff1673ffffffffffffffffffffffffffffffffffffffff167f8be0079c531659141344cd1fd0a4f28419497f9722a3daafe3b4186f6b6457e060405160405180910390a3806000806101000a81548173ffffffffffffffffffffffffffffffffffffffff021916908373ffffffffffffffffffffffffffffffffffffffff16021790555050565b600033905090565b610c748363a9059cbb60e01b8484604051602401808373ffffffffffffffffffffffffffffffffffffffff16815260200182815260200192505050604051602081830303815290604052907bffffffffffffffffffffffffffffffffffffffffffffffffffffffff19166020820180517bffffffffffffffffffffffffffffffffffffffffffffffffffffffff8381831617835250505050610ed1565b505050565b600080831415610c8c5760009050610cf9565b6000828402905082848281610c9d57fe5b0414610cf4576040517f08c379a00000000000000000000000000000000000000000000000000000000081526004018080602001828103825260218152602001806112ac6021913960400191505060405180910390fd5b809150505b92915050565b6000808211610d76576040517f08c379a000000000000000000000000000000000000000000000000000000000815260040180806020018281038252601a8152602001807f536166654d6174683a206469766973696f6e206279207a65726f00000000000081525060200191505060405180910390fd5b818381610d7f57fe5b04905092915050565b600080828401905083811015610e06576040517f08c379a000000000000000000000000000000000000000000000000000000000815260040180806020018281038252601b8152602001807f536166654d6174683a206164646974696f6e206f766572666c6f77000000000081525060200191505060405180910390fd5b8091505092915050565b610ecb846323b872dd60e01b858585604051602401808473ffffffffffffffffffffffffffffffffffffffff1681526020018373ffffffffffffffffffffffffffffffffffffffff1681526020018281526020019350505050604051602081830303815290604052907bffffffffffffffffffffffffffffffffffffffffffffffffffffffff19166020820180517bffffffffffffffffffffffffffffffffffffffffffffffffffffffff8381831617835250505050610ed1565b50505050565b6000610f33826040518060400160405280602081526020017f5361666545524332303a206c6f772d6c6576656c2063616c6c206661696c65648152508573ffffffffffffffffffffffffffffffffffffffff16610fc09092919063ffffffff16565b9050600081511115610fbb57808060200190516020811015610f5457600080fd5b8101908080519060200190929190505050610fba576040517f08c379a000000000000000000000000000000000000000000000000000000000815260040180806020018281038252602a8152602001806112cd602a913960400191505060405180910390fd5b5b505050565b6060610fcf8484600085610fd8565b90509392505050565b606082471015611033576040517f08c379a00000000000000000000000000000000000000000000000000000000081526004018080602001828103825260268152602001806112866026913960400191505060405180910390fd5b61103c85611180565b6110ae576040517f08c379a000000000000000000000000000000000000000000000000000000000815260040180806020018281038252601d8152602001807f416464726573733a2063616c6c20746f206e6f6e2d636f6e747261637400000081525060200191505060405180910390fd5b6000808673ffffffffffffffffffffffffffffffffffffffff1685876040518082805190602001908083835b602083106110fd57805182526020820191506020810190506020830392506110da565b6001836020036101000a03801982511681845116808217855250505050505090500191505060006040518083038185875af1925050503d806000811461115f576040519150601f19603f3d011682016040523d82523d6000602084013e611164565b606091505b5091509150611174828286611193565b92505050949350505050565b600080823b905060008111915050919050565b606083156111a357829050611258565b6000835111156111b65782518084602001fd5b816040517f08c379a00000000000000000000000000000000000000000000000000000000081526004018080602001828103825283818151815260200191508051906020019080838360005b8381101561121d578082015181840152602081019050611202565b50505050905090810190601f16801561124a5780820380516001836020036101000a031916815260200191505b509250505060405180910390fd5b939250505056fe4f776e61626c653a206e6577206f776e657220697320746865207a65726f2061646472657373416464726573733a20696e73756666696369656e742062616c616e636520666f722063616c6c536166654d6174683a206d756c7469706c69636174696f6e206f766572666c6f775361666545524332303a204552433230206f7065726174696f6e20646964206e6f742073756363656564a2646970667358221220d8e30b89e37e3e49430211ad36822b43e084189acb53344cdb01a0f0edddc9d564736f6c63430007060033",
  "devdoc": {
    "kind": "dev",
    "methods": {
      "owner()": {
        "details": "Returns the address of the current owner."
      },
      "renounceOwnership()": {
        "details": "Leaves the contract without owner. It will not be possible to call `onlyOwner` functions anymore. Can only be called by the current owner. NOTE: Renouncing ownership will leave the contract without an owner, thereby removing any functionality that is only available to the owner."
      },
      "transferOwnership(address)": {
        "details": "Transfers ownership of the contract to a new account (`newOwner`). Can only be called by the current owner."
      }
    },
    "version": 1
  },
  "userdoc": {
    "kind": "user",
    "methods": {},
    "version": 1
  },
  "storageLayout": {
    "storage": [
      {
        "astId": 7,
        "contract": "contracts/test/mocks/LendingPool.sol:LendingPool",
        "label": "_owner",
        "offset": 0,
        "slot": "0",
        "type": "t_address"
      }
    ],
    "types": {
      "t_address": {
        "encoding": "inplace",
        "label": "address",
        "numberOfBytes": "20"
      }
    }
  }
}