{
  "address": "0x63CA8b2995b609DBBCde1a106423D447815d0cab",
  "abi": [
    {
      "inputs": [
        {
          "internalType": "address",
          "name": "_lendingPool",
          "type": "address"
        }
      ],
      "stateMutability": "nonpayable",
      "type": "constructor"
    },
    {
      "inputs": [],
      "name": "getLendingPool",
      "outputs": [
        {
          "internalType": "address",
          "name": "",
          "type": "address"
        }
      ],
      "stateMutability": "view",
      "type": "function"
    }
  ],
  "transactionHash": "0x6f8e5f7af25d25e878e8ffdf93f5484427f6c8ae5ea4cac50c8b311dbaee8d7e",
  "args": [
    "0x2CaacC48F4E5649Ee4BE1aE962084da9d33C085F"
  ],
  "solcInputHash": "05287afcaf790e0cad697fe9811caf63",
  "bytecode": "0x608060405234801561001057600080fd5b506040516101513803806101518339818101604052602081101561003357600080fd5b8101908080519060200190929190505050806000806101000a81548173ffffffffffffffffffffffffffffffffffffffff021916908373ffffffffffffffffffffffffffffffffffffffff1602179055505060be806100936000396000f3fe6080604052348015600f57600080fd5b506004361060285760003560e01c80630261bf8b14602d575b600080fd5b6033605f565b604051808273ffffffffffffffffffffffffffffffffffffffff16815260200191505060405180910390f35b60008060009054906101000a900473ffffffffffffffffffffffffffffffffffffffff1690509056fea2646970667358221220b250cb26cfb612f13811cac31d2ca5cbbf84e90b0146555ed378a7cfec1d8c7364736f6c63430007060033",
  "devdoc": {
    "kind": "dev",
    "methods": {},
    "version": 1
  },
  "userdoc": {
    "kind": "user",
    "methods": {},
    "version": 1
  },
  "storageLayout": {
    "storage": [
      {
        "astId": 4685,
        "contract": "contracts/test/mocks/LendingPoolAddressesProvider.sol:LendingPoolAddressesProvider",
        "label": "lendingPool",
        "offset": 0,
        "slot": "0",
        "type": "t_address"
      }
    ],
    "types": {
      "t_address": {
        "encoding": "inplace",
        "label": "address",
        "numberOfBytes": "20"
      }
    }
  }
}