{
  "address": "0xEFA5539c461cF821C8BA6D2058cF0Cb921D9685A",
  "abi": [
    {
      "inputs": [
        {
          "internalType": "contract ILendingPoolAddressesProvider",
          "name": "provider",
          "type": "address"
        }
      ],
      "stateMutability": "nonpayable",
      "type": "constructor"
    },
    {
      "anonymous": false,
      "inputs": [
        {
          "indexed": true,
          "internalType": "address",
          "name": "previousOwner",
          "type": "address"
        },
        {
          "indexed": true,
          "internalType": "address",
          "name": "newOwner",
          "type": "address"
        }
      ],
      "name": "OwnershipTransferred",
      "type": "event"
    },
    {
      "stateMutability": "payable",
      "type": "fallback"
    },
    {
      "inputs": [],
      "name": "ADDRESSES_PROVIDER",
      "outputs": [
        {
          "internalType": "contract ILendingPoolAddressesProvider",
          "name": "",
          "type": "address"
        }
      ],
      "stateMutability": "view",
      "type": "function"
    },
    {
      "inputs": [],
      "name": "LENDING_POOL",
      "outputs": [
        {
          "internalType": "contract ILendingPool",
          "name": "",
          "type": "address"
        }
      ],
      "stateMutability": "view",
      "type": "function"
    },
    {
      "inputs": [],
      "name": "LOCK_AND_DRAW",
      "outputs": [
        {
          "internalType": "uint8",
          "name": "",
          "type": "uint8"
        }
      ],
      "stateMutability": "view",
      "type": "function"
    },
    {
      "inputs": [],
      "name": "WIPE_AND_FREE",
      "outputs": [
        {
          "internalType": "uint8",
          "name": "",
          "type": "uint8"
        }
      ],
      "stateMutability": "view",
      "type": "function"
    },
    {
      "inputs": [
        {
          "internalType": "address[]",
          "name": "assets",
          "type": "address[]"
        },
        {
          "internalType": "uint256[]",
          "name": "amounts",
          "type": "uint256[]"
        },
        {
          "internalType": "uint256[]",
          "name": "premiums",
          "type": "uint256[]"
        },
        {
          "internalType": "address",
          "name": "initiator",
          "type": "address"
        },
        {
          "internalType": "bytes",
          "name": "params",
          "type": "bytes"
        }
      ],
      "name": "executeOperation",
      "outputs": [
        {
          "internalType": "bool",
          "name": "",
          "type": "bool"
        }
      ],
      "stateMutability": "nonpayable",
      "type": "function"
    },
    {
      "inputs": [],
      "name": "feeManager",
      "outputs": [
        {
          "internalType": "address",
          "name": "",
          "type": "address"
        }
      ],
      "stateMutability": "view",
      "type": "function"
    },
    {
      "inputs": [
        {
          "internalType": "address",
          "name": "owner",
          "type": "address"
        },
        {
          "internalType": "address",
          "name": "target",
          "type": "address"
        },
        {
          "internalType": "address[]",
          "name": "ownerTokens",
          "type": "address[]"
        },
        {
          "internalType": "uint256[]",
          "name": "ownerAmounts",
          "type": "uint256[]"
        },
        {
          "internalType": "address",
          "name": "lendingPool",
          "type": "address"
        },
        {
          "internalType": "address[]",
          "name": "loanTokens",
          "type": "address[]"
        },
        {
          "internalType": "uint256[]",
          "name": "loanAmounts",
          "type": "uint256[]"
        },
        {
          "internalType": "uint256[]",
          "name": "modes",
          "type": "uint256[]"
        },
        {
          "internalType": "bytes",
          "name": "data",
          "type": "bytes"
        },
        {
          "internalType": "address",
          "name": "weth",
          "type": "address"
        }
      ],
      "name": "flashLoanFromDSProxy",
      "outputs": [],
      "stateMutability": "payable",
      "type": "function"
    },
    {
      "inputs": [],
      "name": "owner",
      "outputs": [
        {
          "internalType": "address",
          "name": "",
          "type": "address"
        }
      ],
      "stateMutability": "view",
      "type": "function"
    },
    {
      "inputs": [],
      "name": "renounceOwnership",
      "outputs": [],
      "stateMutability": "nonpayable",
      "type": "function"
    },
    {
      "inputs": [
        {
          "internalType": "address",
          "name": "_feeManager",
          "type": "address"
        }
      ],
      "name": "setFeeManager",
      "outputs": [],
      "stateMutability": "nonpayable",
      "type": "function"
    },
    {
      "inputs": [
        {
          "internalType": "address",
          "name": "newOwner",
          "type": "address"
        }
      ],
      "name": "transferOwnership",
      "outputs": [],
      "stateMutability": "nonpayable",
      "type": "function"
    }
  ],
  "transactionHash": "0xa49bdf32076e3b0e9b479ddcda7e335cc48c41d73b3d061d83354a636faa76f0",
  "args": [
    "0x63CA8b2995b609DBBCde1a106423D447815d0cab"
  ],
  "solcInputHash": "05287afcaf790e0cad697fe9811caf63",
  "bytecode": "0x60c06040523480156200001157600080fd5b50604051620046be380380620046be833981810160405281019062000037919062000200565b808073ffffffffffffffffffffffffffffffffffffffff1660808173ffffffffffffffffffffffffffffffffffffffff1660601b815250508073ffffffffffffffffffffffffffffffffffffffff16630261bf8b6040518163ffffffff1660e01b815260040160206040518083038186803b158015620000b657600080fd5b505afa158015620000cb573d6000803e3d6000fd5b505050506040513d6020811015620000e257600080fd5b810190808051906020019092919050505073ffffffffffffffffffffffffffffffffffffffff1660a08173ffffffffffffffffffffffffffffffffffffffff1660601b815250505060006200013c620001e160201b60201c565b9050806000806101000a81548173ffffffffffffffffffffffffffffffffffffffff021916908373ffffffffffffffffffffffffffffffffffffffff1602179055508073ffffffffffffffffffffffffffffffffffffffff16600073ffffffffffffffffffffffffffffffffffffffff167f8be0079c531659141344cd1fd0a4f28419497f9722a3daafe3b4186f6b6457e060405160405180910390a350506200028e565b600033905090565b600081519050620001fa8162000274565b92915050565b6000602082840312156200021357600080fd5b60006200022384828501620001e9565b91505092915050565b6000620002398262000254565b9050919050565b60006200024d826200022c565b9050919050565b600073ffffffffffffffffffffffffffffffffffffffff82169050919050565b6200027f8162000240565b81146200028b57600080fd5b50565b60805160601c60a05160601c6143fc620002c2600039806105cc5280610e3d528061168852508061026952506143fc6000f3fe6080604052600436106100a05760003560e01c80638da5cb5b116100645780638da5cb5b14610164578063920f5c841461018f578063b4dcfc77146101cc578063c297e418146101f7578063d0fb020314610213578063f2fde38b1461023e576100a1565b80630542975c146100a357806308a42797146100ce578063472d35b9146100f9578063715018a6146101225780638348d03414610139576100a1565b5b005b3480156100af57600080fd5b506100b8610267565b6040516100c59190613e80565b60405180910390f35b3480156100da57600080fd5b506100e361028b565b6040516100f09190613fc5565b60405180910390f35b34801561010557600080fd5b50610120600480360381019061011b9190613441565b610290565b005b34801561012e57600080fd5b50610137610383565b005b34801561014557600080fd5b5061014e6104f0565b60405161015b9190613fc5565b60405180910390f35b34801561017057600080fd5b506101796104f5565b6040516101869190613b3a565b60405180910390f35b34801561019b57600080fd5b506101b660048036038101906101b191906135d5565b61051e565b6040516101c39190613e65565b60405180910390f35b3480156101d857600080fd5b506101e16105ca565b6040516101ee9190613e9b565b60405180910390f35b610211600480360381019061020c919061346a565b6105ee565b005b34801561021f57600080fd5b50610228610859565b6040516102359190613b3a565b60405180910390f35b34801561024a57600080fd5b5061026560048036038101906102609190613441565b61087f565b005b7f000000000000000000000000000000000000000000000000000000000000000081565b600281565b610298610a71565b73ffffffffffffffffffffffffffffffffffffffff166102b66104f5565b73ffffffffffffffffffffffffffffffffffffffff161461033f576040517f08c379a00000000000000000000000000000000000000000000000000000000081526004018080602001828103825260208152602001807f4f776e61626c653a2063616c6c6572206973206e6f7420746865206f776e657281525060200191505060405180910390fd5b80600160006101000a81548173ffffffffffffffffffffffffffffffffffffffff021916908373ffffffffffffffffffffffffffffffffffffffff16021790555050565b61038b610a71565b73ffffffffffffffffffffffffffffffffffffffff166103a96104f5565b73ffffffffffffffffffffffffffffffffffffffff1614610432576040517f08c379a00000000000000000000000000000000000000000000000000000000081526004018080602001828103825260208152602001807f4f776e61626c653a2063616c6c6572206973206e6f7420746865206f776e657281525060200191505060405180910390fd5b600073ffffffffffffffffffffffffffffffffffffffff1660008054906101000a900473ffffffffffffffffffffffffffffffffffffffff1673ffffffffffffffffffffffffffffffffffffffff167f8be0079c531659141344cd1fd0a4f28419497f9722a3daafe3b4186f6b6457e060405160405180910390a360008060006101000a81548173ffffffffffffffffffffffffffffffffffffffff021916908373ffffffffffffffffffffffffffffffffffffffff160217905550565b600181565b60008060009054906101000a900473ffffffffffffffffffffffffffffffffffffffff16905090565b6000808383810190610530919061373f565b9050600160ff16816000015160ff161415610557576105528160200151610a79565b6105b8565b600260ff16816000015160ff16141561057c576105778160200151610e80565b6105b7565b6040517f08c379a00000000000000000000000000000000000000000000000000000000081526004016105ae90613eb6565b60405180910390fd5b5b60019150509998505050505050505050565b7f000000000000000000000000000000000000000000000000000000000000000081565b6000341115610684578073ffffffffffffffffffffffffffffffffffffffff1663d0e30db0346040518263ffffffff1660e01b81526004016000604051808303818588803b15801561063f57600080fd5b505af1158015610653573d6000803e3d6000fd5b505050505061068389348373ffffffffffffffffffffffffffffffffffffffff166116b99092919063ffffffff16565b5b3073ffffffffffffffffffffffffffffffffffffffff166313af40358a6040518263ffffffff1660e01b81526004016106bd9190613b3a565b600060405180830381600087803b1580156106d757600080fd5b505af11580156106eb573d6000803e3d6000fd5b5050505060005b88518110156107695761074e8b8b8a848151811061070c57fe5b60200260200101518c858151811061072057fe5b602002602001015173ffffffffffffffffffffffffffffffffffffffff1661175b909392919063ffffffff16565b61076260018261181c90919063ffffffff16565b90506106f2565b508573ffffffffffffffffffffffffffffffffffffffff1663ab9c4b5d8a8787878e8860006040518863ffffffff1660e01b81526004016107b09796959493929190613daa565b600060405180830381600087803b1580156107ca57600080fd5b505af11580156107de573d6000803e3d6000fd5b505050503073ffffffffffffffffffffffffffffffffffffffff166313af40358b6040518263ffffffff1660e01b815260040161081b9190613b3a565b600060405180830381600087803b15801561083557600080fd5b505af1158015610849573d6000803e3d6000fd5b5050505050505050505050505050565b600160009054906101000a900473ffffffffffffffffffffffffffffffffffffffff1681565b610887610a71565b73ffffffffffffffffffffffffffffffffffffffff166108a56104f5565b73ffffffffffffffffffffffffffffffffffffffff161461092e576040517f08c379a00000000000000000000000000000000000000000000000000000000081526004018080602001828103825260208152602001807f4f776e61626c653a2063616c6c6572206973206e6f7420746865206f776e657281525060200191505060405180910390fd5b600073ffffffffffffffffffffffffffffffffffffffff168173ffffffffffffffffffffffffffffffffffffffff1614156109b4576040517f08c379a00000000000000000000000000000000000000000000000000000000081526004018080602001828103825260268152602001806142fa6026913960400191505060405180910390fd5b8073ffffffffffffffffffffffffffffffffffffffff1660008054906101000a900473ffffffffffffffffffffffffffffffffffffffff1673ffffffffffffffffffffffffffffffffffffffff167f8be0079c531659141344cd1fd0a4f28419497f9722a3daafe3b4186f6b6457e060405160405180910390a3806000806101000a81548173ffffffffffffffffffffffffffffffffffffffff021916908373ffffffffffffffffffffffffffffffffffffffff16021790555050565b600033905090565b600081806020019051810190610a8f9190613780565b90506000806000610a9f846118a4565b925092509250610ada8460200151600160009054906101000a900473ffffffffffffffffffffffffffffffffffffffff168660400151611abd565b600073ffffffffffffffffffffffffffffffffffffffff16600160009054906101000a900473ffffffffffffffffffffffffffffffffffffffff1673ffffffffffffffffffffffffffffffffffffffff1614610bce57600160009054906101000a900473ffffffffffffffffffffffffffffffffffffffff1673ffffffffffffffffffffffffffffffffffffffff1663651b8cb68560000151866020015187604001516040518463ffffffff1660e01b8152600401610b9b93929190613c86565b600060405180830381600087803b158015610bb557600080fd5b505af1158015610bc9573d6000803e3d6000fd5b505050505b600073ffffffffffffffffffffffffffffffffffffffff16846102c0015173ffffffffffffffffffffffffffffffffffffffff1614610d7c576000846102c0015173ffffffffffffffffffffffffffffffffffffffff16856060015173ffffffffffffffffffffffffffffffffffffffff161415610c4e57839050600093505b846102c0015173ffffffffffffffffffffffffffffffffffffffff16856080015173ffffffffffffffffffffffffffffffffffffffff161415610c9357829050600092505b6000811115610d7a57846102c0015173ffffffffffffffffffffffffffffffffffffffff16632e1a7d4d826040518263ffffffff1660e01b8152600401610cda9190613ef6565b600060405180830381600087803b158015610cf457600080fd5b505af1158015610d08573d6000803e3d6000fd5b50505050846000015173ffffffffffffffffffffffffffffffffffffffff1681604051610d3490613b25565b60006040518083038185875af1925050503d8060008114610d71576040519150601f19603f3d011682016040523d82523d6000602084013e610d76565b606091505b5050505b505b6000831115610db957610db8846000015184866060015173ffffffffffffffffffffffffffffffffffffffff166116b99092919063ffffffff16565b5b6000821115610df657610df5846000015183866080015173ffffffffffffffffffffffffffffffffffffffff166116b99092919063ffffffff16565b5b6000811115610e3357610e328460000151828660a0015173ffffffffffffffffffffffffffffffffffffffff166116b99092919063ffffffff16565b5b610e7984602001517f0000000000000000000000000000000000000000000000000000000000000000610e7460028860400151611bae90919063ffffffff16565b611abd565b5050505050565b600081806020019051810190610e9691906136fe565b9050610ed38160e0015151826101800151518360200151846040015185606001518660a00151876101400151886101000151896101a00151611c34565b6000806000808460a00151111561108157836080015173ffffffffffffffffffffffffffffffffffffffff16846020015173ffffffffffffffffffffffffffffffffffffffff161415610f2c578360a00151925061107d565b83610100015115610fb4578360c001519250836060015173ffffffffffffffffffffffffffffffffffffffff16638d7ef9bb30856040518363ffffffff1660e01b8152600401610f7d929190613b7e565b600060405180830381600087803b158015610f9757600080fd5b505af1158015610fab573d6000803e3d6000fd5b5050505061107c565b836040015173ffffffffffffffffffffffffffffffffffffffff166338ed17398560a0015160008760e00151308961038001516040518663ffffffff1660e01b8152600401611007959493929190613f11565b600060405180830381600087803b15801561102157600080fd5b505af1158015611035573d6000803e3d6000fd5b505050506040513d6000823e3d601f19601f8201168201806040525081019061105e91906136bd565b60018560e0015151038151811061107157fe5b602002602001015192505b5b8290505b6000846101400151111561122f5783610120015173ffffffffffffffffffffffffffffffffffffffff16846020015173ffffffffffffffffffffffffffffffffffffffff1614156110d957836101400151915061122e565b836101a0015115611162578361016001519150836060015173ffffffffffffffffffffffffffffffffffffffff16638d7ef9bb30846040518363ffffffff1660e01b815260040161112b929190613b7e565b600060405180830381600087803b15801561114557600080fd5b505af1158015611159573d6000803e3d6000fd5b5050505061122d565b836040015173ffffffffffffffffffffffffffffffffffffffff166338ed17398561014001516000876101800151308961038001516040518663ffffffff1660e01b81526004016111b7959493929190613f11565b600060405180830381600087803b1580156111d157600080fd5b505af11580156111e5573d6000803e3d6000fd5b505050506040513d6000823e3d601f19601f8201168201806040525081019061120e91906136bd565b600185610180015151038151811061122257fe5b602002602001015191505b5b5b600061124983866101e0015161181c90919063ffffffff16565b11156114af576112798460800151856040015161127486886101c0015161181c90919063ffffffff16565b611abd565b6112a4846101200151856040015161129f85886101e0015161181c90919063ffffffff16565b611abd565b6000806000866040015173ffffffffffffffffffffffffffffffffffffffff1663e8e3370088608001518961012001516112ec8a8c6101c0015161181c90919063ffffffff16565b6113048a8d6101e0015161181c90919063ffffffff16565b600080308f61038001516040518963ffffffff1660e01b8152600401611331989796959493929190613d2c565b606060405180830381600087803b15801561134b57600080fd5b505af115801561135f573d6000803e3d6000fd5b505050506040513d601f19601f820116820180604052508101906113839190613826565b92509250925080935060006113b8846113aa898b6101c0015161181c90919063ffffffff16565b611cee90919063ffffffff16565b111561141b5761141a87600001516113f0856113e28a8c6101c0015161181c90919063ffffffff16565b611cee90919063ffffffff16565b896080015173ffffffffffffffffffffffffffffffffffffffff166116b99092919063ffffffff16565b5b600061144783611439888b6101e0015161181c90919063ffffffff16565b611cee90919063ffffffff16565b11156114ab576114aa876000015161147f84611471898c6101e0015161181c90919063ffffffff16565b611cee90919063ffffffff16565b89610120015173ffffffffffffffffffffffffffffffffffffffff166116b99092919063ffffffff16565b5b5050505b8361020001518110156114f7576040517f08c379a00000000000000000000000000000000000000000000000000000000081526004016114ee90613ed6565b60405180910390fd5b611553846102400151856102600151866102800151876102a00151886102c00151896102e001518a61030001518b61032001516115428a8e610220015161181c90919063ffffffff16565b8d61034001518e6103600151611d71565b6115898460200151600160009054906101000a900473ffffffffffffffffffffffffffffffffffffffff16866103400151611abd565b600073ffffffffffffffffffffffffffffffffffffffff16600160009054906101000a900473ffffffffffffffffffffffffffffffffffffffff1673ffffffffffffffffffffffffffffffffffffffff161461167e57600160009054906101000a900473ffffffffffffffffffffffffffffffffffffffff1673ffffffffffffffffffffffffffffffffffffffff1663651b8cb6856000015186602001518761034001516040518463ffffffff1660e01b815260040161164b93929190613c86565b600060405180830381600087803b15801561166557600080fd5b505af1158015611679573d6000803e3d6000fd5b505050505b6116b284602001517f0000000000000000000000000000000000000000000000000000000000000000866103400151611abd565b5050505050565b6117568363a9059cbb60e01b8484604051602401808373ffffffffffffffffffffffffffffffffffffffff16815260200182815260200192505050604051602081830303815290604052907bffffffffffffffffffffffffffffffffffffffffffffffffffffffff19166020820180517bffffffffffffffffffffffffffffffffffffffffffffffffffffffff8381831617835250505050611e91565b505050565b611816846323b872dd60e01b858585604051602401808473ffffffffffffffffffffffffffffffffffffffff1681526020018373ffffffffffffffffffffffffffffffffffffffff1681526020018281526020019350505050604051602081830303815290604052907bffffffffffffffffffffffffffffffffffffffffffffffffffffffff19166020820180517bffffffffffffffffffffffffffffffffffffffffffffffffffffffff8381831617835250505050611e91565b50505050565b60008082840190508381101561189a576040517f08c379a000000000000000000000000000000000000000000000000000000000815260040180806020018281038252601b8152602001807f536166654d6174683a206164646974696f6e206f766572666c6f77000000000081525060200191505060405180910390fd5b8091505092915050565b600080600080846040015190506118e8856101e001518661020001518761022001518861024001518961026001518a61028001518b60c00151888d60200151611f80565b600080611a4e604051806102200160405280896102a0015173ffffffffffffffffffffffffffffffffffffffff168152602001896060015173ffffffffffffffffffffffffffffffffffffffff168152602001896080015173ffffffffffffffffffffffffffffffffffffffff1681526020018960a0015173ffffffffffffffffffffffffffffffffffffffff1681526020018960e0015181526020018961018001518152602001896101a001518152602001896101c0015181526020018961010001518152602001896101200151815260200189610140015181526020018961016001518152602001896102e0015173ffffffffffffffffffffffffffffffffffffffff16815260200189610300015173ffffffffffffffffffffffffffffffffffffffff16815260200189610320015173ffffffffffffffffffffffffffffffffffffffff168152602001896103400151815260200189610360015181525061209a565b9150915060008073ffffffffffffffffffffffffffffffffffffffff168860a0015173ffffffffffffffffffffffffffffffffffffffff1614611aa957611aa68860e001518960c00151611cee90919063ffffffff16565b90505b828282965096509650505050509193909250565b808373ffffffffffffffffffffffffffffffffffffffff1663dd62ed3e30856040518363ffffffff1660e01b8152600401611af9929190613b55565b60206040518083038186803b158015611b1157600080fd5b505afa158015611b25573d6000803e3d6000fd5b505050506040513d601f19601f82011682018060405250810190611b4991906137c1565b1015611ba957611b7b8260008573ffffffffffffffffffffffffffffffffffffffff166125eb9092919063ffffffff16565b611ba8826000198573ffffffffffffffffffffffffffffffffffffffff166125eb9092919063ffffffff16565b5b505050565b600080831415611bc15760009050611c2e565b6000828402905082848281611bd257fe5b0414611c29576040517f08c379a00000000000000000000000000000000000000000000000000000000081526004018080602001828103825260218152602001806143466021913960400191505060405180910390fd5b809150505b92915050565b60008060008b1115611c77578315611c6057611c59868261181c90919063ffffffff16565b9050611c76565b611c73868361181c90919063ffffffff16565b91505b5b60008a1115611cb7578215611ca057611c99858261181c90919063ffffffff16565b9050611cb6565b611cb3858361181c90919063ffffffff16565b91505b5b6000821115611ccc57611ccb898984611abd565b5b6000811115611ce157611ce0898883611abd565b5b5050505050505050505050565b600082821115611d66576040517f08c379a000000000000000000000000000000000000000000000000000000000815260040180806020018281038252601e8152602001807f536166654d6174683a207375627472616374696f6e206f766572666c6f77000081525060200191505060405180910390fd5b818303905092915050565b611d7c8b8b85611abd565b8973ffffffffffffffffffffffffffffffffffffffff16631cff79cd8a8a8a8a8a8a8a8a8a604051602401611db8989796959493929190613ba7565b6040516020818303038152906040527fcbd4be3f000000000000000000000000000000000000000000000000000000007bffffffffffffffffffffffffffffffffffffffffffffffffffffffff19166020820180517bffffffffffffffffffffffffffffffffffffffffffffffffffffffff83818316178352505050506040518363ffffffff1660e01b8152600401611e52929190613e35565b600060405180830381600087803b158015611e6c57600080fd5b505af1158015611e80573d6000803e3d6000fd5b505050505050505050505050505050565b6000611ef3826040518060400160405280602081526020017f5361666545524332303a206c6f772d6c6576656c2063616c6c206661696c65648152508573ffffffffffffffffffffffffffffffffffffffff166127b09092919063ffffffff16565b9050600081511115611f7b57808060200190516020811015611f1457600080fd5b8101908080519060200190929190505050611f7a576040517f08c379a000000000000000000000000000000000000000000000000000000000815260040180806020018281038252602a815260200180614367602a913960400191505060405180910390fd5b5b505050565b611f8b818a84611abd565b8873ffffffffffffffffffffffffffffffffffffffff16631cff79cd89898989898989604051602401611fc396959493929190613c25565b6040516020818303038152906040527fa6add011000000000000000000000000000000000000000000000000000000007bffffffffffffffffffffffffffffffffffffffffffffffffffffffff19166020820180517bffffffffffffffffffffffffffffffffffffffffffffffffffffffff83818316178352505050506040518363ffffffff1660e01b815260040161205d929190613e35565b600060405180830381600087803b15801561207757600080fd5b505af115801561208b573d6000803e3d6000fd5b50505050505050505050505050565b600080600080600080600073ffffffffffffffffffffffffffffffffffffffff16876040015173ffffffffffffffffffffffffffffffffffffffff16146123ad576120f2876060015188600001518960800151611abd565b866000015173ffffffffffffffffffffffffffffffffffffffff1663baa2abde886020015189604001518a60800151600080308e60e001516040518863ffffffff1660e01b815260040161214c9796959493929190613cbd565b6040805180830381600087803b15801561216557600080fd5b505af1158015612179573d6000803e3d6000fd5b505050506040513d601f19601f8201168201806040525081019061219d91906137ea565b8094508195505050600087610120015111156123a85760008761016001515114156121cf5786610120015190506123a7565b866040015173ffffffffffffffffffffffffffffffffffffffff1687610180015173ffffffffffffffffffffffffffffffffffffffff1614156122a9576122258760400151886101a00151896101e00151611abd565b866101c0015173ffffffffffffffffffffffffffffffffffffffff16639599127630896101e001516040518363ffffffff1660e01b815260040161226a929190613b7e565b600060405180830381600087803b15801561228457600080fd5b505af1158015612298573d6000803e3d6000fd5b50505050866101e0015190506123a6565b6122cf876040015188600001516122ca600287611bae90919063ffffffff16565b611abd565b866000015173ffffffffffffffffffffffffffffffffffffffff16638803dbee88610120015161230c8a60c0015187611cee90919063ffffffff16565b8a6101600151308c60e001516040518663ffffffff1660e01b8152600401612338959493929190613f6b565b600060405180830381600087803b15801561235257600080fd5b505af1158015612366573d6000803e3d6000fd5b505050506040513d6000823e3d601f19601f8201168201806040525081019061238f91906136bd565b60008151811061239b57fe5b602002602001015190505b5b5b6123b5565b866080015193505b600087610100015111156125b85760008761014001515114156123df5786610100015191506125b7565b866020015173ffffffffffffffffffffffffffffffffffffffff1687610180015173ffffffffffffffffffffffffffffffffffffffff1614156124b9576124358760200151886101a00151896101e00151611abd565b866101c0015173ffffffffffffffffffffffffffffffffffffffff16639599127630896101e001516040518363ffffffff1660e01b815260040161247a929190613b7e565b600060405180830381600087803b15801561249457600080fd5b505af11580156124a8573d6000803e3d6000fd5b50505050866101e0015191506125b6565b6124df876020015188600001516124da600288611bae90919063ffffffff16565b611abd565b866000015173ffffffffffffffffffffffffffffffffffffffff16638803dbee88610100015161251c8a60a0015188611cee90919063ffffffff16565b8a6101400151308c60e001516040518663ffffffff1660e01b8152600401612548959493929190613f6b565b600060405180830381600087803b15801561256257600080fd5b505af1158015612576573d6000803e3d6000fd5b505050506040513d6000823e3d601f19601f8201168201806040525081019061259f91906136bd565b6000815181106125ab57fe5b602002602001015191505b5b5b6125cb8285611cee90919063ffffffff16565b6125de8285611cee90919063ffffffff16565b9550955050505050915091565b60008114806126b9575060008373ffffffffffffffffffffffffffffffffffffffff1663dd62ed3e30856040518363ffffffff1660e01b8152600401808373ffffffffffffffffffffffffffffffffffffffff1681526020018273ffffffffffffffffffffffffffffffffffffffff1681526020019250505060206040518083038186803b15801561267c57600080fd5b505afa158015612690573d6000803e3d6000fd5b505050506040513d60208110156126a657600080fd5b8101908080519060200190929190505050145b61270e576040517f08c379a00000000000000000000000000000000000000000000000000000000081526004018080602001828103825260368152602001806143916036913960400191505060405180910390fd5b6127ab8363095ea7b360e01b8484604051602401808373ffffffffffffffffffffffffffffffffffffffff16815260200182815260200192505050604051602081830303815290604052907bffffffffffffffffffffffffffffffffffffffffffffffffffffffff19166020820180517bffffffffffffffffffffffffffffffffffffffffffffffffffffffff8381831617835250505050611e91565b505050565b60606127bf84846000856127c8565b90509392505050565b606082471015612823576040517f08c379a00000000000000000000000000000000000000000000000000000000081526004018080602001828103825260268152602001806143206026913960400191505060405180910390fd5b61282c85612970565b61289e576040517f08c379a000000000000000000000000000000000000000000000000000000000815260040180806020018281038252601d8152602001807f416464726573733a2063616c6c20746f206e6f6e2d636f6e747261637400000081525060200191505060405180910390fd5b6000808673ffffffffffffffffffffffffffffffffffffffff1685876040518082805190602001908083835b602083106128ed57805182526020820191506020810190506020830392506128ca565b6001836020036101000a03801982511681845116808217855250505050505090500191505060006040518083038185875af1925050503d806000811461294f576040519150601f19603f3d011682016040523d82523d6000602084013e612954565b606091505b5091509150612964828286612983565b92505050949350505050565b600080823b905060008111915050919050565b6060831561299357829050612a48565b6000835111156129a65782518084602001fd5b816040517f08c379a00000000000000000000000000000000000000000000000000000000081526004018080602001828103825283818151815260200191508051906020019080838360005b83811015612a0d5780820151818401526020810190506129f2565b50505050905090810190601f168015612a3a5780820380516001836020036101000a031916815260200191505b509250505060405180910390fd5b9392505050565b6000612a62612a5d84614011565b613fe0565b90508083825260208201905082856020860282011115612a8157600080fd5b60005b85811015612ab15781612a978882612c3d565b845260208401935060208301925050600181019050612a84565b5050509392505050565b6000612ace612ac984614011565b613fe0565b90508083825260208201905082856020860282011115612aed57600080fd5b60005b85811015612b1d5781612b038882612c52565b845260208401935060208301925050600181019050612af0565b5050509392505050565b6000612b3a612b358461403d565b613fe0565b90508083825260208201905082856020860282011115612b5957600080fd5b60005b85811015612b895781612b6f8882613402565b845260208401935060208301925050600181019050612b5c565b5050509392505050565b6000612ba6612ba18461403d565b613fe0565b90508083825260208201905082856020860282011115612bc557600080fd5b60005b85811015612bf55781612bdb8882613417565b845260208401935060208301925050600181019050612bc8565b5050509392505050565b6000612c12612c0d84614069565b613fe0565b905082815260208101848484011115612c2a57600080fd5b612c35848285614248565b509392505050565b600081359050612c4c8161429d565b92915050565b600081519050612c618161429d565b92915050565b60008083601f840112612c7957600080fd5b8235905067ffffffffffffffff811115612c9257600080fd5b602083019150836020820283011115612caa57600080fd5b9250929050565b600082601f830112612cc257600080fd5b8135612cd2848260208601612a4f565b91505092915050565b600082601f830112612cec57600080fd5b8151612cfc848260208601612abb565b91505092915050565b60008083601f840112612d1757600080fd5b8235905067ffffffffffffffff811115612d3057600080fd5b602083019150836020820283011115612d4857600080fd5b9250929050565b600082601f830112612d6057600080fd5b8135612d70848260208601612b27565b91505092915050565b600082601f830112612d8a57600080fd5b8151612d9a848260208601612b93565b91505092915050565b600081519050612db2816142b4565b92915050565b60008083601f840112612dca57600080fd5b8235905067ffffffffffffffff811115612de357600080fd5b602083019150836001820283011115612dfb57600080fd5b9250929050565b600082601f830112612e1357600080fd5b8135612e23848260208601612bff565b91505092915050565b60006103a08284031215612e3f57600080fd5b612e4a6103a0613fe0565b90506000612e5a84828501612c52565b6000830152506020612e6e84828501612c52565b6020830152506040612e8284828501612c52565b6040830152506060612e9684828501612c52565b6060830152506080612eaa84828501612c52565b60808301525060a0612ebe84828501613417565b60a08301525060c0612ed284828501613417565b60c08301525060e082015167ffffffffffffffff811115612ef257600080fd5b612efe84828501612cdb565b60e083015250610100612f1384828501612da3565b61010083015250610120612f2984828501612c52565b61012083015250610140612f3f84828501613417565b61014083015250610160612f5584828501613417565b6101608301525061018082015167ffffffffffffffff811115612f7757600080fd5b612f8384828501612cdb565b610180830152506101a0612f9984828501612da3565b6101a0830152506101c0612faf84828501613417565b6101c0830152506101e0612fc584828501613417565b6101e083015250610200612fdb84828501613417565b61020083015250610220612ff184828501613417565b6102208301525061024061300784828501612c52565b6102408301525061026061301d84828501612c52565b6102608301525061028061303384828501612c52565b610280830152506102a061304984828501612c52565b6102a0830152506102c061305f84828501612c52565b6102c0830152506102e061307584828501612c52565b6102e08301525061030061308b84828501612c52565b610300830152506103206130a184828501613417565b610320830152506103406130b784828501613417565b610340830152506103606130cd84828501612da3565b610360830152506103806130e384828501613417565b6103808301525092915050565b60006040828403121561310257600080fd5b61310c6040613fe0565b9050600061311c8482850161342c565b600083015250602082013567ffffffffffffffff81111561313c57600080fd5b61314884828501612e02565b60208301525092915050565b6000610380828403121561316757600080fd5b613172610380613fe0565b9050600061318284828501612c52565b600083015250602061319684828501612c52565b60208301525060406131aa84828501613417565b60408301525060606131be84828501612c52565b60608301525060806131d284828501612c52565b60808301525060a06131e684828501612c52565b60a08301525060c06131fa84828501613417565b60c08301525060e061320e84828501613417565b60e08301525061010061322384828501613417565b6101008301525061012061323984828501613417565b6101208301525061014082015167ffffffffffffffff81111561325b57600080fd5b61326784828501612cdb565b6101408301525061016082015167ffffffffffffffff81111561328957600080fd5b61329584828501612cdb565b610160830152506101806132ab84828501613417565b610180830152506101a06132c184828501613417565b6101a0830152506101c06132d784828501613417565b6101c0830152506101e06132ed84828501612c52565b6101e08301525061020061330384828501612c52565b6102008301525061022061331984828501612c52565b6102208301525061024061332f84828501612c52565b6102408301525061026061334584828501612c52565b6102608301525061028061335b84828501613417565b610280830152506102a061337184828501612c52565b6102a0830152506102c061338784828501612c52565b6102c0830152506102e061339d84828501612c52565b6102e0830152506103006133b384828501612c52565b610300830152506103206133c984828501612c52565b610320830152506103406133df84828501613417565b610340830152506103606133f584828501613417565b6103608301525092915050565b600081359050613411816142cb565b92915050565b600081519050613426816142cb565b92915050565b60008135905061343b816142e2565b92915050565b60006020828403121561345357600080fd5b600061346184828501612c3d565b91505092915050565b6000806000806000806000806000806101408b8d03121561348a57600080fd5b60006134988d828e01612c3d565b9a505060206134a98d828e01612c3d565b99505060408b013567ffffffffffffffff8111156134c657600080fd5b6134d28d828e01612cb1565b98505060608b013567ffffffffffffffff8111156134ef57600080fd5b6134fb8d828e01612d4f565b975050608061350c8d828e01612c3d565b96505060a08b013567ffffffffffffffff81111561352957600080fd5b6135358d828e01612cb1565b95505060c08b013567ffffffffffffffff81111561355257600080fd5b61355e8d828e01612d4f565b94505060e08b013567ffffffffffffffff81111561357b57600080fd5b6135878d828e01612d4f565b9350506101008b013567ffffffffffffffff8111156135a557600080fd5b6135b18d828e01612e02565b9250506101206135c38d828e01612c3d565b9150509295989b9194979a5092959850565b600080600080600080600080600060a08a8c0312156135f357600080fd5b60008a013567ffffffffffffffff81111561360d57600080fd5b6136198c828d01612c67565b995099505060208a013567ffffffffffffffff81111561363857600080fd5b6136448c828d01612d05565b975097505060408a013567ffffffffffffffff81111561366357600080fd5b61366f8c828d01612d05565b955095505060606136828c828d01612c3d565b93505060808a013567ffffffffffffffff81111561369f57600080fd5b6136ab8c828d01612db8565b92509250509295985092959850929598565b6000602082840312156136cf57600080fd5b600082015167ffffffffffffffff8111156136e957600080fd5b6136f584828501612d79565b91505092915050565b60006020828403121561371057600080fd5b600082015167ffffffffffffffff81111561372a57600080fd5b61373684828501612e2c565b91505092915050565b60006020828403121561375157600080fd5b600082013567ffffffffffffffff81111561376b57600080fd5b613777848285016130f0565b91505092915050565b60006020828403121561379257600080fd5b600082015167ffffffffffffffff8111156137ac57600080fd5b6137b884828501613154565b91505092915050565b6000602082840312156137d357600080fd5b60006137e184828501613417565b91505092915050565b600080604083850312156137fd57600080fd5b600061380b85828601613417565b925050602061381c85828601613417565b9150509250929050565b60008060006060848603121561383b57600080fd5b600061384986828701613417565b935050602061385a86828701613417565b925050604061386b86828701613417565b9150509250925092565b600061388183836138b4565b60208301905092915050565b60006138998383613af8565b60208301905092915050565b6138ae816141a6565b82525050565b6138bd81614143565b82525050565b6138cc81614143565b82525050565b60006138dd826140b9565b6138e781856140f4565b93506138f283614099565b8060005b8381101561392357815161390a8882613875565b9750613915836140da565b9250506001810190506138f6565b5085935050505092915050565b600061393b826140c4565b6139458185614105565b9350613950836140a9565b8060005b83811015613981578151613968888261388d565b9750613973836140e7565b925050600181019050613954565b5085935050505092915050565b61399781614155565b82525050565b60006139a8826140cf565b6139b28185614116565b93506139c2818560208601614257565b6139cb8161428c565b840191505092915050565b6139df816141b8565b82525050565b6139ee816141dc565b82525050565b6139fd81614200565b82525050565b613a0c81614212565b82525050565b6000613a1f601e83614132565b91507f45617379205661756c743a20496e76616c6964206f7065726174696f6e2e00006000830152602082019050919050565b6000613a5f600083614127565b9150600082019050919050565b6000613a79604683614132565b91507f45617379204c656e64696e673a20426f7567687420636f6c6c61746572616c2060008301527f6c6f776572207468616e20657870656374656420636f6c6c61746572616c207460208301527f6f206275792e00000000000000000000000000000000000000000000000000006040830152606082019050919050565b613b018161418f565b82525050565b613b108161418f565b82525050565b613b1f81614199565b82525050565b6000613b3082613a52565b9150819050919050565b6000602082019050613b4f60008301846138c3565b92915050565b6000604082019050613b6a60008301856138a5565b613b7760208301846138c3565b9392505050565b6000604082019050613b9360008301856138a5565b613ba06020830184613b07565b9392505050565b600061010082019050613bbd600083018b6138c3565b613bca602083018a6138c3565b613bd760408301896138c3565b613be460608301886138c3565b613bf16080830187613b07565b613bfe60a0830186613b07565b613c0b60c0830185613b07565b613c1860e083018461398e565b9998505050505050505050565b600060c082019050613c3a60008301896138c3565b613c4760208301886138c3565b613c5460408301876138c3565b613c616060830186613b07565b613c6e6080830185613b07565b613c7b60a0830184613b07565b979650505050505050565b6000606082019050613c9b60008301866138c3565b613ca860208301856138c3565b613cb56040830184613b07565b949350505050565b600060e082019050613cd2600083018a6138c3565b613cdf60208301896138c3565b613cec6040830188613b07565b613cf96060830187613a03565b613d066080830186613a03565b613d1360a08301856138a5565b613d2060c0830184613b07565b98975050505050505050565b600061010082019050613d42600083018b6138c3565b613d4f602083018a6138c3565b613d5c6040830189613b07565b613d696060830188613b07565b613d766080830187613a03565b613d8360a0830186613a03565b613d9060c08301856138a5565b613d9d60e0830184613b07565b9998505050505050505050565b600060e082019050613dbf600083018a6138c3565b8181036020830152613dd181896138d2565b90508181036040830152613de58188613930565b90508181036060830152613df98187613930565b9050613e0860808301866138c3565b81810360a0830152613e1a818561399d565b9050613e2960c08301846139f4565b98975050505050505050565b6000604082019050613e4a60008301856138c3565b8181036020830152613e5c818461399d565b90509392505050565b6000602082019050613e7a600083018461398e565b92915050565b6000602082019050613e9560008301846139d6565b92915050565b6000602082019050613eb060008301846139e5565b92915050565b60006020820190508181036000830152613ecf81613a12565b9050919050565b60006020820190508181036000830152613eef81613a6c565b9050919050565b6000602082019050613f0b6000830184613b07565b92915050565b600060a082019050613f266000830188613b07565b613f336020830187613a03565b8181036040830152613f4581866138d2565b9050613f5460608301856138a5565b613f616080830184613b07565b9695505050505050565b600060a082019050613f806000830188613b07565b613f8d6020830187613b07565b8181036040830152613f9f81866138d2565b9050613fae60608301856138a5565b613fbb6080830184613b07565b9695505050505050565b6000602082019050613fda6000830184613b16565b92915050565b6000604051905081810181811067ffffffffffffffff821117156140075761400661428a565b5b8060405250919050565b600067ffffffffffffffff82111561402c5761402b61428a565b5b602082029050602081019050919050565b600067ffffffffffffffff8211156140585761405761428a565b5b602082029050602081019050919050565b600067ffffffffffffffff8211156140845761408361428a565b5b601f19601f8301169050602081019050919050565b6000819050602082019050919050565b6000819050602082019050919050565b600081519050919050565b600081519050919050565b600081519050919050565b6000602082019050919050565b6000602082019050919050565b600082825260208201905092915050565b600082825260208201905092915050565b600082825260208201905092915050565b600081905092915050565b600082825260208201905092915050565b600061414e8261416f565b9050919050565b60008115159050919050565b600061ffff82169050919050565b600073ffffffffffffffffffffffffffffffffffffffff82169050919050565b6000819050919050565b600060ff82169050919050565b60006141b182614224565b9050919050565b60006141c3826141ca565b9050919050565b60006141d58261416f565b9050919050565b60006141e7826141ee565b9050919050565b60006141f98261416f565b9050919050565b600061420b82614161565b9050919050565b600061421d8261418f565b9050919050565b600061422f82614236565b9050919050565b60006142418261416f565b9050919050565b82818337600083830152505050565b60005b8381101561427557808201518184015260208101905061425a565b83811115614284576000848401525b50505050565bfe5b6000601f19601f8301169050919050565b6142a681614143565b81146142b157600080fd5b50565b6142bd81614155565b81146142c857600080fd5b50565b6142d48161418f565b81146142df57600080fd5b50565b6142eb81614199565b81146142f657600080fd5b5056fe4f776e61626c653a206e6577206f776e657220697320746865207a65726f2061646472657373416464726573733a20696e73756666696369656e742062616c616e636520666f722063616c6c536166654d6174683a206d756c7469706c69636174696f6e206f766572666c6f775361666545524332303a204552433230206f7065726174696f6e20646964206e6f7420737563636565645361666545524332303a20617070726f76652066726f6d206e6f6e2d7a65726f20746f206e6f6e2d7a65726f20616c6c6f77616e6365a26469706673582212204b5e68eba08a3eb1d797dc6541dd1e7e1828034587cc1aff58f328bd15edf21764736f6c63430007060033",
  "devdoc": {
    "kind": "dev",
    "methods": {
      "owner()": {
        "details": "Returns the address of the current owner."
      },
      "renounceOwnership()": {
        "details": "Leaves the contract without owner. It will not be possible to call `onlyOwner` functions anymore. Can only be called by the current owner. NOTE: Renouncing ownership will leave the contract without an owner, thereby removing any functionality that is only available to the owner."
      },
      "transferOwnership(address)": {
        "details": "Transfers ownership of the contract to a new account (`newOwner`). Can only be called by the current owner."
      }
    },
    "version": 1
  },
  "userdoc": {
    "kind": "user",
    "methods": {
      "executeOperation(address[],uint256[],uint256[],address,bytes)": {
        "notice": "This function is called after your contract has received the flash loan amount"
      },
      "flashLoanFromDSProxy(address,address,address[],uint256[],address,address[],uint256[],uint256[],bytes,address)": {
        "notice": "Executed as DSProxy."
      }
    },
    "version": 1
  },
  "storageLayout": {
    "storage": [
      {
        "astId": 7,
        "contract": "contracts/RemovePosition.sol:RemovePosition",
        "label": "_owner",
        "offset": 0,
        "slot": "0",
        "type": "t_address"
      },
      {
        "astId": 1841,
        "contract": "contracts/RemovePosition.sol:RemovePosition",
        "label": "feeManager",
        "offset": 0,
        "slot": "1",
        "type": "t_address"
      }
    ],
    "types": {
      "t_address": {
        "encoding": "inplace",
        "label": "address",
        "numberOfBytes": "20"
      }
    }
  }
}