{
  "address": "0xa0eFe9BaA4aB4e6A376Dd5834e374a97C6AF6708",
  "abi": [
    {
      "inputs": [
        {
          "internalType": "contract ILendingPoolAddressesProvider",
          "name": "provider",
          "type": "address"
        }
      ],
      "stateMutability": "nonpayable",
      "type": "constructor"
    },
    {
      "inputs": [],
      "name": "ADDRESSES_PROVIDER",
      "outputs": [
        {
          "internalType": "contract ILendingPoolAddressesProvider",
          "name": "",
          "type": "address"
        }
      ],
      "stateMutability": "view",
      "type": "function"
    },
    {
      "inputs": [],
      "name": "LENDING_POOL",
      "outputs": [
        {
          "internalType": "contract ILendingPool",
          "name": "",
          "type": "address"
        }
      ],
      "stateMutability": "view",
      "type": "function"
    },
    {
      "inputs": [],
      "name": "LOCK_AND_DRAW",
      "outputs": [
        {
          "internalType": "uint8",
          "name": "",
          "type": "uint8"
        }
      ],
      "stateMutability": "view",
      "type": "function"
    },
    {
      "inputs": [],
      "name": "WIPE_AND_FREE",
      "outputs": [
        {
          "internalType": "uint8",
          "name": "",
          "type": "uint8"
        }
      ],
      "stateMutability": "view",
      "type": "function"
    },
    {
      "inputs": [
        {
          "internalType": "address[]",
          "name": "assets",
          "type": "address[]"
        },
        {
          "internalType": "uint256[]",
          "name": "amounts",
          "type": "uint256[]"
        },
        {
          "internalType": "uint256[]",
          "name": "premiums",
          "type": "uint256[]"
        },
        {
          "internalType": "address",
          "name": "initiator",
          "type": "address"
        },
        {
          "internalType": "bytes",
          "name": "params",
          "type": "bytes"
        }
      ],
      "name": "executeOperation",
      "outputs": [
        {
          "internalType": "bool",
          "name": "",
          "type": "bool"
        }
      ],
      "stateMutability": "nonpayable",
      "type": "function"
    },
    {
      "inputs": [
        {
          "internalType": "address",
          "name": "owner",
          "type": "address"
        },
        {
          "internalType": "address",
          "name": "target",
          "type": "address"
        },
        {
          "internalType": "address[]",
          "name": "ownerTokens",
          "type": "address[]"
        },
        {
          "internalType": "uint256[]",
          "name": "ownerAmounts",
          "type": "uint256[]"
        },
        {
          "internalType": "address",
          "name": "lendingPool",
          "type": "address"
        },
        {
          "internalType": "address[]",
          "name": "loanTokens",
          "type": "address[]"
        },
        {
          "internalType": "uint256[]",
          "name": "loanAmounts",
          "type": "uint256[]"
        },
        {
          "internalType": "uint256[]",
          "name": "modes",
          "type": "uint256[]"
        },
        {
          "internalType": "bytes",
          "name": "data",
          "type": "bytes"
        }
      ],
      "name": "flashLoanFromDSProxy",
      "outputs": [],
      "stateMutability": "payable",
      "type": "function"
    },
    {
      "inputs": [
        {
          "internalType": "bytes",
          "name": "params",
          "type": "bytes"
        }
      ],
      "name": "lockAndDrawOperation",
      "outputs": [],
      "stateMutability": "payable",
      "type": "function"
    },
    {
      "inputs": [
        {
          "internalType": "address",
          "name": "gemToken",
          "type": "address"
        },
        {
          "internalType": "address",
          "name": "dsProxy",
          "type": "address"
        },
        {
          "internalType": "address",
          "name": "dsProxyActions",
          "type": "address"
        },
        {
          "internalType": "address",
          "name": "manager",
          "type": "address"
        },
        {
          "internalType": "address",
          "name": "jug",
          "type": "address"
        },
        {
          "internalType": "address",
          "name": "gemJoin",
          "type": "address"
        },
        {
          "internalType": "address",
          "name": "daiJoin",
          "type": "address"
        },
        {
          "internalType": "uint256",
          "name": "cdp",
          "type": "uint256"
        },
        {
          "internalType": "uint256",
          "name": "collateralToLock",
          "type": "uint256"
        },
        {
          "internalType": "uint256",
          "name": "daiToBorrow",
          "type": "uint256"
        },
        {
          "internalType": "bool",
          "name": "transferFrom",
          "type": "bool"
        }
      ],
      "name": "lockGemAndDraw",
      "outputs": [],
      "stateMutability": "nonpayable",
      "type": "function"
    },
    {
      "inputs": [
        {
          "components": [
            {
              "internalType": "address",
              "name": "sender",
              "type": "address"
            },
            {
              "internalType": "address",
              "name": "debtToken",
              "type": "address"
            },
            {
              "internalType": "uint256",
              "name": "debtToPay",
              "type": "uint256"
            },
            {
              "internalType": "address",
              "name": "tokenA",
              "type": "address"
            },
            {
              "internalType": "address",
              "name": "tokenB",
              "type": "address"
            },
            {
              "internalType": "address",
              "name": "pairToken",
              "type": "address"
            },
            {
              "internalType": "uint256",
              "name": "collateralAmountToFree",
              "type": "uint256"
            },
            {
              "internalType": "uint256",
              "name": "collateralAmountToUseToPayDebt",
              "type": "uint256"
            },
            {
              "internalType": "uint256",
              "name": "debtToCoverWithTokenA",
              "type": "uint256"
            },
            {
              "internalType": "uint256",
              "name": "debtToCoverWithTokenB",
              "type": "uint256"
            },
            {
              "internalType": "address[]",
              "name": "pathTokenAToDebtToken",
              "type": "address[]"
            },
            {
              "internalType": "address[]",
              "name": "pathTokenBToDebtToken",
              "type": "address[]"
            },
            {
              "internalType": "uint256",
              "name": "minTokenAToRecive",
              "type": "uint256"
            },
            {
              "internalType": "uint256",
              "name": "minTokenBToRecive",
              "type": "uint256"
            },
            {
              "internalType": "uint256",
              "name": "loanFee",
              "type": "uint256"
            },
            {
              "internalType": "uint256",
              "name": "deadline",
              "type": "uint256"
            },
            {
              "internalType": "address",
              "name": "dsProxy",
              "type": "address"
            },
            {
              "internalType": "address",
              "name": "dsProxyActions",
              "type": "address"
            },
            {
              "internalType": "address",
              "name": "manager",
              "type": "address"
            },
            {
              "internalType": "address",
              "name": "gemJoin",
              "type": "address"
            },
            {
              "internalType": "address",
              "name": "daiJoin",
              "type": "address"
            },
            {
              "internalType": "uint256",
              "name": "cdp",
              "type": "uint256"
            },
            {
              "internalType": "address",
              "name": "router02",
              "type": "address"
            }
          ],
          "internalType": "struct RemovePosition.PayBackParameters",
          "name": "parameters",
          "type": "tuple"
        }
      ],
      "name": "paybackDebt",
      "outputs": [
        {
          "internalType": "uint256",
          "name": "freeTokenA",
          "type": "uint256"
        },
        {
          "internalType": "uint256",
          "name": "freeTokenB",
          "type": "uint256"
        },
        {
          "internalType": "uint256",
          "name": "freePairToken",
          "type": "uint256"
        }
      ],
      "stateMutability": "payable",
      "type": "function"
    }
  ],
  "transactionHash": "0x3cad10cedb2524b3616a76acd8aba1297787aca2a43f7663a924b74c3163f427",
  "args": [
    "0x88757f2f99175387aB4C6a4b3067c77A695b0349"
  ],
  "solcInputHash": "96eadaebd32f7637e0f04320dee2e042",
  "bytecode": "0x60c06040523480156200001157600080fd5b5060405162003c6f38038062003c6f833981810160405281019062000037919062000148565b808073ffffffffffffffffffffffffffffffffffffffff1660808173ffffffffffffffffffffffffffffffffffffffff1660601b815250508073ffffffffffffffffffffffffffffffffffffffff16630261bf8b6040518163ffffffff1660e01b815260040160206040518083038186803b158015620000b657600080fd5b505afa158015620000cb573d6000803e3d6000fd5b505050506040513d6020811015620000e257600080fd5b810190808051906020019092919050505073ffffffffffffffffffffffffffffffffffffffff1660a08173ffffffffffffffffffffffffffffffffffffffff1660601b815250505050620001d6565b6000815190506200014281620001bc565b92915050565b6000602082840312156200015b57600080fd5b60006200016b8482850162000131565b91505092915050565b600062000181826200019c565b9050919050565b6000620001958262000174565b9050919050565b600073ffffffffffffffffffffffffffffffffffffffff82169050919050565b620001c78162000188565b8114620001d357600080fd5b50565b60805160601c60a05160601c613a656200020a60003980610edc5280610f0952806117f05250806102095250613a656000f3fe6080604052600436106100865760003560e01c80637ad0b69e116100595780637ad0b69e1461013c5780638348d03414610158578063920f5c8414610183578063a1591a8a146101c0578063b4dcfc77146101dc57610086565b80630542975c1461008b57806308a42797146100b65780632ebf8cbe146100e15780634a87223f1461010a575b600080fd5b34801561009757600080fd5b506100a0610207565b6040516100ad919061356a565b60405180910390f35b3480156100c257600080fd5b506100cb61022b565b6040516100d891906136cb565b60405180910390f35b3480156100ed57600080fd5b5061010860048036038101906101039190612a95565b610230565b005b610124600480360381019061011f9190612ec7565b61034f565b60405161013393929190613694565b60405180910390f35b61015660048036038101906101519190612b85565b6106af565b005b34801561016457600080fd5b5061016d610889565b60405161017a91906136cb565b60405180910390f35b34801561018f57600080fd5b506101aa60048036038101906101a59190612cdb565b61088e565b6040516101b7919061354f565b60405180910390f35b6101da60048036038101906101d59190612e04565b61093a565b005b3480156101e857600080fd5b506101f1610f07565b6040516101fe9190613585565b60405180910390f35b7f000000000000000000000000000000000000000000000000000000000000000081565b600281565b61023a8b8b610f2b565b8973ffffffffffffffffffffffffffffffffffffffff16631cff79cd8a8a8a8a8a8a8a8a8a6040516024016102769897969594939291906132c8565b6040516020818303038152906040527fcbd4be3f000000000000000000000000000000000000000000000000000000007bffffffffffffffffffffffffffffffffffffffffffffffffffffffff19166020820180517bffffffffffffffffffffffffffffffffffffffffffffffffffffffff83818316178352505050506040518363ffffffff1660e01b815260040161031092919061351f565b600060405180830381600087803b15801561032a57600080fd5b505af115801561033e573d6000803e3d6000fd5b505050505050505050505050505050565b600080600080846040015190506103938561020001518661022001518761024001518861026001518961028001518a6102a001518b60c00151888d60200151611005565b6000600267ffffffffffffffff811180156103ad57600080fd5b506040519080825280602002602001820160405280156103dc5781602001602082028036833780820191505090505b5090508560600151816000815181106103f157fe5b602002602001019073ffffffffffffffffffffffffffffffffffffffff16908173ffffffffffffffffffffffffffffffffffffffff168152505085602001518160018151811061043d57fe5b602002602001019073ffffffffffffffffffffffffffffffffffffffff16908173ffffffffffffffffffffffffffffffffffffffff16815250506000600267ffffffffffffffff8111801561049157600080fd5b506040519080825280602002602001820160405280156104c05781602001602082028036833780820191505090505b5090508660800151816000815181106104d557fe5b602002602001019073ffffffffffffffffffffffffffffffffffffffff16908173ffffffffffffffffffffffffffffffffffffffff168152505086602001518160018151811061052157fe5b602002602001019073ffffffffffffffffffffffffffffffffffffffff16908173ffffffffffffffffffffffffffffffffffffffff168152505060008061063e6040518061018001604052808b6102c0015173ffffffffffffffffffffffffffffffffffffffff1681526020018b6060015173ffffffffffffffffffffffffffffffffffffffff1681526020018b6080015173ffffffffffffffffffffffffffffffffffffffff1681526020018b60a0015173ffffffffffffffffffffffffffffffffffffffff1681526020018b60e0015181526020018b610180015181526020018b6101a0015181526020018b6101e0015181526020018b610100015181526020018b610120015181526020018681526020018581525061111e565b9150915060008073ffffffffffffffffffffffffffffffffffffffff168a60a0015173ffffffffffffffffffffffffffffffffffffffff1614610699576106968a60e001518b60c0015161152090919063ffffffff16565b90505b8282829850985098505050505050509193909250565b60005a90503073ffffffffffffffffffffffffffffffffffffffff166313af40358a6040518263ffffffff1660e01b81526004016106ed9190613284565b600060405180830381600087803b15801561070757600080fd5b505af115801561071b573d6000803e3d6000fd5b5050505060005b88518110156107995761077e8b8b8a848151811061073c57fe5b60200260200101518c858151811061075057fe5b602002602001015173ffffffffffffffffffffffffffffffffffffffff166115a3909392919063ffffffff16565b61079260018261166490919063ffffffff16565b9050610722565b508573ffffffffffffffffffffffffffffffffffffffff1663ab9c4b5d8a8787878e8860006040518863ffffffff1660e01b81526004016107e09796959493929190613494565b600060405180830381600087803b1580156107fa57600080fd5b505af115801561080e573d6000803e3d6000fd5b505050503073ffffffffffffffffffffffffffffffffffffffff166313af40358b6040518263ffffffff1660e01b815260040161084b9190613284565b600060405180830381600087803b15801561086557600080fd5b505af1158015610879573d6000803e3d6000fd5b5050505050505050505050505050565b600181565b60008083838101906108a09190612e86565b9050600160ff16816000015160ff1614156108c7576108c281602001516116ec565b610928565b600260ff16816000015160ff1614156108ec576108e7816020015161093a565b610927565b6040517f08c379a000000000000000000000000000000000000000000000000000000000815260040161091e906135a0565b60405180910390fd5b5b60019150509998505050505050505050565b6000818060200190518101906109509190612e45565b905060008160a0015151118061096c5750600081610100015151115b156109845761098381602001518260400151610f2b565b5b60008060008084608001511115610aa957836060015173ffffffffffffffffffffffffffffffffffffffff16846020015173ffffffffffffffffffffffffffffffffffffffff1614156109dd5783608001519250610aa5565b836040015173ffffffffffffffffffffffffffffffffffffffff166338ed1739856080015160008760a0015130896102e001516040518663ffffffff1660e01b8152600401610a309594939291906135e0565b600060405180830381600087803b158015610a4a57600080fd5b505af1158015610a5e573d6000803e3d6000fd5b505050506040513d6000823e3d601f19601f82011682018060405250810190610a879190612dc3565b60018560a00151510381518110610a9a57fe5b602002602001015192505b8290505b60008460e001511115610bc9578360c0015173ffffffffffffffffffffffffffffffffffffffff16846020015173ffffffffffffffffffffffffffffffffffffffff161415610afe578360e001519150610bc8565b836040015173ffffffffffffffffffffffffffffffffffffffff166338ed17398560e00151600087610100015130896102e001516040518663ffffffff1660e01b8152600401610b529594939291906135e0565b600060405180830381600087803b158015610b6c57600080fd5b505af1158015610b80573d6000803e3d6000fd5b505050506040513d6000823e3d601f19601f82011682018060405250810190610ba99190612dc3565b6001856101000151510381518110610bbd57fe5b602002602001015191505b5b6000610be38386610140015161166490919063ffffffff16565b1115610e1657610bfb84606001518560400151610f2b565b610c0d8460c001518560400151610f2b565b6000806000866040015173ffffffffffffffffffffffffffffffffffffffff1663e8e3370088606001518960c00151610c548a8c610120015161166490919063ffffffff16565b610c6c8a8d610140015161166490919063ffffffff16565b600080308f6102e001516040518963ffffffff1660e01b8152600401610c99989796959493929190613416565b606060405180830381600087803b158015610cb357600080fd5b505af1158015610cc7573d6000803e3d6000fd5b505050506040513d601f19601f82011682018060405250810190610ceb9190612fae565b9250925092508093506000610d2084610d12898b610120015161166490919063ffffffff16565b61152090919063ffffffff16565b1115610d8357610d828760000151610d5885610d4a8a8c610120015161166490919063ffffffff16565b61152090919063ffffffff16565b896060015173ffffffffffffffffffffffffffffffffffffffff1661181b9092919063ffffffff16565b5b6000610daf83610da1888b610140015161166490919063ffffffff16565b61152090919063ffffffff16565b1115610e1257610e118760000151610de784610dd9898c610140015161166490919063ffffffff16565b61152090919063ffffffff16565b8960c0015173ffffffffffffffffffffffffffffffffffffffff1661181b9092919063ffffffff16565b5b5050505b836101600151811015610e5e576040517f08c379a0000000000000000000000000000000000000000000000000000000008152600401610e55906135c0565b60405180910390fd5b610eba846101a00151856101c00151866101e001518761020001518861022001518961024001518a61026001518b6102800151610ea98a8e610180015161166490919063ffffffff16565b8d6102a001518e6102c00151610230565b610ed284600001518560200151866102a001516118bd565b610f0084602001517f0000000000000000000000000000000000000000000000000000000000000000610f2b565b5050505050565b7f000000000000000000000000000000000000000000000000000000000000000081565b600260001981610f3757fe5b048273ffffffffffffffffffffffffffffffffffffffff1663dd62ed3e30846040518363ffffffff1660e01b8152600401610f7392919061329f565b60206040518083038186803b158015610f8b57600080fd5b505afa158015610f9f573d6000803e3d6000fd5b505050506040513d601f19601f82011682018060405250810190610fc39190612f49565b10156110015761100081600260001981610fd957fe5b048473ffffffffffffffffffffffffffffffffffffffff166119149092919063ffffffff16565b5b5050565b61100f818a610f2b565b8873ffffffffffffffffffffffffffffffffffffffff16631cff79cd8989898989898960405160240161104796959493929190613346565b6040516020818303038152906040527fa6add011000000000000000000000000000000000000000000000000000000007bffffffffffffffffffffffffffffffffffffffffffffffffffffffff19166020820180517bffffffffffffffffffffffffffffffffffffffffffffffffffffffff83818316178352505050506040518363ffffffff1660e01b81526004016110e192919061351f565b600060405180830381600087803b1580156110fb57600080fd5b505af115801561110f573d6000803e3d6000fd5b50505050505050505050505050565b600080600080600080600073ffffffffffffffffffffffffffffffffffffffff16876040015173ffffffffffffffffffffffffffffffffffffffff16146113875761117187606001518860000151610f2b565b866000015173ffffffffffffffffffffffffffffffffffffffff1663baa2abde886020015189604001518a60800151600080308e60e001516040518863ffffffff1660e01b81526004016111cb97969594939291906133a7565b6040805180830381600087803b1580156111e457600080fd5b505af11580156111f8573d6000803e3d6000fd5b505050506040513d601f19601f8201168201806040525081019061121c9190612f72565b80945081955050506000876101200151111561138257866101600151600188610160015151038151811061124c57fe5b602002602001015173ffffffffffffffffffffffffffffffffffffffff16876040015173ffffffffffffffffffffffffffffffffffffffff161415611298578661012001519050611381565b6112aa87604001518860000151610f2b565b866000015173ffffffffffffffffffffffffffffffffffffffff16638803dbee8861012001516112e78a60c001518761152090919063ffffffff16565b8a6101600151308c60e001516040518663ffffffff1660e01b815260040161131395949392919061363a565b600060405180830381600087803b15801561132d57600080fd5b505af1158015611341573d6000803e3d6000fd5b505050506040513d6000823e3d601f19601f8201168201806040525081019061136a9190612dc3565b60008151811061137657fe5b602002602001015190505b5b61138f565b866080015193505b600087610100015111156114ed5786610140015160018861014001515103815181106113b757fe5b602002602001015173ffffffffffffffffffffffffffffffffffffffff16876020015173ffffffffffffffffffffffffffffffffffffffff1614156114035786610100015191506114ec565b61141587602001518860000151610f2b565b866000015173ffffffffffffffffffffffffffffffffffffffff16638803dbee8861010001516114528a60a001518861152090919063ffffffff16565b8a6101400151308c60e001516040518663ffffffff1660e01b815260040161147e95949392919061363a565b600060405180830381600087803b15801561149857600080fd5b505af11580156114ac573d6000803e3d6000fd5b505050506040513d6000823e3d601f19601f820116820180604052508101906114d59190612dc3565b6000815181106114e157fe5b602002602001015191505b5b611500828561152090919063ffffffff16565b611513828561152090919063ffffffff16565b9550955050505050915091565b600082821115611598576040517f08c379a000000000000000000000000000000000000000000000000000000000815260040180806020018281038252601e8152602001807f536166654d6174683a207375627472616374696f6e206f766572666c6f77000081525060200191505060405180910390fd5b818303905092915050565b61165e846323b872dd60e01b858585604051602401808473ffffffffffffffffffffffffffffffffffffffff1681526020018373ffffffffffffffffffffffffffffffffffffffff1681526020018281526020019350505050604051602081830303815290604052907bffffffffffffffffffffffffffffffffffffffffffffffffffffffff19166020820180517bffffffffffffffffffffffffffffffffffffffffffffffffffffffff8381831617835250505050611a8d565b50505050565b6000808284019050838110156116e2576040517f08c379a000000000000000000000000000000000000000000000000000000000815260040180806020018281038252601b8152602001807f536166654d6174683a206164646974696f6e206f766572666c6f77000000000081525060200191505060405180910390fd5b8091505092915050565b6000818060200190518101906117029190612f08565b905060008060006117128461034f565b925092509250600083111561175557611754846000015184866060015173ffffffffffffffffffffffffffffffffffffffff1661181b9092919063ffffffff16565b5b600082111561179257611791846000015183866080015173ffffffffffffffffffffffffffffffffffffffff1661181b9092919063ffffffff16565b5b60008111156117cf576117ce8460000151828660a0015173ffffffffffffffffffffffffffffffffffffffff1661181b9092919063ffffffff16565b5b6117e68460000151856020015186604001516118bd565b61181484602001517f0000000000000000000000000000000000000000000000000000000000000000610f2b565b5050505050565b6118b88363a9059cbb60e01b8484604051602401808373ffffffffffffffffffffffffffffffffffffffff16815260200182815260200192505050604051602081830303815290604052907bffffffffffffffffffffffffffffffffffffffffffffffffffffffff19166020820180517bffffffffffffffffffffffffffffffffffffffffffffffffffffffff8381831617835250505050611a8d565b505050565b61190f836118e96127106118db600386611b7c90919063ffffffff16565b611c0290919063ffffffff16565b8473ffffffffffffffffffffffffffffffffffffffff1661181b9092919063ffffffff16565b505050565b60006119e8828573ffffffffffffffffffffffffffffffffffffffff1663dd62ed3e30876040518363ffffffff1660e01b8152600401808373ffffffffffffffffffffffffffffffffffffffff1681526020018273ffffffffffffffffffffffffffffffffffffffff1681526020019250505060206040518083038186803b15801561199f57600080fd5b505afa1580156119b3573d6000803e3d6000fd5b505050506040513d60208110156119c957600080fd5b810190808051906020019092919050505061166490919063ffffffff16565b9050611a878463095ea7b360e01b8584604051602401808373ffffffffffffffffffffffffffffffffffffffff16815260200182815260200192505050604051602081830303815290604052907bffffffffffffffffffffffffffffffffffffffffffffffffffffffff19166020820180517bffffffffffffffffffffffffffffffffffffffffffffffffffffffff8381831617835250505050611a8d565b50505050565b6000611aef826040518060400160405280602081526020017f5361666545524332303a206c6f772d6c6576656c2063616c6c206661696c65648152508573ffffffffffffffffffffffffffffffffffffffff16611c8b9092919063ffffffff16565b9050600081511115611b7757808060200190516020811015611b1057600080fd5b8101908080519060200190929190505050611b76576040517f08c379a000000000000000000000000000000000000000000000000000000000815260040180806020018281038252602a815260200180613a06602a913960400191505060405180910390fd5b5b505050565b600080831415611b8f5760009050611bfc565b6000828402905082848281611ba057fe5b0414611bf7576040517f08c379a00000000000000000000000000000000000000000000000000000000081526004018080602001828103825260218152602001806139e56021913960400191505060405180910390fd5b809150505b92915050565b6000808211611c79576040517f08c379a000000000000000000000000000000000000000000000000000000000815260040180806020018281038252601a8152602001807f536166654d6174683a206469766973696f6e206279207a65726f00000000000081525060200191505060405180910390fd5b818381611c8257fe5b04905092915050565b6060611c9a8484600085611ca3565b90509392505050565b606082471015611cfe576040517f08c379a00000000000000000000000000000000000000000000000000000000081526004018080602001828103825260268152602001806139bf6026913960400191505060405180910390fd5b611d0785611e4b565b611d79576040517f08c379a000000000000000000000000000000000000000000000000000000000815260040180806020018281038252601d8152602001807f416464726573733a2063616c6c20746f206e6f6e2d636f6e747261637400000081525060200191505060405180910390fd5b6000808673ffffffffffffffffffffffffffffffffffffffff1685876040518082805190602001908083835b60208310611dc85780518252602082019150602081019050602083039250611da5565b6001836020036101000a03801982511681845116808217855250505050505090500191505060006040518083038185875af1925050503d8060008114611e2a576040519150601f19603f3d011682016040523d82523d6000602084013e611e2f565b606091505b5091509150611e3f828286611e5e565b92505050949350505050565b600080823b905060008111915050919050565b60608315611e6e57829050611f23565b600083511115611e815782518084602001fd5b816040517f08c379a00000000000000000000000000000000000000000000000000000000081526004018080602001828103825283818151815260200191508051906020019080838360005b83811015611ee8578082015181840152602081019050611ecd565b50505050905090810190601f168015611f155780820380516001836020036101000a031916815260200191505b509250505060405180910390fd5b9392505050565b6000611f3d611f3884613717565b6136e6565b90508083825260208201905082856020860282011115611f5c57600080fd5b60005b85811015611f8c5781611f728882612118565b845260208401935060208301925050600181019050611f5f565b5050509392505050565b6000611fa9611fa484613717565b6136e6565b90508083825260208201905082856020860282011115611fc857600080fd5b60005b85811015611ff85781611fde888261212d565b845260208401935060208301925050600181019050611fcb565b5050509392505050565b600061201561201084613743565b6136e6565b9050808382526020820190508285602086028201111561203457600080fd5b60005b85811015612064578161204a8882612a56565b845260208401935060208301925050600181019050612037565b5050509392505050565b600061208161207c84613743565b6136e6565b905080838252602082019050828560208602820111156120a057600080fd5b60005b858110156120d057816120b68882612a6b565b8452602084019350602083019250506001810190506120a3565b5050509392505050565b60006120ed6120e88461376f565b6136e6565b90508281526020810184848401111561210557600080fd5b61211084828561390d565b509392505050565b60008135905061212781613962565b92915050565b60008151905061213c81613962565b92915050565b60008083601f84011261215457600080fd5b8235905067ffffffffffffffff81111561216d57600080fd5b60208301915083602082028301111561218557600080fd5b9250929050565b600082601f83011261219d57600080fd5b81356121ad848260208601611f2a565b91505092915050565b600082601f8301126121c757600080fd5b81516121d7848260208601611f96565b91505092915050565b60008083601f8401126121f257600080fd5b8235905067ffffffffffffffff81111561220b57600080fd5b60208301915083602082028301111561222357600080fd5b9250929050565b600082601f83011261223b57600080fd5b813561224b848260208601612002565b91505092915050565b600082601f83011261226557600080fd5b815161227584826020860161206e565b91505092915050565b60008135905061228d81613979565b92915050565b6000815190506122a281613979565b92915050565b60008083601f8401126122ba57600080fd5b8235905067ffffffffffffffff8111156122d357600080fd5b6020830191508360018202830111156122eb57600080fd5b9250929050565b600082601f83011261230357600080fd5b81356123138482602086016120da565b91505092915050565b6000610300828403121561232f57600080fd5b61233a6103006136e6565b9050600061234a8482850161212d565b600083015250602061235e8482850161212d565b60208301525060406123728482850161212d565b60408301525060606123868482850161212d565b606083015250608061239a84828501612a6b565b60808301525060a082015167ffffffffffffffff8111156123ba57600080fd5b6123c6848285016121b6565b60a08301525060c06123da8482850161212d565b60c08301525060e06123ee84828501612a6b565b60e08301525061010082015167ffffffffffffffff81111561240f57600080fd5b61241b848285016121b6565b6101008301525061012061243184828501612a6b565b6101208301525061014061244784828501612a6b565b6101408301525061016061245d84828501612a6b565b6101608301525061018061247384828501612a6b565b610180830152506101a06124898482850161212d565b6101a0830152506101c061249f8482850161212d565b6101c0830152506101e06124b58482850161212d565b6101e0830152506102006124cb8482850161212d565b610200830152506102206124e18482850161212d565b610220830152506102406124f78482850161212d565b6102408301525061026061250d8482850161212d565b6102608301525061028061252384828501612a6b565b610280830152506102a061253984828501612a6b565b6102a0830152506102c061254f84828501612293565b6102c0830152506102e061256584828501612a6b565b6102e08301525092915050565b60006040828403121561258457600080fd5b61258e60406136e6565b9050600061259e84828501612a80565b600083015250602082013567ffffffffffffffff8111156125be57600080fd5b6125ca848285016122f2565b60208301525092915050565b60006102e082840312156125e957600080fd5b6125f46102e06136e6565b9050600061260484828501612118565b600083015250602061261884828501612118565b602083015250604061262c84828501612a56565b604083015250606061264084828501612118565b606083015250608061265484828501612118565b60808301525060a061266884828501612118565b60a08301525060c061267c84828501612a56565b60c08301525060e061269084828501612a56565b60e0830152506101006126a584828501612a56565b610100830152506101206126bb84828501612a56565b6101208301525061014082013567ffffffffffffffff8111156126dd57600080fd5b6126e98482850161218c565b6101408301525061016082013567ffffffffffffffff81111561270b57600080fd5b6127178482850161218c565b6101608301525061018061272d84828501612a56565b610180830152506101a061274384828501612a56565b6101a0830152506101c061275984828501612a56565b6101c0830152506101e061276f84828501612a56565b6101e08301525061020061278584828501612118565b6102008301525061022061279b84828501612118565b610220830152506102406127b184828501612118565b610240830152506102606127c784828501612118565b610260830152506102806127dd84828501612118565b610280830152506102a06127f384828501612a56565b6102a0830152506102c061280984828501612118565b6102c08301525092915050565b60006102e0828403121561282957600080fd5b6128346102e06136e6565b905060006128448482850161212d565b60008301525060206128588482850161212d565b602083015250604061286c84828501612a6b565b60408301525060606128808482850161212d565b60608301525060806128948482850161212d565b60808301525060a06128a88482850161212d565b60a08301525060c06128bc84828501612a6b565b60c08301525060e06128d084828501612a6b565b60e0830152506101006128e584828501612a6b565b610100830152506101206128fb84828501612a6b565b6101208301525061014082015167ffffffffffffffff81111561291d57600080fd5b612929848285016121b6565b6101408301525061016082015167ffffffffffffffff81111561294b57600080fd5b612957848285016121b6565b6101608301525061018061296d84828501612a6b565b610180830152506101a061298384828501612a6b565b6101a0830152506101c061299984828501612a6b565b6101c0830152506101e06129af84828501612a6b565b6101e0830152506102006129c58482850161212d565b610200830152506102206129db8482850161212d565b610220830152506102406129f18482850161212d565b61024083015250610260612a078482850161212d565b61026083015250610280612a1d8482850161212d565b610280830152506102a0612a3384828501612a6b565b6102a0830152506102c0612a498482850161212d565b6102c08301525092915050565b600081359050612a6581613990565b92915050565b600081519050612a7a81613990565b92915050565b600081359050612a8f816139a7565b92915050565b60008060008060008060008060008060006101608c8e031215612ab757600080fd5b6000612ac58e828f01612118565b9b50506020612ad68e828f01612118565b9a50506040612ae78e828f01612118565b9950506060612af88e828f01612118565b9850506080612b098e828f01612118565b97505060a0612b1a8e828f01612118565b96505060c0612b2b8e828f01612118565b95505060e0612b3c8e828f01612a56565b945050610100612b4e8e828f01612a56565b935050610120612b608e828f01612a56565b925050610140612b728e828f0161227e565b9150509295989b509295989b9093969950565b60008060008060008060008060006101208a8c031215612ba457600080fd5b6000612bb28c828d01612118565b9950506020612bc38c828d01612118565b98505060408a013567ffffffffffffffff811115612be057600080fd5b612bec8c828d0161218c565b97505060608a013567ffffffffffffffff811115612c0957600080fd5b612c158c828d0161222a565b9650506080612c268c828d01612118565b95505060a08a013567ffffffffffffffff811115612c4357600080fd5b612c4f8c828d0161218c565b94505060c08a013567ffffffffffffffff811115612c6c57600080fd5b612c788c828d0161222a565b93505060e08a013567ffffffffffffffff811115612c9557600080fd5b612ca18c828d0161222a565b9250506101008a013567ffffffffffffffff811115612cbf57600080fd5b612ccb8c828d016122f2565b9150509295985092959850929598565b600080600080600080600080600060a08a8c031215612cf957600080fd5b60008a013567ffffffffffffffff811115612d1357600080fd5b612d1f8c828d01612142565b995099505060208a013567ffffffffffffffff811115612d3e57600080fd5b612d4a8c828d016121e0565b975097505060408a013567ffffffffffffffff811115612d6957600080fd5b612d758c828d016121e0565b95509550506060612d888c828d01612118565b93505060808a013567ffffffffffffffff811115612da557600080fd5b612db18c828d016122a8565b92509250509295985092959850929598565b600060208284031215612dd557600080fd5b600082015167ffffffffffffffff811115612def57600080fd5b612dfb84828501612254565b91505092915050565b600060208284031215612e1657600080fd5b600082013567ffffffffffffffff811115612e3057600080fd5b612e3c848285016122f2565b91505092915050565b600060208284031215612e5757600080fd5b600082015167ffffffffffffffff811115612e7157600080fd5b612e7d8482850161231c565b91505092915050565b600060208284031215612e9857600080fd5b600082013567ffffffffffffffff811115612eb257600080fd5b612ebe84828501612572565b91505092915050565b600060208284031215612ed957600080fd5b600082013567ffffffffffffffff811115612ef357600080fd5b612eff848285016125d6565b91505092915050565b600060208284031215612f1a57600080fd5b600082015167ffffffffffffffff811115612f3457600080fd5b612f4084828501612816565b91505092915050565b600060208284031215612f5b57600080fd5b6000612f6984828501612a6b565b91505092915050565b60008060408385031215612f8557600080fd5b6000612f9385828601612a6b565b9250506020612fa485828601612a6b565b9150509250929050565b600080600060608486031215612fc357600080fd5b6000612fd186828701612a6b565b9350506020612fe286828701612a6b565b9250506040612ff386828701612a6b565b9150509250925092565b6000613009838361302d565b60208301905092915050565b60006130218383613257565b60208301905092915050565b6130368161383e565b82525050565b6130458161383e565b82525050565b6000613056826137bf565b61306081856137fa565b935061306b8361379f565b8060005b8381101561309c5781516130838882612ffd565b975061308e836137e0565b92505060018101905061306f565b5085935050505092915050565b60006130b4826137ca565b6130be818561380b565b93506130c9836137af565b8060005b838110156130fa5781516130e18882613015565b97506130ec836137ed565b9250506001810190506130cd565b5085935050505092915050565b61311081613850565b82525050565b6000613121826137d5565b61312b818561381c565b935061313b81856020860161391c565b61314481613951565b840191505092915050565b613158816138a1565b82525050565b613167816138c5565b82525050565b613176816138e9565b82525050565b613185816138fb565b82525050565b6000613198601e8361382d565b91507f45617379205661756c743a20496e76616c6964206f7065726174696f6e2e00006000830152602082019050919050565b60006131d860468361382d565b91507f45617379204c656e64696e673a20426f7567687420636f6c6c61746572616c2060008301527f6c6f776572207468616e20657870656374656420636f6c6c61746572616c207460208301527f6f206275792e00000000000000000000000000000000000000000000000000006040830152606082019050919050565b6132608161388a565b82525050565b61326f8161388a565b82525050565b61327e81613894565b82525050565b6000602082019050613299600083018461303c565b92915050565b60006040820190506132b4600083018561303c565b6132c1602083018461303c565b9392505050565b6000610100820190506132de600083018b61303c565b6132eb602083018a61303c565b6132f8604083018961303c565b613305606083018861303c565b6133126080830187613266565b61331f60a0830186613266565b61332c60c0830185613266565b61333960e0830184613107565b9998505050505050505050565b600060c08201905061335b600083018961303c565b613368602083018861303c565b613375604083018761303c565b6133826060830186613266565b61338f6080830185613266565b61339c60a0830184613266565b979650505050505050565b600060e0820190506133bc600083018a61303c565b6133c9602083018961303c565b6133d66040830188613266565b6133e3606083018761317c565b6133f0608083018661317c565b6133fd60a083018561303c565b61340a60c0830184613266565b98975050505050505050565b60006101008201905061342c600083018b61303c565b613439602083018a61303c565b6134466040830189613266565b6134536060830188613266565b613460608083018761317c565b61346d60a083018661317c565b61347a60c083018561303c565b61348760e0830184613266565b9998505050505050505050565b600060e0820190506134a9600083018a61303c565b81810360208301526134bb818961304b565b905081810360408301526134cf81886130a9565b905081810360608301526134e381876130a9565b90506134f2608083018661303c565b81810360a08301526135048185613116565b905061351360c083018461316d565b98975050505050505050565b6000604082019050613534600083018561303c565b81810360208301526135468184613116565b90509392505050565b60006020820190506135646000830184613107565b92915050565b600060208201905061357f600083018461314f565b92915050565b600060208201905061359a600083018461315e565b92915050565b600060208201905081810360008301526135b98161318b565b9050919050565b600060208201905081810360008301526135d9816131cb565b9050919050565b600060a0820190506135f56000830188613266565b613602602083018761317c565b8181036040830152613614818661304b565b9050613623606083018561303c565b6136306080830184613266565b9695505050505050565b600060a08201905061364f6000830188613266565b61365c6020830187613266565b818103604083015261366e818661304b565b905061367d606083018561303c565b61368a6080830184613266565b9695505050505050565b60006060820190506136a96000830186613266565b6136b66020830185613266565b6136c36040830184613266565b949350505050565b60006020820190506136e06000830184613275565b92915050565b6000604051905081810181811067ffffffffffffffff8211171561370d5761370c61394f565b5b8060405250919050565b600067ffffffffffffffff8211156137325761373161394f565b5b602082029050602081019050919050565b600067ffffffffffffffff82111561375e5761375d61394f565b5b602082029050602081019050919050565b600067ffffffffffffffff82111561378a5761378961394f565b5b601f19601f8301169050602081019050919050565b6000819050602082019050919050565b6000819050602082019050919050565b600081519050919050565b600081519050919050565b600081519050919050565b6000602082019050919050565b6000602082019050919050565b600082825260208201905092915050565b600082825260208201905092915050565b600082825260208201905092915050565b600082825260208201905092915050565b60006138498261386a565b9050919050565b60008115159050919050565b600061ffff82169050919050565b600073ffffffffffffffffffffffffffffffffffffffff82169050919050565b6000819050919050565b600060ff82169050919050565b60006138ac826138b3565b9050919050565b60006138be8261386a565b9050919050565b60006138d0826138d7565b9050919050565b60006138e28261386a565b9050919050565b60006138f48261385c565b9050919050565b60006139068261388a565b9050919050565b82818337600083830152505050565b60005b8381101561393a57808201518184015260208101905061391f565b83811115613949576000848401525b50505050565bfe5b6000601f19601f8301169050919050565b61396b8161383e565b811461397657600080fd5b50565b61398281613850565b811461398d57600080fd5b50565b6139998161388a565b81146139a457600080fd5b50565b6139b081613894565b81146139bb57600080fd5b5056fe416464726573733a20696e73756666696369656e742062616c616e636520666f722063616c6c536166654d6174683a206d756c7469706c69636174696f6e206f766572666c6f775361666545524332303a204552433230206f7065726174696f6e20646964206e6f742073756363656564a2646970667358221220d442a86afc66716f37b2ad51e9661a33affb68730068ff757e8f9891b81cb66964736f6c63430007060033",
  "devdoc": {
    "kind": "dev",
    "methods": {},
    "version": 1
  },
  "userdoc": {
    "kind": "user",
    "methods": {
      "executeOperation(address[],uint256[],uint256[],address,bytes)": {
        "notice": "This function is called after your contract has received the flash loan amount"
      },
      "flashLoanFromDSProxy(address,address,address[],uint256[],address,address[],uint256[],uint256[],bytes)": {
        "notice": "Executed as DSProxy."
      }
    },
    "version": 1
  },
  "storageLayout": {
    "storage": [],
    "types": null
  }
}