{
  "address": "0xfF747c6818a1aA16cd55A2d5206A681072B7a479",
  "abi": [
    {
      "inputs": [
        {
          "internalType": "address",
          "name": "_dai",
          "type": "address"
        }
      ],
      "stateMutability": "nonpayable",
      "type": "constructor"
    },
    {
      "anonymous": false,
      "inputs": [
        {
          "indexed": true,
          "internalType": "address",
          "name": "previousOwner",
          "type": "address"
        },
        {
          "indexed": true,
          "internalType": "address",
          "name": "newOwner",
          "type": "address"
        }
      ],
      "name": "OwnershipTransferred",
      "type": "event"
    },
    {
      "inputs": [],
      "name": "dai",
      "outputs": [
        {
          "internalType": "address",
          "name": "",
          "type": "address"
        }
      ],
      "stateMutability": "view",
      "type": "function"
    },
    {
      "inputs": [
        {
          "internalType": "uint256",
          "name": "marketId",
          "type": "uint256"
        }
      ],
      "name": "getMarketTokenAddress",
      "outputs": [
        {
          "internalType": "address",
          "name": "",
          "type": "address"
        }
      ],
      "stateMutability": "view",
      "type": "function"
    },
    {
      "inputs": [],
      "name": "getNumMarkets",
      "outputs": [
        {
          "internalType": "uint256",
          "name": "",
          "type": "uint256"
        }
      ],
      "stateMutability": "view",
      "type": "function"
    },
    {
      "inputs": [
        {
          "components": [
            {
              "internalType": "address",
              "name": "owner",
              "type": "address"
            },
            {
              "internalType": "uint256",
              "name": "number",
              "type": "uint256"
            }
          ],
          "internalType": "struct Account.Info[]",
          "name": "accounts",
          "type": "tuple[]"
        },
        {
          "components": [
            {
              "internalType": "enum Actions.ActionType",
              "name": "actionType",
              "type": "uint8"
            },
            {
              "internalType": "uint256",
              "name": "accountId",
              "type": "uint256"
            },
            {
              "components": [
                {
                  "internalType": "bool",
                  "name": "sign",
                  "type": "bool"
                },
                {
                  "internalType": "enum Types.AssetDenomination",
                  "name": "denomination",
                  "type": "uint8"
                },
                {
                  "internalType": "enum Types.AssetReference",
                  "name": "ref",
                  "type": "uint8"
                },
                {
                  "internalType": "uint256",
                  "name": "value",
                  "type": "uint256"
                }
              ],
              "internalType": "struct Types.AssetAmount",
              "name": "amount",
              "type": "tuple"
            },
            {
              "internalType": "uint256",
              "name": "primaryMarketId",
              "type": "uint256"
            },
            {
              "internalType": "uint256",
              "name": "secondaryMarketId",
              "type": "uint256"
            },
            {
              "internalType": "address",
              "name": "otherAddress",
              "type": "address"
            },
            {
              "internalType": "uint256",
              "name": "otherAccountId",
              "type": "uint256"
            },
            {
              "internalType": "bytes",
              "name": "data",
              "type": "bytes"
            }
          ],
          "internalType": "struct Actions.ActionArgs[]",
          "name": "actions",
          "type": "tuple[]"
        }
      ],
      "name": "operate",
      "outputs": [],
      "stateMutability": "nonpayable",
      "type": "function"
    },
    {
      "inputs": [],
      "name": "owner",
      "outputs": [
        {
          "internalType": "address",
          "name": "",
          "type": "address"
        }
      ],
      "stateMutability": "view",
      "type": "function"
    },
    {
      "inputs": [],
      "name": "renounceOwnership",
      "outputs": [],
      "stateMutability": "nonpayable",
      "type": "function"
    },
    {
      "inputs": [
        {
          "internalType": "address",
          "name": "newOwner",
          "type": "address"
        }
      ],
      "name": "transferOwnership",
      "outputs": [],
      "stateMutability": "nonpayable",
      "type": "function"
    },
    {
      "inputs": [
        {
          "internalType": "address",
          "name": "token",
          "type": "address"
        },
        {
          "internalType": "address",
          "name": "to",
          "type": "address"
        },
        {
          "internalType": "uint256",
          "name": "amount",
          "type": "uint256"
        }
      ],
      "name": "withdraw",
      "outputs": [],
      "stateMutability": "nonpayable",
      "type": "function"
    }
  ],
  "transactionHash": "0xae2ab037353e53c81391fbb9da8edee5a98c5f988583ab84115f085ebd4b7d65",
  "args": [
    "0x4F96Fe3b7A6Cf9725f59d353F723c1bDb64CA6Aa"
  ],
  "solcInputHash": "1c3e47afe838ff11e30c96abe939bc7f",
  "bytecode": "0x60806040523480156200001157600080fd5b50604051620019b6380380620019b683398181016040528101906200003791906200014e565b6000620000496200012f60201b60201c565b9050806000806101000a81548173ffffffffffffffffffffffffffffffffffffffff021916908373ffffffffffffffffffffffffffffffffffffffff1602179055508073ffffffffffffffffffffffffffffffffffffffff16600073ffffffffffffffffffffffffffffffffffffffff167f8be0079c531659141344cd1fd0a4f28419497f9722a3daafe3b4186f6b6457e060405160405180910390a35080600160006101000a81548173ffffffffffffffffffffffffffffffffffffffff021916908373ffffffffffffffffffffffffffffffffffffffff16021790555050620001c8565b600033905090565b6000815190506200014881620001ae565b92915050565b6000602082840312156200016157600080fd5b6000620001718482850162000137565b91505092915050565b600062000187826200018e565b9050919050565b600073ffffffffffffffffffffffffffffffffffffffff82169050919050565b620001b9816200017a565b8114620001c557600080fd5b50565b6117de80620001d86000396000f3fe608060405234801561001057600080fd5b50600436106100885760003560e01c8063a67a6a451161005b578063a67a6a4514610103578063d9caed121461011f578063f2fde38b1461013b578063f4b9fa751461015757610088565b8063062bd3e91461008d578063295c39a5146100bd578063715018a6146100db5780638da5cb5b146100e5575b600080fd5b6100a760048036038101906100a291906112f4565b610175565b6040516100b49190611465565b60405180910390f35b6100c56101e3565b6040516100d291906114de565b60405180910390f35b6100e36101ec565b005b6100ed610359565b6040516100fa9190611465565b60405180910390f35b61011d60048036038101906101189190611288565b610382565b005b61013960048036038101906101349190611239565b610550565b005b61015560048036038101906101509190611210565b6106d3565b005b61015f6108c5565b60405161016c9190611465565b60405180910390f35b60008082146101b9576040517f08c379a00000000000000000000000000000000000000000000000000000000081526004016101b0906114be565b60405180910390fd5b600160009054906101000a900473ffffffffffffffffffffffffffffffffffffffff169050919050565b60006001905090565b6101f46108eb565b73ffffffffffffffffffffffffffffffffffffffff16610212610359565b73ffffffffffffffffffffffffffffffffffffffff161461029b576040517f08c379a00000000000000000000000000000000000000000000000000000000081526004018080602001828103825260208152602001807f4f776e61626c653a2063616c6c6572206973206e6f7420746865206f776e657281525060200191505060405180910390fd5b600073ffffffffffffffffffffffffffffffffffffffff1660008054906101000a900473ffffffffffffffffffffffffffffffffffffffff1673ffffffffffffffffffffffffffffffffffffffff167f8be0079c531659141344cd1fd0a4f28419497f9722a3daafe3b4186f6b6457e060405160405180910390a360008060006101000a81548173ffffffffffffffffffffffffffffffffffffffff021916908373ffffffffffffffffffffffffffffffffffffffff160217905550565b60008060009054906101000a900473ffffffffffffffffffffffffffffffffffffffff16905090565b6104038160008151811061039257fe5b602002602001015160a00151826000815181106103ab57fe5b60200260200101516040015160600151600160009054906101000a900473ffffffffffffffffffffffffffffffffffffffff1673ffffffffffffffffffffffffffffffffffffffff166108f39092919063ffffffff16565b8060008151811061041057fe5b602002602001015160a0015173ffffffffffffffffffffffffffffffffffffffff16638b418713338460008151811061044557fe5b60200260200101518460018151811061045a57fe5b602002602001015160e001516040518463ffffffff1660e01b815260040161048493929190611480565b600060405180830381600087803b15801561049e57600080fd5b505af11580156104b2573d6000803e3d6000fd5b5050505061054c816002815181106104c657fe5b602002602001015160a00151306105036002856000815181106104e557fe5b6020026020010151604001516060015161099590919063ffffffff16565b600160009054906101000a900473ffffffffffffffffffffffffffffffffffffffff1673ffffffffffffffffffffffffffffffffffffffff16610a1d909392919063ffffffff16565b5050565b6105586108eb565b73ffffffffffffffffffffffffffffffffffffffff16610576610359565b73ffffffffffffffffffffffffffffffffffffffff16146105ff576040517f08c379a00000000000000000000000000000000000000000000000000000000081526004018080602001828103825260208152602001807f4f776e61626c653a2063616c6c6572206973206e6f7420746865206f776e657281525060200191505060405180910390fd5b600073ffffffffffffffffffffffffffffffffffffffff168373ffffffffffffffffffffffffffffffffffffffff1614156106a2578173ffffffffffffffffffffffffffffffffffffffff168160405161065890611450565b60006040518083038185875af1925050503d8060008114610695576040519150601f19603f3d011682016040523d82523d6000602084013e61069a565b606091505b5050506106ce565b6106cd82828573ffffffffffffffffffffffffffffffffffffffff166108f39092919063ffffffff16565b5b505050565b6106db6108eb565b73ffffffffffffffffffffffffffffffffffffffff166106f9610359565b73ffffffffffffffffffffffffffffffffffffffff1614610782576040517f08c379a00000000000000000000000000000000000000000000000000000000081526004018080602001828103825260208152602001807f4f776e61626c653a2063616c6c6572206973206e6f7420746865206f776e657281525060200191505060405180910390fd5b600073ffffffffffffffffffffffffffffffffffffffff168173ffffffffffffffffffffffffffffffffffffffff161415610808576040517f08c379a00000000000000000000000000000000000000000000000000000000081526004018080602001828103825260268152602001806117336026913960400191505060405180910390fd5b8073ffffffffffffffffffffffffffffffffffffffff1660008054906101000a900473ffffffffffffffffffffffffffffffffffffffff1673ffffffffffffffffffffffffffffffffffffffff167f8be0079c531659141344cd1fd0a4f28419497f9722a3daafe3b4186f6b6457e060405160405180910390a3806000806101000a81548173ffffffffffffffffffffffffffffffffffffffff021916908373ffffffffffffffffffffffffffffffffffffffff16021790555050565b600160009054906101000a900473ffffffffffffffffffffffffffffffffffffffff1681565b600033905090565b6109908363a9059cbb60e01b8484604051602401808373ffffffffffffffffffffffffffffffffffffffff16815260200182815260200192505050604051602081830303815290604052907bffffffffffffffffffffffffffffffffffffffffffffffffffffffff19166020820180517bffffffffffffffffffffffffffffffffffffffffffffffffffffffff8381831617835250505050610ade565b505050565b600080828401905083811015610a13576040517f08c379a000000000000000000000000000000000000000000000000000000000815260040180806020018281038252601b8152602001807f536166654d6174683a206164646974696f6e206f766572666c6f77000000000081525060200191505060405180910390fd5b8091505092915050565b610ad8846323b872dd60e01b858585604051602401808473ffffffffffffffffffffffffffffffffffffffff1681526020018373ffffffffffffffffffffffffffffffffffffffff1681526020018281526020019350505050604051602081830303815290604052907bffffffffffffffffffffffffffffffffffffffffffffffffffffffff19166020820180517bffffffffffffffffffffffffffffffffffffffffffffffffffffffff8381831617835250505050610ade565b50505050565b6000610b40826040518060400160405280602081526020017f5361666545524332303a206c6f772d6c6576656c2063616c6c206661696c65648152508573ffffffffffffffffffffffffffffffffffffffff16610bcd9092919063ffffffff16565b9050600081511115610bc857808060200190516020811015610b6157600080fd5b8101908080519060200190929190505050610bc7576040517f08c379a000000000000000000000000000000000000000000000000000000000815260040180806020018281038252602a81526020018061177f602a913960400191505060405180910390fd5b5b505050565b6060610bdc8484600085610be5565b90509392505050565b606082471015610c40576040517f08c379a00000000000000000000000000000000000000000000000000000000081526004018080602001828103825260268152602001806117596026913960400191505060405180910390fd5b610c4985610d8d565b610cbb576040517f08c379a000000000000000000000000000000000000000000000000000000000815260040180806020018281038252601d8152602001807f416464726573733a2063616c6c20746f206e6f6e2d636f6e747261637400000081525060200191505060405180910390fd5b6000808673ffffffffffffffffffffffffffffffffffffffff1685876040518082805190602001908083835b60208310610d0a5780518252602082019150602081019050602083039250610ce7565b6001836020036101000a03801982511681845116808217855250505050505090500191505060006040518083038185875af1925050503d8060008114610d6c576040519150601f19603f3d011682016040523d82523d6000602084013e610d71565b606091505b5091509150610d81828286610da0565b92505050949350505050565b600080823b905060008111915050919050565b60608315610db057829050610e65565b600083511115610dc35782518084602001fd5b816040517f08c379a00000000000000000000000000000000000000000000000000000000081526004018080602001828103825283818151815260200191508051906020019080838360005b83811015610e2a578082015181840152602081019050610e0f565b50505050905090810190601f168015610e575780820380516001836020036101000a031916815260200191505b509250505060405180910390fd5b9392505050565b6000610e7f610e7a8461152a565b6114f9565b9050808382526020820190508260005b85811015610ebf5781358501610ea5888261105a565b845260208401935060208301925050600181019050610e8f565b5050509392505050565b6000610edc610ed784611556565b6114f9565b90508083825260208201905082856040860282011115610efb57600080fd5b60005b85811015610f2b5781610f1188826111af565b845260208401935060408301925050600181019050610efe565b5050509392505050565b6000610f48610f4384611582565b6114f9565b905082815260208101848484011115610f6057600080fd5b610f6b848285611668565b509392505050565b600081359050610f82816116bd565b92915050565b600082601f830112610f9957600080fd5b8135610fa9848260208601610e6c565b91505092915050565b600082601f830112610fc357600080fd5b8135610fd3848260208601610ec9565b91505092915050565b600081359050610feb816116d4565b92915050565b600082601f83011261100257600080fd5b8135611012848260208601610f35565b91505092915050565b60008135905061102a816116eb565b92915050565b60008135905061103f816116fb565b92915050565b6000813590506110548161170b565b92915050565b6000610160828403121561106d57600080fd5b6110786101006114f9565b905060006110888482850161101b565b600083015250602061109c848285016111fb565b60208301525060406110b08482850161113b565b60408301525060c06110c4848285016111fb565b60608301525060e06110d8848285016111fb565b6080830152506101006110ed84828501610f73565b60a083015250610120611102848285016111fb565b60c08301525061014082013567ffffffffffffffff81111561112357600080fd5b61112f84828501610ff1565b60e08301525092915050565b60006080828403121561114d57600080fd5b61115760806114f9565b9050600061116784828501610fdc565b600083015250602061117b84828501611030565b602083015250604061118f84828501611045565b60408301525060606111a3848285016111fb565b60608301525092915050565b6000604082840312156111c157600080fd5b6111cb60406114f9565b905060006111db84828501610f73565b60008301525060206111ef848285016111fb565b60208301525092915050565b60008135905061120a8161171b565b92915050565b60006020828403121561122257600080fd5b600061123084828501610f73565b91505092915050565b60008060006060848603121561124e57600080fd5b600061125c86828701610f73565b935050602061126d86828701610f73565b925050604061127e868287016111fb565b9150509250925092565b6000806040838503121561129b57600080fd5b600083013567ffffffffffffffff8111156112b557600080fd5b6112c185828601610fb2565b925050602083013567ffffffffffffffff8111156112de57600080fd5b6112ea85828601610f88565b9150509250929050565b60006020828403121561130657600080fd5b6000611314848285016111fb565b91505092915050565b61132681611632565b82525050565b611335816115ea565b82525050565b611344816115ea565b82525050565b6000611355826115b2565b61135f81856115bd565b935061136f818560208601611677565b611378816116ac565b840191505092915050565b6000611390602b836115d9565b91507f4d6f636b20536f6c6f4d617267696e3a206f6e6c7920646169206d61726b657460008301527f20737570706f727465642e0000000000000000000000000000000000000000006020830152604082019050919050565b60006113f66000836115ce565b9150600082019050919050565b604082016000820151611419600085018261132c565b50602082015161142c6020850182611432565b50505050565b61143b81611628565b82525050565b61144a81611628565b82525050565b600061145b826113e9565b9150819050919050565b600060208201905061147a600083018461133b565b92915050565b6000608082019050611495600083018661131d565b6114a26020830185611403565b81810360608301526114b4818461134a565b9050949350505050565b600060208201905081810360008301526114d781611383565b9050919050565b60006020820190506114f36000830184611441565b92915050565b6000604051905081810181811067ffffffffffffffff821117156115205761151f6116aa565b5b8060405250919050565b600067ffffffffffffffff821115611545576115446116aa565b5b602082029050602081019050919050565b600067ffffffffffffffff821115611571576115706116aa565b5b602082029050602081019050919050565b600067ffffffffffffffff82111561159d5761159c6116aa565b5b601f19601f8301169050602081019050919050565b600081519050919050565b600082825260208201905092915050565b600081905092915050565b600082825260208201905092915050565b60006115f582611608565b9050919050565b60008115159050919050565b600073ffffffffffffffffffffffffffffffffffffffff82169050919050565b6000819050919050565b600061163d82611644565b9050919050565b600061164f82611656565b9050919050565b600061166182611608565b9050919050565b82818337600083830152505050565b60005b8381101561169557808201518184015260208101905061167a565b838111156116a4576000848401525b50505050565bfe5b6000601f19601f8301169050919050565b6116c6816115ea565b81146116d157600080fd5b50565b6116dd816115fc565b81146116e857600080fd5b50565b600981106116f857600080fd5b50565b6002811061170857600080fd5b50565b6002811061171857600080fd5b50565b61172481611628565b811461172f57600080fd5b5056fe4f776e61626c653a206e6577206f776e657220697320746865207a65726f2061646472657373416464726573733a20696e73756666696369656e742062616c616e636520666f722063616c6c5361666545524332303a204552433230206f7065726174696f6e20646964206e6f742073756363656564a2646970667358221220876c10e824a1038b86e965eba872b623bd1aa2742fdea23eee1a89ac52cd787a64736f6c63430007060033",
  "devdoc": {
    "kind": "dev",
    "methods": {
      "owner()": {
        "details": "Returns the address of the current owner."
      },
      "renounceOwnership()": {
        "details": "Leaves the contract without owner. It will not be possible to call `onlyOwner` functions anymore. Can only be called by the current owner. NOTE: Renouncing ownership will leave the contract without an owner, thereby removing any functionality that is only available to the owner."
      },
      "transferOwnership(address)": {
        "details": "Transfers ownership of the contract to a new account (`newOwner`). Can only be called by the current owner."
      }
    },
    "version": 1
  },
  "userdoc": {
    "kind": "user",
    "methods": {},
    "version": 1
  },
  "storageLayout": {
    "storage": [
      {
        "astId": 7,
        "contract": "contracts/test/mocks/SoloMargin.sol:SoloMargin",
        "label": "_owner",
        "offset": 0,
        "slot": "0",
        "type": "t_address"
      },
      {
        "astId": 1767,
        "contract": "contracts/test/mocks/SoloMargin.sol:SoloMargin",
        "label": "dai",
        "offset": 0,
        "slot": "1",
        "type": "t_address"
      }
    ],
    "types": {
      "t_address": {
        "encoding": "inplace",
        "label": "address",
        "numberOfBytes": "20"
      }
    }
  }
}